ARM GAS  C:\Users\union\AppData\Local\Temp\cc0aYNyf.s 			page 1


   1              		.cpu cortex-m4
   2              		.eabi_attribute 27, 1
   3              		.eabi_attribute 28, 1
   4              		.eabi_attribute 20, 1
   5              		.eabi_attribute 21, 1
   6              		.eabi_attribute 23, 3
   7              		.eabi_attribute 24, 1
   8              		.eabi_attribute 25, 1
   9              		.eabi_attribute 26, 1
  10              		.eabi_attribute 30, 1
  11              		.eabi_attribute 34, 1
  12              		.eabi_attribute 18, 4
  13              		.file	"retarget.c"
  14              		.text
  15              	.Ltext0:
  16              		.cfi_sections	.debug_frame
  17              		.section	.text.printf_flush,"ax",%progbits
  18              		.align	1
  19              		.global	printf_flush
  20              		.arch armv7e-m
  21              		.syntax unified
  22              		.thumb
  23              		.thumb_func
  24              		.fpu fpv4-sp-d16
  26              	printf_flush:
  27              	.LFB135:
  28              		.file 1 "App/Retarget/retarget.c"
   1:App/Retarget/retarget.c **** //01.11.2020
   2:App/Retarget/retarget.c **** #include <stdio.h>
   3:App/Retarget/retarget.c **** #include <string.h>
   4:App/Retarget/retarget.c **** 
   5:App/Retarget/retarget.c **** #include "main.h"
   6:App/Retarget/retarget.c **** #include "retarget.h"
   7:App/Retarget/retarget.c **** //#include "usbd_cdc_if.h"
   8:App/Retarget/retarget.c **** 
   9:App/Retarget/retarget.c **** // printf buffer
  10:App/Retarget/retarget.c **** #define BUF_SZ  1024
  11:App/Retarget/retarget.c **** uint8_t  buf[BUF_SZ];
  12:App/Retarget/retarget.c **** volatile int counter = 0;
  13:App/Retarget/retarget.c **** 
  14:App/Retarget/retarget.c **** // uart на отладочной плате
  15:App/Retarget/retarget.c **** extern UART_HandleTypeDef huart2;
  16:App/Retarget/retarget.c **** //extern UART_HandleTypeDef huart2;
  17:App/Retarget/retarget.c **** 
  18:App/Retarget/retarget.c **** 
  19:App/Retarget/retarget.c **** // Circular update
  20:App/Retarget/retarget.c **** void printf_flush(void)
  21:App/Retarget/retarget.c **** {
  29              		.loc 1 21 1 view -0
  30              		.cfi_startproc
  31              		@ args = 0, pretend = 0, frame = 0
  32              		@ frame_needed = 0, uses_anonymous_args = 0
  33 0000 08B5     		push	{r3, lr}
  34              	.LCFI0:
  35              		.cfi_def_cfa_offset 8
  36              		.cfi_offset 3, -8
  37              		.cfi_offset 14, -4
ARM GAS  C:\Users\union\AppData\Local\Temp\cc0aYNyf.s 			page 2


  22:App/Retarget/retarget.c ****   if(counter)
  38              		.loc 1 22 3 view .LVU1
  39              		.loc 1 22 6 is_stmt 0 view .LVU2
  40 0002 084B     		ldr	r3, .L5
  41 0004 1B68     		ldr	r3, [r3]
  42              		.loc 1 22 5 view .LVU3
  43 0006 03B9     		cbnz	r3, .L4
  44              	.L1:
  23:App/Retarget/retarget.c ****   {
  24:App/Retarget/retarget.c ****     int size = counter;
  25:App/Retarget/retarget.c ****     if(HAL_BUSY == HAL_UART_Transmit_DMA(&huart2, buf, size)) return;
  26:App/Retarget/retarget.c ****     counter = 0;
  27:App/Retarget/retarget.c ****   }
  28:App/Retarget/retarget.c **** }
  45              		.loc 1 28 1 view .LVU4
  46 0008 08BD     		pop	{r3, pc}
  47              	.L4:
  48              	.LBB2:
  24:App/Retarget/retarget.c ****     if(HAL_BUSY == HAL_UART_Transmit_DMA(&huart2, buf, size)) return;
  49              		.loc 1 24 5 is_stmt 1 view .LVU5
  24:App/Retarget/retarget.c ****     if(HAL_BUSY == HAL_UART_Transmit_DMA(&huart2, buf, size)) return;
  50              		.loc 1 24 9 is_stmt 0 view .LVU6
  51 000a 064B     		ldr	r3, .L5
  52 000c 1A68     		ldr	r2, [r3]
  53              	.LVL0:
  25:App/Retarget/retarget.c ****     counter = 0;
  54              		.loc 1 25 5 is_stmt 1 view .LVU7
  25:App/Retarget/retarget.c ****     counter = 0;
  55              		.loc 1 25 20 is_stmt 0 view .LVU8
  56 000e 92B2     		uxth	r2, r2
  57              	.LVL1:
  25:App/Retarget/retarget.c ****     counter = 0;
  58              		.loc 1 25 20 view .LVU9
  59 0010 0549     		ldr	r1, .L5+4
  60 0012 0648     		ldr	r0, .L5+8
  61 0014 FFF7FEFF 		bl	HAL_UART_Transmit_DMA
  62              	.LVL2:
  25:App/Retarget/retarget.c ****     counter = 0;
  63              		.loc 1 25 7 view .LVU10
  64 0018 0228     		cmp	r0, #2
  65 001a F5D0     		beq	.L1
  26:App/Retarget/retarget.c ****   }
  66              		.loc 1 26 5 is_stmt 1 view .LVU11
  26:App/Retarget/retarget.c ****   }
  67              		.loc 1 26 13 is_stmt 0 view .LVU12
  68 001c 014B     		ldr	r3, .L5
  69 001e 0022     		movs	r2, #0
  70 0020 1A60     		str	r2, [r3]
  71 0022 F1E7     		b	.L1
  72              	.L6:
  73              		.align	2
  74              	.L5:
  75 0024 00000000 		.word	.LANCHOR0
  76 0028 00000000 		.word	buf
  77 002c 00000000 		.word	huart2
  78              	.LBE2:
  79              		.cfi_endproc
ARM GAS  C:\Users\union\AppData\Local\Temp\cc0aYNyf.s 			page 3


  80              	.LFE135:
  82              		.section	.text.sendchar,"ax",%progbits
  83              		.align	1
  84              		.global	sendchar
  85              		.syntax unified
  86              		.thumb
  87              		.thumb_func
  88              		.fpu fpv4-sp-d16
  90              	sendchar:
  91              	.LVL3:
  92              	.LFB136:
  29:App/Retarget/retarget.c **** 
  30:App/Retarget/retarget.c **** int sendchar (int c)
  31:App/Retarget/retarget.c **** {
  93              		.loc 1 31 1 is_stmt 1 view -0
  94              		.cfi_startproc
  95              		@ args = 0, pretend = 0, frame = 0
  96              		@ frame_needed = 0, uses_anonymous_args = 0
  97              		@ link register save eliminated.
  32:App/Retarget/retarget.c ****   buf[counter++%BUF_SZ] = c;
  98              		.loc 1 32 3 view .LVU14
  99              		.loc 1 32 14 is_stmt 0 view .LVU15
 100 0000 064A     		ldr	r2, .L8
 101 0002 1368     		ldr	r3, [r2]
 102 0004 591C     		adds	r1, r3, #1
 103 0006 1160     		str	r1, [r2]
 104              		.loc 1 32 16 view .LVU16
 105 0008 5A42     		rsbs	r2, r3, #0
 106 000a C3F30903 		ubfx	r3, r3, #0, #10
 107 000e C2F30902 		ubfx	r2, r2, #0, #10
 108 0012 58BF     		it	pl
 109 0014 5342     		rsbpl	r3, r2, #0
 110              		.loc 1 32 25 view .LVU17
 111 0016 024A     		ldr	r2, .L8+4
 112 0018 D054     		strb	r0, [r2, r3]
  33:App/Retarget/retarget.c ****   //ITM_SendChar(c);
  34:App/Retarget/retarget.c ****   return(c);
 113              		.loc 1 34 3 is_stmt 1 view .LVU18
  35:App/Retarget/retarget.c **** }
 114              		.loc 1 35 1 is_stmt 0 view .LVU19
 115 001a 7047     		bx	lr
 116              	.L9:
 117              		.align	2
 118              	.L8:
 119 001c 00000000 		.word	.LANCHOR0
 120 0020 00000000 		.word	buf
 121              		.cfi_endproc
 122              	.LFE136:
 124              		.section	.text._write,"ax",%progbits
 125              		.align	1
 126              		.global	_write
 127              		.syntax unified
 128              		.thumb
 129              		.thumb_func
 130              		.fpu fpv4-sp-d16
 132              	_write:
 133              	.LVL4:
ARM GAS  C:\Users\union\AppData\Local\Temp\cc0aYNyf.s 			page 4


 134              	.LFB137:
  36:App/Retarget/retarget.c **** 
  37:App/Retarget/retarget.c **** int _write(int fd, char* ptr, int len)
  38:App/Retarget/retarget.c **** {
 135              		.loc 1 38 1 is_stmt 1 view -0
 136              		.cfi_startproc
 137              		@ args = 0, pretend = 0, frame = 0
 138              		@ frame_needed = 0, uses_anonymous_args = 0
 139              		.loc 1 38 1 is_stmt 0 view .LVU21
 140 0000 70B5     		push	{r4, r5, r6, lr}
 141              	.LCFI1:
 142              		.cfi_def_cfa_offset 16
 143              		.cfi_offset 4, -16
 144              		.cfi_offset 5, -12
 145              		.cfi_offset 6, -8
 146              		.cfi_offset 14, -4
 147 0002 0E46     		mov	r6, r1
 148 0004 1546     		mov	r5, r2
  39:App/Retarget/retarget.c ****     (void)fd;
 149              		.loc 1 39 5 is_stmt 1 view .LVU22
  40:App/Retarget/retarget.c ****     int i = 0;
 150              		.loc 1 40 5 view .LVU23
 151              	.LVL5:
  41:App/Retarget/retarget.c ****     while (ptr[i] && (i < len)) {
 152              		.loc 1 41 5 view .LVU24
  40:App/Retarget/retarget.c ****     int i = 0;
 153              		.loc 1 40 9 is_stmt 0 view .LVU25
 154 0006 0024     		movs	r4, #0
 155              	.LVL6:
 156              	.L11:
 157              		.loc 1 41 15 view .LVU26
 158 0008 305D     		ldrb	r0, [r6, r4]	@ zero_extendqisi2
 159              		.loc 1 41 11 view .LVU27
 160 000a 28B1     		cbz	r0, .L12
 161              		.loc 1 41 19 discriminator 1 view .LVU28
 162 000c AC42     		cmp	r4, r5
 163 000e 03DA     		bge	.L12
  42:App/Retarget/retarget.c ****         sendchar((int)ptr[i++]);
 164              		.loc 1 42 9 is_stmt 1 view .LVU29
 165              		.loc 1 42 28 is_stmt 0 view .LVU30
 166 0010 0134     		adds	r4, r4, #1
 167              	.LVL7:
 168              		.loc 1 42 9 view .LVU31
 169 0012 FFF7FEFF 		bl	sendchar
 170              	.LVL8:
 171 0016 F7E7     		b	.L11
 172              	.L12:
  43:App/Retarget/retarget.c ****     }
  44:App/Retarget/retarget.c ****     return len;
 173              		.loc 1 44 5 is_stmt 1 view .LVU32
  45:App/Retarget/retarget.c **** }
 174              		.loc 1 45 1 is_stmt 0 view .LVU33
 175 0018 2846     		mov	r0, r5
 176 001a 70BD     		pop	{r4, r5, r6, pc}
 177              		.loc 1 45 1 view .LVU34
 178              		.cfi_endproc
 179              	.LFE137:
ARM GAS  C:\Users\union\AppData\Local\Temp\cc0aYNyf.s 			page 5


 181              		.global	counter
 182              		.comm	buf,1024,4
 183              		.comm	role,1,1
 184              		.comm	mouse_event_cnt,4,4
 185              		.section	.bss.counter,"aw",%nobits
 186              		.align	2
 187              		.set	.LANCHOR0,. + 0
 190              	counter:
 191 0000 00000000 		.space	4
 192              		.text
 193              	.Letext0:
 194              		.file 2 "c:\\arm_tool\\gcc\\arm-none-eabi\\include\\machine\\_default_types.h"
 195              		.file 3 "c:\\arm_tool\\gcc\\arm-none-eabi\\include\\sys\\lock.h"
 196              		.file 4 "c:\\arm_tool\\gcc\\arm-none-eabi\\include\\sys\\_types.h"
 197              		.file 5 "c:\\arm_tool\\gcc\\lib\\gcc\\arm-none-eabi\\8.2.1\\include\\stddef.h"
 198              		.file 6 "c:\\arm_tool\\gcc\\arm-none-eabi\\include\\sys\\reent.h"
 199              		.file 7 "c:\\arm_tool\\gcc\\arm-none-eabi\\include\\sys\\_stdint.h"
 200              		.file 8 "Drivers/CMSIS/Include/core_cm4.h"
 201              		.file 9 "Drivers/CMSIS/Device/ST/STM32L4xx/Include/system_stm32l4xx.h"
 202              		.file 10 "Drivers/CMSIS/Device/ST/STM32L4xx/Include/stm32l476xx.h"
 203              		.file 11 "Drivers/STM32L4xx_HAL_Driver/Inc/stm32l4xx_hal_def.h"
 204              		.file 12 "Drivers/STM32L4xx_HAL_Driver/Inc/stm32l4xx_hal_dma.h"
 205              		.file 13 "Drivers/STM32L4xx_HAL_Driver/Inc/stm32l4xx_hal_flash.h"
 206              		.file 14 "Drivers/STM32L4xx_HAL_Driver/Inc/stm32l4xx_hal_uart.h"
 207              		.file 15 "Drivers/STM32L4xx_HAL_Driver/Inc/stm32l4xx_hal.h"
 208              		.file 16 "Core/Inc/main.h"
ARM GAS  C:\Users\union\AppData\Local\Temp\cc0aYNyf.s 			page 6


DEFINED SYMBOLS
                            *ABS*:0000000000000000 retarget.c
C:\Users\union\AppData\Local\Temp\cc0aYNyf.s:18     .text.printf_flush:0000000000000000 $t
C:\Users\union\AppData\Local\Temp\cc0aYNyf.s:26     .text.printf_flush:0000000000000000 printf_flush
C:\Users\union\AppData\Local\Temp\cc0aYNyf.s:75     .text.printf_flush:0000000000000024 $d
                            *COM*:0000000000000400 buf
C:\Users\union\AppData\Local\Temp\cc0aYNyf.s:83     .text.sendchar:0000000000000000 $t
C:\Users\union\AppData\Local\Temp\cc0aYNyf.s:90     .text.sendchar:0000000000000000 sendchar
C:\Users\union\AppData\Local\Temp\cc0aYNyf.s:119    .text.sendchar:000000000000001c $d
C:\Users\union\AppData\Local\Temp\cc0aYNyf.s:125    .text._write:0000000000000000 $t
C:\Users\union\AppData\Local\Temp\cc0aYNyf.s:132    .text._write:0000000000000000 _write
C:\Users\union\AppData\Local\Temp\cc0aYNyf.s:190    .bss.counter:0000000000000000 counter
                            *COM*:0000000000000001 role
                            *COM*:0000000000000004 mouse_event_cnt
C:\Users\union\AppData\Local\Temp\cc0aYNyf.s:186    .bss.counter:0000000000000000 $d

UNDEFINED SYMBOLS
HAL_UART_Transmit_DMA
huart2
