ARM GAS  C:\Users\union\AppData\Local\Temp\ccdvyd3C.s 			page 1


   1              		.cpu cortex-m4
   2              		.eabi_attribute 27, 1
   3              		.eabi_attribute 28, 1
   4              		.eabi_attribute 20, 1
   5              		.eabi_attribute 21, 1
   6              		.eabi_attribute 23, 3
   7              		.eabi_attribute 24, 1
   8              		.eabi_attribute 25, 1
   9              		.eabi_attribute 26, 1
  10              		.eabi_attribute 30, 1
  11              		.eabi_attribute 34, 1
  12              		.eabi_attribute 18, 4
  13              		.file	"stm32l4xx_hal.c"
  14              		.text
  15              	.Ltext0:
  16              		.cfi_sections	.debug_frame
  17              		.section	.text.HAL_MspInit,"ax",%progbits
  18              		.align	1
  19              		.weak	HAL_MspInit
  20              		.arch armv7e-m
  21              		.syntax unified
  22              		.thumb
  23              		.thumb_func
  24              		.fpu fpv4-sp-d16
  26              	HAL_MspInit:
  27              	.LFB134:
  28              		.file 1 "Drivers/STM32L4xx_HAL_Driver/Src/stm32l4xx_hal.c"
   1:Drivers/STM32L4xx_HAL_Driver/Src/stm32l4xx_hal.c **** /**
   2:Drivers/STM32L4xx_HAL_Driver/Src/stm32l4xx_hal.c ****   ******************************************************************************
   3:Drivers/STM32L4xx_HAL_Driver/Src/stm32l4xx_hal.c ****   * @file    stm32l4xx_hal.c
   4:Drivers/STM32L4xx_HAL_Driver/Src/stm32l4xx_hal.c ****   * @author  MCD Application Team
   5:Drivers/STM32L4xx_HAL_Driver/Src/stm32l4xx_hal.c ****   * @brief   HAL module driver.
   6:Drivers/STM32L4xx_HAL_Driver/Src/stm32l4xx_hal.c ****   *          This is the common part of the HAL initialization
   7:Drivers/STM32L4xx_HAL_Driver/Src/stm32l4xx_hal.c ****   *
   8:Drivers/STM32L4xx_HAL_Driver/Src/stm32l4xx_hal.c ****   ******************************************************************************
   9:Drivers/STM32L4xx_HAL_Driver/Src/stm32l4xx_hal.c ****   * @attention
  10:Drivers/STM32L4xx_HAL_Driver/Src/stm32l4xx_hal.c ****   *
  11:Drivers/STM32L4xx_HAL_Driver/Src/stm32l4xx_hal.c ****   * Copyright (c) 2017 STMicroelectronics.
  12:Drivers/STM32L4xx_HAL_Driver/Src/stm32l4xx_hal.c ****   * All rights reserved.
  13:Drivers/STM32L4xx_HAL_Driver/Src/stm32l4xx_hal.c ****   *
  14:Drivers/STM32L4xx_HAL_Driver/Src/stm32l4xx_hal.c ****   * This software is licensed under terms that can be found in the LICENSE file
  15:Drivers/STM32L4xx_HAL_Driver/Src/stm32l4xx_hal.c ****   * in the root directory of this software component.
  16:Drivers/STM32L4xx_HAL_Driver/Src/stm32l4xx_hal.c ****   * If no LICENSE file comes with this software, it is provided AS-IS.
  17:Drivers/STM32L4xx_HAL_Driver/Src/stm32l4xx_hal.c ****   *
  18:Drivers/STM32L4xx_HAL_Driver/Src/stm32l4xx_hal.c ****   ******************************************************************************
  19:Drivers/STM32L4xx_HAL_Driver/Src/stm32l4xx_hal.c ****   @verbatim
  20:Drivers/STM32L4xx_HAL_Driver/Src/stm32l4xx_hal.c ****   ==============================================================================
  21:Drivers/STM32L4xx_HAL_Driver/Src/stm32l4xx_hal.c ****                      ##### How to use this driver #####
  22:Drivers/STM32L4xx_HAL_Driver/Src/stm32l4xx_hal.c ****   ==============================================================================
  23:Drivers/STM32L4xx_HAL_Driver/Src/stm32l4xx_hal.c ****     [..]
  24:Drivers/STM32L4xx_HAL_Driver/Src/stm32l4xx_hal.c ****     The common HAL driver contains a set of generic and common APIs that can be
  25:Drivers/STM32L4xx_HAL_Driver/Src/stm32l4xx_hal.c ****     used by the PPP peripheral drivers and the user to start using the HAL.
  26:Drivers/STM32L4xx_HAL_Driver/Src/stm32l4xx_hal.c ****     [..]
  27:Drivers/STM32L4xx_HAL_Driver/Src/stm32l4xx_hal.c ****     The HAL contains two APIs' categories:
  28:Drivers/STM32L4xx_HAL_Driver/Src/stm32l4xx_hal.c ****          (+) Common HAL APIs
  29:Drivers/STM32L4xx_HAL_Driver/Src/stm32l4xx_hal.c ****          (+) Services HAL APIs
  30:Drivers/STM32L4xx_HAL_Driver/Src/stm32l4xx_hal.c **** 
ARM GAS  C:\Users\union\AppData\Local\Temp\ccdvyd3C.s 			page 2


  31:Drivers/STM32L4xx_HAL_Driver/Src/stm32l4xx_hal.c ****   @endverbatim
  32:Drivers/STM32L4xx_HAL_Driver/Src/stm32l4xx_hal.c ****   ******************************************************************************
  33:Drivers/STM32L4xx_HAL_Driver/Src/stm32l4xx_hal.c ****   */
  34:Drivers/STM32L4xx_HAL_Driver/Src/stm32l4xx_hal.c **** 
  35:Drivers/STM32L4xx_HAL_Driver/Src/stm32l4xx_hal.c **** /* Includes ------------------------------------------------------------------*/
  36:Drivers/STM32L4xx_HAL_Driver/Src/stm32l4xx_hal.c **** #include "stm32l4xx_hal.h"
  37:Drivers/STM32L4xx_HAL_Driver/Src/stm32l4xx_hal.c **** 
  38:Drivers/STM32L4xx_HAL_Driver/Src/stm32l4xx_hal.c **** /** @addtogroup STM32L4xx_HAL_Driver
  39:Drivers/STM32L4xx_HAL_Driver/Src/stm32l4xx_hal.c ****   * @{
  40:Drivers/STM32L4xx_HAL_Driver/Src/stm32l4xx_hal.c ****   */
  41:Drivers/STM32L4xx_HAL_Driver/Src/stm32l4xx_hal.c **** 
  42:Drivers/STM32L4xx_HAL_Driver/Src/stm32l4xx_hal.c **** /** @defgroup HAL HAL
  43:Drivers/STM32L4xx_HAL_Driver/Src/stm32l4xx_hal.c ****   * @brief HAL module driver
  44:Drivers/STM32L4xx_HAL_Driver/Src/stm32l4xx_hal.c ****   * @{
  45:Drivers/STM32L4xx_HAL_Driver/Src/stm32l4xx_hal.c ****   */
  46:Drivers/STM32L4xx_HAL_Driver/Src/stm32l4xx_hal.c **** 
  47:Drivers/STM32L4xx_HAL_Driver/Src/stm32l4xx_hal.c **** #ifdef HAL_MODULE_ENABLED
  48:Drivers/STM32L4xx_HAL_Driver/Src/stm32l4xx_hal.c **** 
  49:Drivers/STM32L4xx_HAL_Driver/Src/stm32l4xx_hal.c **** /* Private typedef -----------------------------------------------------------*/
  50:Drivers/STM32L4xx_HAL_Driver/Src/stm32l4xx_hal.c **** /* Private define ------------------------------------------------------------*/
  51:Drivers/STM32L4xx_HAL_Driver/Src/stm32l4xx_hal.c **** /**
  52:Drivers/STM32L4xx_HAL_Driver/Src/stm32l4xx_hal.c ****  * @brief STM32L4xx HAL Driver version number
  53:Drivers/STM32L4xx_HAL_Driver/Src/stm32l4xx_hal.c ****    */
  54:Drivers/STM32L4xx_HAL_Driver/Src/stm32l4xx_hal.c **** #define STM32L4XX_HAL_VERSION_MAIN   (0x01U) /*!< [31:24] main version */
  55:Drivers/STM32L4xx_HAL_Driver/Src/stm32l4xx_hal.c **** #define STM32L4XX_HAL_VERSION_SUB1   (0x0DU) /*!< [23:16] sub1 version */
  56:Drivers/STM32L4xx_HAL_Driver/Src/stm32l4xx_hal.c **** #define STM32L4XX_HAL_VERSION_SUB2   (0x02U) /*!< [15:8]  sub2 version */
  57:Drivers/STM32L4xx_HAL_Driver/Src/stm32l4xx_hal.c **** #define STM32L4XX_HAL_VERSION_RC     (0x00U) /*!< [7:0]  release candidate */
  58:Drivers/STM32L4xx_HAL_Driver/Src/stm32l4xx_hal.c **** #define STM32L4XX_HAL_VERSION        ((STM32L4XX_HAL_VERSION_MAIN  << 24U)\
  59:Drivers/STM32L4xx_HAL_Driver/Src/stm32l4xx_hal.c ****                                       |(STM32L4XX_HAL_VERSION_SUB1 << 16U)\
  60:Drivers/STM32L4xx_HAL_Driver/Src/stm32l4xx_hal.c ****                                       |(STM32L4XX_HAL_VERSION_SUB2 << 8U)\
  61:Drivers/STM32L4xx_HAL_Driver/Src/stm32l4xx_hal.c ****                                       |(STM32L4XX_HAL_VERSION_RC))
  62:Drivers/STM32L4xx_HAL_Driver/Src/stm32l4xx_hal.c **** 
  63:Drivers/STM32L4xx_HAL_Driver/Src/stm32l4xx_hal.c **** #if defined(VREFBUF)
  64:Drivers/STM32L4xx_HAL_Driver/Src/stm32l4xx_hal.c **** #define VREFBUF_TIMEOUT_VALUE     10U   /* 10 ms (to be confirmed) */
  65:Drivers/STM32L4xx_HAL_Driver/Src/stm32l4xx_hal.c **** #endif /* VREFBUF */
  66:Drivers/STM32L4xx_HAL_Driver/Src/stm32l4xx_hal.c **** 
  67:Drivers/STM32L4xx_HAL_Driver/Src/stm32l4xx_hal.c **** /* ------------ SYSCFG registers bit address in the alias region ------------ */
  68:Drivers/STM32L4xx_HAL_Driver/Src/stm32l4xx_hal.c **** #define SYSCFG_OFFSET             (SYSCFG_BASE - PERIPH_BASE)
  69:Drivers/STM32L4xx_HAL_Driver/Src/stm32l4xx_hal.c **** /* ---  MEMRMP Register ---*/
  70:Drivers/STM32L4xx_HAL_Driver/Src/stm32l4xx_hal.c **** /* Alias word address of FB_MODE bit */
  71:Drivers/STM32L4xx_HAL_Driver/Src/stm32l4xx_hal.c **** #define MEMRMP_OFFSET             SYSCFG_OFFSET
  72:Drivers/STM32L4xx_HAL_Driver/Src/stm32l4xx_hal.c **** #define FB_MODE_BitNumber         8U
  73:Drivers/STM32L4xx_HAL_Driver/Src/stm32l4xx_hal.c **** #define FB_MODE_BB                (PERIPH_BB_BASE + (MEMRMP_OFFSET * 32U) + (FB_MODE_BitNumber * 4U
  74:Drivers/STM32L4xx_HAL_Driver/Src/stm32l4xx_hal.c **** 
  75:Drivers/STM32L4xx_HAL_Driver/Src/stm32l4xx_hal.c **** /* --- SCSR Register ---*/
  76:Drivers/STM32L4xx_HAL_Driver/Src/stm32l4xx_hal.c **** /* Alias word address of SRAM2ER bit */
  77:Drivers/STM32L4xx_HAL_Driver/Src/stm32l4xx_hal.c **** #define SCSR_OFFSET               (SYSCFG_OFFSET + 0x18U)
  78:Drivers/STM32L4xx_HAL_Driver/Src/stm32l4xx_hal.c **** #define BRER_BitNumber            0U
  79:Drivers/STM32L4xx_HAL_Driver/Src/stm32l4xx_hal.c **** #define SCSR_SRAM2ER_BB           (PERIPH_BB_BASE + (SCSR_OFFSET * 32U) + (BRER_BitNumber * 4U))
  80:Drivers/STM32L4xx_HAL_Driver/Src/stm32l4xx_hal.c **** 
  81:Drivers/STM32L4xx_HAL_Driver/Src/stm32l4xx_hal.c **** /* Private macro -------------------------------------------------------------*/
  82:Drivers/STM32L4xx_HAL_Driver/Src/stm32l4xx_hal.c **** /* Private variables ---------------------------------------------------------*/
  83:Drivers/STM32L4xx_HAL_Driver/Src/stm32l4xx_hal.c **** /* Private function prototypes -----------------------------------------------*/
  84:Drivers/STM32L4xx_HAL_Driver/Src/stm32l4xx_hal.c **** 
  85:Drivers/STM32L4xx_HAL_Driver/Src/stm32l4xx_hal.c **** /* Exported variables --------------------------------------------------------*/
  86:Drivers/STM32L4xx_HAL_Driver/Src/stm32l4xx_hal.c **** 
  87:Drivers/STM32L4xx_HAL_Driver/Src/stm32l4xx_hal.c **** /** @defgroup HAL_Exported_Variables HAL Exported Variables
ARM GAS  C:\Users\union\AppData\Local\Temp\ccdvyd3C.s 			page 3


  88:Drivers/STM32L4xx_HAL_Driver/Src/stm32l4xx_hal.c ****   * @{
  89:Drivers/STM32L4xx_HAL_Driver/Src/stm32l4xx_hal.c ****   */
  90:Drivers/STM32L4xx_HAL_Driver/Src/stm32l4xx_hal.c **** __IO uint32_t uwTick;
  91:Drivers/STM32L4xx_HAL_Driver/Src/stm32l4xx_hal.c **** uint32_t uwTickPrio = (1UL << __NVIC_PRIO_BITS); /* Invalid priority */
  92:Drivers/STM32L4xx_HAL_Driver/Src/stm32l4xx_hal.c **** HAL_TickFreqTypeDef uwTickFreq = HAL_TICK_FREQ_DEFAULT;  /* 1KHz */
  93:Drivers/STM32L4xx_HAL_Driver/Src/stm32l4xx_hal.c **** /**
  94:Drivers/STM32L4xx_HAL_Driver/Src/stm32l4xx_hal.c ****   * @}
  95:Drivers/STM32L4xx_HAL_Driver/Src/stm32l4xx_hal.c ****   */
  96:Drivers/STM32L4xx_HAL_Driver/Src/stm32l4xx_hal.c **** 
  97:Drivers/STM32L4xx_HAL_Driver/Src/stm32l4xx_hal.c **** /* Exported functions --------------------------------------------------------*/
  98:Drivers/STM32L4xx_HAL_Driver/Src/stm32l4xx_hal.c **** 
  99:Drivers/STM32L4xx_HAL_Driver/Src/stm32l4xx_hal.c **** /** @defgroup HAL_Exported_Functions HAL Exported Functions
 100:Drivers/STM32L4xx_HAL_Driver/Src/stm32l4xx_hal.c ****   * @{
 101:Drivers/STM32L4xx_HAL_Driver/Src/stm32l4xx_hal.c ****   */
 102:Drivers/STM32L4xx_HAL_Driver/Src/stm32l4xx_hal.c **** 
 103:Drivers/STM32L4xx_HAL_Driver/Src/stm32l4xx_hal.c **** /** @defgroup HAL_Exported_Functions_Group1 Initialization and de-initialization Functions
 104:Drivers/STM32L4xx_HAL_Driver/Src/stm32l4xx_hal.c ****  *  @brief    Initialization and de-initialization functions
 105:Drivers/STM32L4xx_HAL_Driver/Src/stm32l4xx_hal.c ****  *
 106:Drivers/STM32L4xx_HAL_Driver/Src/stm32l4xx_hal.c **** @verbatim
 107:Drivers/STM32L4xx_HAL_Driver/Src/stm32l4xx_hal.c ****  ===============================================================================
 108:Drivers/STM32L4xx_HAL_Driver/Src/stm32l4xx_hal.c ****               ##### Initialization and de-initialization functions #####
 109:Drivers/STM32L4xx_HAL_Driver/Src/stm32l4xx_hal.c ****  ===============================================================================
 110:Drivers/STM32L4xx_HAL_Driver/Src/stm32l4xx_hal.c ****     [..]  This section provides functions allowing to:
 111:Drivers/STM32L4xx_HAL_Driver/Src/stm32l4xx_hal.c ****       (+) Initialize the Flash interface, the NVIC allocation and initial time base
 112:Drivers/STM32L4xx_HAL_Driver/Src/stm32l4xx_hal.c ****           clock configuration.
 113:Drivers/STM32L4xx_HAL_Driver/Src/stm32l4xx_hal.c ****       (+) De-initialize common part of the HAL.
 114:Drivers/STM32L4xx_HAL_Driver/Src/stm32l4xx_hal.c ****       (+) Configure the time base source to have 1ms time base with a dedicated
 115:Drivers/STM32L4xx_HAL_Driver/Src/stm32l4xx_hal.c ****           Tick interrupt priority.
 116:Drivers/STM32L4xx_HAL_Driver/Src/stm32l4xx_hal.c ****         (++) SysTick timer is used by default as source of time base, but user
 117:Drivers/STM32L4xx_HAL_Driver/Src/stm32l4xx_hal.c ****              can eventually implement his proper time base source (a general purpose
 118:Drivers/STM32L4xx_HAL_Driver/Src/stm32l4xx_hal.c ****              timer for example or other time source), keeping in mind that Time base
 119:Drivers/STM32L4xx_HAL_Driver/Src/stm32l4xx_hal.c ****              duration should be kept 1ms since PPP_TIMEOUT_VALUEs are defined and
 120:Drivers/STM32L4xx_HAL_Driver/Src/stm32l4xx_hal.c ****              handled in milliseconds basis.
 121:Drivers/STM32L4xx_HAL_Driver/Src/stm32l4xx_hal.c ****         (++) Time base configuration function (HAL_InitTick ()) is called automatically
 122:Drivers/STM32L4xx_HAL_Driver/Src/stm32l4xx_hal.c ****              at the beginning of the program after reset by HAL_Init() or at any time
 123:Drivers/STM32L4xx_HAL_Driver/Src/stm32l4xx_hal.c ****              when clock is configured, by HAL_RCC_ClockConfig().
 124:Drivers/STM32L4xx_HAL_Driver/Src/stm32l4xx_hal.c ****         (++) Source of time base is configured  to generate interrupts at regular
 125:Drivers/STM32L4xx_HAL_Driver/Src/stm32l4xx_hal.c ****              time intervals. Care must be taken if HAL_Delay() is called from a
 126:Drivers/STM32L4xx_HAL_Driver/Src/stm32l4xx_hal.c ****              peripheral ISR process, the Tick interrupt line must have higher priority
 127:Drivers/STM32L4xx_HAL_Driver/Src/stm32l4xx_hal.c ****             (numerically lower) than the peripheral interrupt. Otherwise the caller
 128:Drivers/STM32L4xx_HAL_Driver/Src/stm32l4xx_hal.c ****             ISR process will be blocked.
 129:Drivers/STM32L4xx_HAL_Driver/Src/stm32l4xx_hal.c ****        (++) functions affecting time base configurations are declared as __weak
 130:Drivers/STM32L4xx_HAL_Driver/Src/stm32l4xx_hal.c ****              to make  override possible  in case of other  implementations in user file.
 131:Drivers/STM32L4xx_HAL_Driver/Src/stm32l4xx_hal.c **** @endverbatim
 132:Drivers/STM32L4xx_HAL_Driver/Src/stm32l4xx_hal.c ****   * @{
 133:Drivers/STM32L4xx_HAL_Driver/Src/stm32l4xx_hal.c ****   */
 134:Drivers/STM32L4xx_HAL_Driver/Src/stm32l4xx_hal.c **** 
 135:Drivers/STM32L4xx_HAL_Driver/Src/stm32l4xx_hal.c **** /**
 136:Drivers/STM32L4xx_HAL_Driver/Src/stm32l4xx_hal.c ****   * @brief  Configure the Flash prefetch, the Instruction and Data caches,
 137:Drivers/STM32L4xx_HAL_Driver/Src/stm32l4xx_hal.c ****   *         the time base source, NVIC and any required global low level hardware
 138:Drivers/STM32L4xx_HAL_Driver/Src/stm32l4xx_hal.c ****   *         by calling the HAL_MspInit() callback function to be optionally defined in user file
 139:Drivers/STM32L4xx_HAL_Driver/Src/stm32l4xx_hal.c ****   *         stm32l4xx_hal_msp.c.
 140:Drivers/STM32L4xx_HAL_Driver/Src/stm32l4xx_hal.c ****   *
 141:Drivers/STM32L4xx_HAL_Driver/Src/stm32l4xx_hal.c ****   * @note   HAL_Init() function is called at the beginning of program after reset and before
 142:Drivers/STM32L4xx_HAL_Driver/Src/stm32l4xx_hal.c ****   *         the clock configuration.
 143:Drivers/STM32L4xx_HAL_Driver/Src/stm32l4xx_hal.c ****   *
 144:Drivers/STM32L4xx_HAL_Driver/Src/stm32l4xx_hal.c ****   * @note   In the default implementation the System Timer (Systick) is used as source of time base
ARM GAS  C:\Users\union\AppData\Local\Temp\ccdvyd3C.s 			page 4


 145:Drivers/STM32L4xx_HAL_Driver/Src/stm32l4xx_hal.c ****   *         The Systick configuration is based on MSI clock, as MSI is the clock
 146:Drivers/STM32L4xx_HAL_Driver/Src/stm32l4xx_hal.c ****   *         used after a system Reset and the NVIC configuration is set to Priority group 4.
 147:Drivers/STM32L4xx_HAL_Driver/Src/stm32l4xx_hal.c ****   *         Once done, time base tick starts incrementing: the tick variable counter is incremented
 148:Drivers/STM32L4xx_HAL_Driver/Src/stm32l4xx_hal.c ****   *         each 1ms in the SysTick_Handler() interrupt handler.
 149:Drivers/STM32L4xx_HAL_Driver/Src/stm32l4xx_hal.c ****   *
 150:Drivers/STM32L4xx_HAL_Driver/Src/stm32l4xx_hal.c ****   * @retval HAL status
 151:Drivers/STM32L4xx_HAL_Driver/Src/stm32l4xx_hal.c ****   */
 152:Drivers/STM32L4xx_HAL_Driver/Src/stm32l4xx_hal.c **** HAL_StatusTypeDef HAL_Init(void)
 153:Drivers/STM32L4xx_HAL_Driver/Src/stm32l4xx_hal.c **** {
 154:Drivers/STM32L4xx_HAL_Driver/Src/stm32l4xx_hal.c ****   HAL_StatusTypeDef  status = HAL_OK;
 155:Drivers/STM32L4xx_HAL_Driver/Src/stm32l4xx_hal.c **** 
 156:Drivers/STM32L4xx_HAL_Driver/Src/stm32l4xx_hal.c ****   /* Configure Flash prefetch, Instruction cache, Data cache */
 157:Drivers/STM32L4xx_HAL_Driver/Src/stm32l4xx_hal.c ****   /* Default configuration at reset is:                      */
 158:Drivers/STM32L4xx_HAL_Driver/Src/stm32l4xx_hal.c ****   /* - Prefetch disabled                                     */
 159:Drivers/STM32L4xx_HAL_Driver/Src/stm32l4xx_hal.c ****   /* - Instruction cache enabled                             */
 160:Drivers/STM32L4xx_HAL_Driver/Src/stm32l4xx_hal.c ****   /* - Data cache enabled                                    */
 161:Drivers/STM32L4xx_HAL_Driver/Src/stm32l4xx_hal.c **** #if (INSTRUCTION_CACHE_ENABLE == 0)
 162:Drivers/STM32L4xx_HAL_Driver/Src/stm32l4xx_hal.c ****    __HAL_FLASH_INSTRUCTION_CACHE_DISABLE();
 163:Drivers/STM32L4xx_HAL_Driver/Src/stm32l4xx_hal.c **** #endif /* INSTRUCTION_CACHE_ENABLE */
 164:Drivers/STM32L4xx_HAL_Driver/Src/stm32l4xx_hal.c **** 
 165:Drivers/STM32L4xx_HAL_Driver/Src/stm32l4xx_hal.c **** #if (DATA_CACHE_ENABLE == 0)
 166:Drivers/STM32L4xx_HAL_Driver/Src/stm32l4xx_hal.c ****    __HAL_FLASH_DATA_CACHE_DISABLE();
 167:Drivers/STM32L4xx_HAL_Driver/Src/stm32l4xx_hal.c **** #endif /* DATA_CACHE_ENABLE */
 168:Drivers/STM32L4xx_HAL_Driver/Src/stm32l4xx_hal.c **** 
 169:Drivers/STM32L4xx_HAL_Driver/Src/stm32l4xx_hal.c **** #if (PREFETCH_ENABLE != 0)
 170:Drivers/STM32L4xx_HAL_Driver/Src/stm32l4xx_hal.c ****   __HAL_FLASH_PREFETCH_BUFFER_ENABLE();
 171:Drivers/STM32L4xx_HAL_Driver/Src/stm32l4xx_hal.c **** #endif /* PREFETCH_ENABLE */
 172:Drivers/STM32L4xx_HAL_Driver/Src/stm32l4xx_hal.c **** 
 173:Drivers/STM32L4xx_HAL_Driver/Src/stm32l4xx_hal.c ****   /* Set Interrupt Group Priority */
 174:Drivers/STM32L4xx_HAL_Driver/Src/stm32l4xx_hal.c ****   HAL_NVIC_SetPriorityGrouping(NVIC_PRIORITYGROUP_4);
 175:Drivers/STM32L4xx_HAL_Driver/Src/stm32l4xx_hal.c **** 
 176:Drivers/STM32L4xx_HAL_Driver/Src/stm32l4xx_hal.c ****   /* Use SysTick as time base source and configure 1ms tick (default clock after Reset is MSI) */
 177:Drivers/STM32L4xx_HAL_Driver/Src/stm32l4xx_hal.c ****   if (HAL_InitTick(TICK_INT_PRIORITY) != HAL_OK)
 178:Drivers/STM32L4xx_HAL_Driver/Src/stm32l4xx_hal.c ****   {
 179:Drivers/STM32L4xx_HAL_Driver/Src/stm32l4xx_hal.c ****     status = HAL_ERROR;
 180:Drivers/STM32L4xx_HAL_Driver/Src/stm32l4xx_hal.c ****   }
 181:Drivers/STM32L4xx_HAL_Driver/Src/stm32l4xx_hal.c ****   else
 182:Drivers/STM32L4xx_HAL_Driver/Src/stm32l4xx_hal.c ****   {
 183:Drivers/STM32L4xx_HAL_Driver/Src/stm32l4xx_hal.c ****     /* Init the low level hardware */
 184:Drivers/STM32L4xx_HAL_Driver/Src/stm32l4xx_hal.c ****     HAL_MspInit();
 185:Drivers/STM32L4xx_HAL_Driver/Src/stm32l4xx_hal.c ****   }
 186:Drivers/STM32L4xx_HAL_Driver/Src/stm32l4xx_hal.c **** 
 187:Drivers/STM32L4xx_HAL_Driver/Src/stm32l4xx_hal.c ****   /* Return function status */
 188:Drivers/STM32L4xx_HAL_Driver/Src/stm32l4xx_hal.c ****   return status;
 189:Drivers/STM32L4xx_HAL_Driver/Src/stm32l4xx_hal.c **** }
 190:Drivers/STM32L4xx_HAL_Driver/Src/stm32l4xx_hal.c **** 
 191:Drivers/STM32L4xx_HAL_Driver/Src/stm32l4xx_hal.c **** /**
 192:Drivers/STM32L4xx_HAL_Driver/Src/stm32l4xx_hal.c ****   * @brief De-initialize common part of the HAL and stop the source of time base.
 193:Drivers/STM32L4xx_HAL_Driver/Src/stm32l4xx_hal.c ****   * @note This function is optional.
 194:Drivers/STM32L4xx_HAL_Driver/Src/stm32l4xx_hal.c ****   * @retval HAL status
 195:Drivers/STM32L4xx_HAL_Driver/Src/stm32l4xx_hal.c ****   */
 196:Drivers/STM32L4xx_HAL_Driver/Src/stm32l4xx_hal.c **** HAL_StatusTypeDef HAL_DeInit(void)
 197:Drivers/STM32L4xx_HAL_Driver/Src/stm32l4xx_hal.c **** {
 198:Drivers/STM32L4xx_HAL_Driver/Src/stm32l4xx_hal.c ****   /* Reset of all peripherals */
 199:Drivers/STM32L4xx_HAL_Driver/Src/stm32l4xx_hal.c ****   __HAL_RCC_APB1_FORCE_RESET();
 200:Drivers/STM32L4xx_HAL_Driver/Src/stm32l4xx_hal.c ****   __HAL_RCC_APB1_RELEASE_RESET();
 201:Drivers/STM32L4xx_HAL_Driver/Src/stm32l4xx_hal.c **** 
ARM GAS  C:\Users\union\AppData\Local\Temp\ccdvyd3C.s 			page 5


 202:Drivers/STM32L4xx_HAL_Driver/Src/stm32l4xx_hal.c ****   __HAL_RCC_APB2_FORCE_RESET();
 203:Drivers/STM32L4xx_HAL_Driver/Src/stm32l4xx_hal.c ****   __HAL_RCC_APB2_RELEASE_RESET();
 204:Drivers/STM32L4xx_HAL_Driver/Src/stm32l4xx_hal.c **** 
 205:Drivers/STM32L4xx_HAL_Driver/Src/stm32l4xx_hal.c ****   __HAL_RCC_AHB1_FORCE_RESET();
 206:Drivers/STM32L4xx_HAL_Driver/Src/stm32l4xx_hal.c ****   __HAL_RCC_AHB1_RELEASE_RESET();
 207:Drivers/STM32L4xx_HAL_Driver/Src/stm32l4xx_hal.c **** 
 208:Drivers/STM32L4xx_HAL_Driver/Src/stm32l4xx_hal.c ****   __HAL_RCC_AHB2_FORCE_RESET();
 209:Drivers/STM32L4xx_HAL_Driver/Src/stm32l4xx_hal.c ****   __HAL_RCC_AHB2_RELEASE_RESET();
 210:Drivers/STM32L4xx_HAL_Driver/Src/stm32l4xx_hal.c **** 
 211:Drivers/STM32L4xx_HAL_Driver/Src/stm32l4xx_hal.c ****   __HAL_RCC_AHB3_FORCE_RESET();
 212:Drivers/STM32L4xx_HAL_Driver/Src/stm32l4xx_hal.c ****   __HAL_RCC_AHB3_RELEASE_RESET();
 213:Drivers/STM32L4xx_HAL_Driver/Src/stm32l4xx_hal.c **** 
 214:Drivers/STM32L4xx_HAL_Driver/Src/stm32l4xx_hal.c ****   /* De-Init the low level hardware */
 215:Drivers/STM32L4xx_HAL_Driver/Src/stm32l4xx_hal.c ****   HAL_MspDeInit();
 216:Drivers/STM32L4xx_HAL_Driver/Src/stm32l4xx_hal.c **** 
 217:Drivers/STM32L4xx_HAL_Driver/Src/stm32l4xx_hal.c ****   /* Return function status */
 218:Drivers/STM32L4xx_HAL_Driver/Src/stm32l4xx_hal.c ****   return HAL_OK;
 219:Drivers/STM32L4xx_HAL_Driver/Src/stm32l4xx_hal.c **** }
 220:Drivers/STM32L4xx_HAL_Driver/Src/stm32l4xx_hal.c **** 
 221:Drivers/STM32L4xx_HAL_Driver/Src/stm32l4xx_hal.c **** /**
 222:Drivers/STM32L4xx_HAL_Driver/Src/stm32l4xx_hal.c ****   * @brief  Initialize the MSP.
 223:Drivers/STM32L4xx_HAL_Driver/Src/stm32l4xx_hal.c ****   * @retval None
 224:Drivers/STM32L4xx_HAL_Driver/Src/stm32l4xx_hal.c ****   */
 225:Drivers/STM32L4xx_HAL_Driver/Src/stm32l4xx_hal.c **** __weak void HAL_MspInit(void)
 226:Drivers/STM32L4xx_HAL_Driver/Src/stm32l4xx_hal.c **** {
  29              		.loc 1 226 1 view -0
  30              		.cfi_startproc
  31              		@ args = 0, pretend = 0, frame = 0
  32              		@ frame_needed = 0, uses_anonymous_args = 0
  33              		@ link register save eliminated.
 227:Drivers/STM32L4xx_HAL_Driver/Src/stm32l4xx_hal.c ****   /* NOTE : This function should not be modified, when the callback is needed,
 228:Drivers/STM32L4xx_HAL_Driver/Src/stm32l4xx_hal.c ****             the HAL_MspInit could be implemented in the user file
 229:Drivers/STM32L4xx_HAL_Driver/Src/stm32l4xx_hal.c ****    */
 230:Drivers/STM32L4xx_HAL_Driver/Src/stm32l4xx_hal.c **** }
  34              		.loc 1 230 1 view .LVU1
  35 0000 7047     		bx	lr
  36              		.cfi_endproc
  37              	.LFE134:
  39              		.section	.text.HAL_MspDeInit,"ax",%progbits
  40              		.align	1
  41              		.weak	HAL_MspDeInit
  42              		.syntax unified
  43              		.thumb
  44              		.thumb_func
  45              		.fpu fpv4-sp-d16
  47              	HAL_MspDeInit:
  48              	.LFB135:
 231:Drivers/STM32L4xx_HAL_Driver/Src/stm32l4xx_hal.c **** 
 232:Drivers/STM32L4xx_HAL_Driver/Src/stm32l4xx_hal.c **** /**
 233:Drivers/STM32L4xx_HAL_Driver/Src/stm32l4xx_hal.c ****   * @brief  DeInitialize the MSP.
 234:Drivers/STM32L4xx_HAL_Driver/Src/stm32l4xx_hal.c ****   * @retval None
 235:Drivers/STM32L4xx_HAL_Driver/Src/stm32l4xx_hal.c ****   */
 236:Drivers/STM32L4xx_HAL_Driver/Src/stm32l4xx_hal.c **** __weak void HAL_MspDeInit(void)
 237:Drivers/STM32L4xx_HAL_Driver/Src/stm32l4xx_hal.c **** {
  49              		.loc 1 237 1 view -0
  50              		.cfi_startproc
  51              		@ args = 0, pretend = 0, frame = 0
ARM GAS  C:\Users\union\AppData\Local\Temp\ccdvyd3C.s 			page 6


  52              		@ frame_needed = 0, uses_anonymous_args = 0
  53              		@ link register save eliminated.
 238:Drivers/STM32L4xx_HAL_Driver/Src/stm32l4xx_hal.c ****   /* NOTE : This function should not be modified, when the callback is needed,
 239:Drivers/STM32L4xx_HAL_Driver/Src/stm32l4xx_hal.c ****             the HAL_MspDeInit could be implemented in the user file
 240:Drivers/STM32L4xx_HAL_Driver/Src/stm32l4xx_hal.c ****    */
 241:Drivers/STM32L4xx_HAL_Driver/Src/stm32l4xx_hal.c **** }
  54              		.loc 1 241 1 view .LVU3
  55 0000 7047     		bx	lr
  56              		.cfi_endproc
  57              	.LFE135:
  59              		.section	.text.HAL_DeInit,"ax",%progbits
  60              		.align	1
  61              		.global	HAL_DeInit
  62              		.syntax unified
  63              		.thumb
  64              		.thumb_func
  65              		.fpu fpv4-sp-d16
  67              	HAL_DeInit:
  68              	.LFB133:
 197:Drivers/STM32L4xx_HAL_Driver/Src/stm32l4xx_hal.c ****   /* Reset of all peripherals */
  69              		.loc 1 197 1 view -0
  70              		.cfi_startproc
  71              		@ args = 0, pretend = 0, frame = 0
  72              		@ frame_needed = 0, uses_anonymous_args = 0
  73 0000 10B5     		push	{r4, lr}
  74              	.LCFI0:
  75              		.cfi_def_cfa_offset 8
  76              		.cfi_offset 4, -8
  77              		.cfi_offset 14, -4
 199:Drivers/STM32L4xx_HAL_Driver/Src/stm32l4xx_hal.c ****   __HAL_RCC_APB1_RELEASE_RESET();
  78              		.loc 1 199 3 view .LVU5
 199:Drivers/STM32L4xx_HAL_Driver/Src/stm32l4xx_hal.c ****   __HAL_RCC_APB1_RELEASE_RESET();
  79              		.loc 1 199 3 view .LVU6
  80 0002 0A4B     		ldr	r3, .L5
  81 0004 4FF0FF32 		mov	r2, #-1
  82 0008 9A63     		str	r2, [r3, #56]
 199:Drivers/STM32L4xx_HAL_Driver/Src/stm32l4xx_hal.c ****   __HAL_RCC_APB1_RELEASE_RESET();
  83              		.loc 1 199 3 view .LVU7
  84 000a DA63     		str	r2, [r3, #60]
 200:Drivers/STM32L4xx_HAL_Driver/Src/stm32l4xx_hal.c **** 
  85              		.loc 1 200 3 view .LVU8
 200:Drivers/STM32L4xx_HAL_Driver/Src/stm32l4xx_hal.c **** 
  86              		.loc 1 200 3 view .LVU9
  87 000c 0024     		movs	r4, #0
  88 000e 9C63     		str	r4, [r3, #56]
 200:Drivers/STM32L4xx_HAL_Driver/Src/stm32l4xx_hal.c **** 
  89              		.loc 1 200 3 view .LVU10
  90 0010 DC63     		str	r4, [r3, #60]
 202:Drivers/STM32L4xx_HAL_Driver/Src/stm32l4xx_hal.c ****   __HAL_RCC_APB2_RELEASE_RESET();
  91              		.loc 1 202 3 view .LVU11
  92 0012 1A64     		str	r2, [r3, #64]
 203:Drivers/STM32L4xx_HAL_Driver/Src/stm32l4xx_hal.c **** 
  93              		.loc 1 203 3 view .LVU12
  94 0014 1C64     		str	r4, [r3, #64]
 205:Drivers/STM32L4xx_HAL_Driver/Src/stm32l4xx_hal.c ****   __HAL_RCC_AHB1_RELEASE_RESET();
  95              		.loc 1 205 3 view .LVU13
  96 0016 9A62     		str	r2, [r3, #40]
ARM GAS  C:\Users\union\AppData\Local\Temp\ccdvyd3C.s 			page 7


 206:Drivers/STM32L4xx_HAL_Driver/Src/stm32l4xx_hal.c **** 
  97              		.loc 1 206 3 view .LVU14
  98 0018 9C62     		str	r4, [r3, #40]
 208:Drivers/STM32L4xx_HAL_Driver/Src/stm32l4xx_hal.c ****   __HAL_RCC_AHB2_RELEASE_RESET();
  99              		.loc 1 208 3 view .LVU15
 100 001a DA62     		str	r2, [r3, #44]
 209:Drivers/STM32L4xx_HAL_Driver/Src/stm32l4xx_hal.c **** 
 101              		.loc 1 209 3 view .LVU16
 102 001c DC62     		str	r4, [r3, #44]
 211:Drivers/STM32L4xx_HAL_Driver/Src/stm32l4xx_hal.c ****   __HAL_RCC_AHB3_RELEASE_RESET();
 103              		.loc 1 211 3 view .LVU17
 104 001e 1A63     		str	r2, [r3, #48]
 212:Drivers/STM32L4xx_HAL_Driver/Src/stm32l4xx_hal.c **** 
 105              		.loc 1 212 3 view .LVU18
 106 0020 1C63     		str	r4, [r3, #48]
 215:Drivers/STM32L4xx_HAL_Driver/Src/stm32l4xx_hal.c **** 
 107              		.loc 1 215 3 view .LVU19
 108 0022 FFF7FEFF 		bl	HAL_MspDeInit
 109              	.LVL0:
 218:Drivers/STM32L4xx_HAL_Driver/Src/stm32l4xx_hal.c **** }
 110              		.loc 1 218 3 view .LVU20
 219:Drivers/STM32L4xx_HAL_Driver/Src/stm32l4xx_hal.c **** 
 111              		.loc 1 219 1 is_stmt 0 view .LVU21
 112 0026 2046     		mov	r0, r4
 113 0028 10BD     		pop	{r4, pc}
 114              	.L6:
 115 002a 00BF     		.align	2
 116              	.L5:
 117 002c 00100240 		.word	1073876992
 118              		.cfi_endproc
 119              	.LFE133:
 121              		.section	.text.HAL_InitTick,"ax",%progbits
 122              		.align	1
 123              		.weak	HAL_InitTick
 124              		.syntax unified
 125              		.thumb
 126              		.thumb_func
 127              		.fpu fpv4-sp-d16
 129              	HAL_InitTick:
 130              	.LVL1:
 131              	.LFB136:
 242:Drivers/STM32L4xx_HAL_Driver/Src/stm32l4xx_hal.c **** 
 243:Drivers/STM32L4xx_HAL_Driver/Src/stm32l4xx_hal.c **** /**
 244:Drivers/STM32L4xx_HAL_Driver/Src/stm32l4xx_hal.c ****   * @brief This function configures the source of the time base:
 245:Drivers/STM32L4xx_HAL_Driver/Src/stm32l4xx_hal.c ****   *        The time source is configured to have 1ms time base with a dedicated
 246:Drivers/STM32L4xx_HAL_Driver/Src/stm32l4xx_hal.c ****   *        Tick interrupt priority.
 247:Drivers/STM32L4xx_HAL_Driver/Src/stm32l4xx_hal.c ****   * @note This function is called  automatically at the beginning of program after
 248:Drivers/STM32L4xx_HAL_Driver/Src/stm32l4xx_hal.c ****   *       reset by HAL_Init() or at any time when clock is reconfigured  by HAL_RCC_ClockConfig().
 249:Drivers/STM32L4xx_HAL_Driver/Src/stm32l4xx_hal.c ****   * @note In the default implementation, SysTick timer is the source of time base.
 250:Drivers/STM32L4xx_HAL_Driver/Src/stm32l4xx_hal.c ****   *       It is used to generate interrupts at regular time intervals.
 251:Drivers/STM32L4xx_HAL_Driver/Src/stm32l4xx_hal.c ****   *       Care must be taken if HAL_Delay() is called from a peripheral ISR process,
 252:Drivers/STM32L4xx_HAL_Driver/Src/stm32l4xx_hal.c ****   *       The SysTick interrupt must have higher priority (numerically lower)
 253:Drivers/STM32L4xx_HAL_Driver/Src/stm32l4xx_hal.c ****   *       than the peripheral interrupt. Otherwise the caller ISR process will be blocked.
 254:Drivers/STM32L4xx_HAL_Driver/Src/stm32l4xx_hal.c ****   *       The function is declared as __weak  to be overwritten  in case of other
 255:Drivers/STM32L4xx_HAL_Driver/Src/stm32l4xx_hal.c ****   *       implementation  in user file.
 256:Drivers/STM32L4xx_HAL_Driver/Src/stm32l4xx_hal.c ****   * @param TickPriority  Tick interrupt priority.
 257:Drivers/STM32L4xx_HAL_Driver/Src/stm32l4xx_hal.c ****   * @retval HAL status
ARM GAS  C:\Users\union\AppData\Local\Temp\ccdvyd3C.s 			page 8


 258:Drivers/STM32L4xx_HAL_Driver/Src/stm32l4xx_hal.c ****   */
 259:Drivers/STM32L4xx_HAL_Driver/Src/stm32l4xx_hal.c **** __weak HAL_StatusTypeDef HAL_InitTick(uint32_t TickPriority)
 260:Drivers/STM32L4xx_HAL_Driver/Src/stm32l4xx_hal.c **** {
 132              		.loc 1 260 1 is_stmt 1 view -0
 133              		.cfi_startproc
 134              		@ args = 0, pretend = 0, frame = 0
 135              		@ frame_needed = 0, uses_anonymous_args = 0
 261:Drivers/STM32L4xx_HAL_Driver/Src/stm32l4xx_hal.c ****   HAL_StatusTypeDef  status = HAL_OK;
 136              		.loc 1 261 3 view .LVU23
 262:Drivers/STM32L4xx_HAL_Driver/Src/stm32l4xx_hal.c **** 
 263:Drivers/STM32L4xx_HAL_Driver/Src/stm32l4xx_hal.c ****   /* Check uwTickFreq for MisraC 2012 (even if uwTickFreq is a enum type that doesn't take the valu
 264:Drivers/STM32L4xx_HAL_Driver/Src/stm32l4xx_hal.c ****   if ((uint32_t)uwTickFreq != 0U)
 137              		.loc 1 264 3 view .LVU24
 138              		.loc 1 264 28 is_stmt 0 view .LVU25
 139 0000 104B     		ldr	r3, .L18
 140 0002 1B78     		ldrb	r3, [r3]	@ zero_extendqisi2
 141              		.loc 1 264 6 view .LVU26
 142 0004 0BB9     		cbnz	r3, .L16
 265:Drivers/STM32L4xx_HAL_Driver/Src/stm32l4xx_hal.c ****   {
 266:Drivers/STM32L4xx_HAL_Driver/Src/stm32l4xx_hal.c ****     /*Configure the SysTick to have interrupt in 1ms time basis*/
 267:Drivers/STM32L4xx_HAL_Driver/Src/stm32l4xx_hal.c ****     if (HAL_SYSTICK_Config(SystemCoreClock / (1000U / (uint32_t)uwTickFreq)) == 0U)
 268:Drivers/STM32L4xx_HAL_Driver/Src/stm32l4xx_hal.c ****     {
 269:Drivers/STM32L4xx_HAL_Driver/Src/stm32l4xx_hal.c ****       /* Configure the SysTick IRQ priority */
 270:Drivers/STM32L4xx_HAL_Driver/Src/stm32l4xx_hal.c ****       if (TickPriority < (1UL << __NVIC_PRIO_BITS))
 271:Drivers/STM32L4xx_HAL_Driver/Src/stm32l4xx_hal.c ****       {
 272:Drivers/STM32L4xx_HAL_Driver/Src/stm32l4xx_hal.c ****         HAL_NVIC_SetPriority(SysTick_IRQn, TickPriority, 0U);
 273:Drivers/STM32L4xx_HAL_Driver/Src/stm32l4xx_hal.c ****         uwTickPrio = TickPriority;
 274:Drivers/STM32L4xx_HAL_Driver/Src/stm32l4xx_hal.c ****       }
 275:Drivers/STM32L4xx_HAL_Driver/Src/stm32l4xx_hal.c ****       else
 276:Drivers/STM32L4xx_HAL_Driver/Src/stm32l4xx_hal.c ****       {
 277:Drivers/STM32L4xx_HAL_Driver/Src/stm32l4xx_hal.c ****         status = HAL_ERROR;
 278:Drivers/STM32L4xx_HAL_Driver/Src/stm32l4xx_hal.c ****       }
 279:Drivers/STM32L4xx_HAL_Driver/Src/stm32l4xx_hal.c ****     }
 280:Drivers/STM32L4xx_HAL_Driver/Src/stm32l4xx_hal.c ****     else
 281:Drivers/STM32L4xx_HAL_Driver/Src/stm32l4xx_hal.c ****     {
 282:Drivers/STM32L4xx_HAL_Driver/Src/stm32l4xx_hal.c ****       status = HAL_ERROR;
 283:Drivers/STM32L4xx_HAL_Driver/Src/stm32l4xx_hal.c ****     }
 284:Drivers/STM32L4xx_HAL_Driver/Src/stm32l4xx_hal.c ****   }
 285:Drivers/STM32L4xx_HAL_Driver/Src/stm32l4xx_hal.c ****   else
 286:Drivers/STM32L4xx_HAL_Driver/Src/stm32l4xx_hal.c ****   {
 287:Drivers/STM32L4xx_HAL_Driver/Src/stm32l4xx_hal.c ****     status = HAL_ERROR;
 143              		.loc 1 287 12 view .LVU27
 144 0006 0120     		movs	r0, #1
 145              	.LVL2:
 288:Drivers/STM32L4xx_HAL_Driver/Src/stm32l4xx_hal.c ****   }
 289:Drivers/STM32L4xx_HAL_Driver/Src/stm32l4xx_hal.c **** 
 290:Drivers/STM32L4xx_HAL_Driver/Src/stm32l4xx_hal.c ****   /* Return function status */
 291:Drivers/STM32L4xx_HAL_Driver/Src/stm32l4xx_hal.c ****   return status;
 146              		.loc 1 291 3 is_stmt 1 view .LVU28
 292:Drivers/STM32L4xx_HAL_Driver/Src/stm32l4xx_hal.c **** }
 147              		.loc 1 292 1 is_stmt 0 view .LVU29
 148 0008 7047     		bx	lr
 149              	.LVL3:
 150              	.L16:
 260:Drivers/STM32L4xx_HAL_Driver/Src/stm32l4xx_hal.c ****   HAL_StatusTypeDef  status = HAL_OK;
 151              		.loc 1 260 1 view .LVU30
 152 000a 10B5     		push	{r4, lr}
ARM GAS  C:\Users\union\AppData\Local\Temp\ccdvyd3C.s 			page 9


 153              	.LCFI1:
 154              		.cfi_def_cfa_offset 8
 155              		.cfi_offset 4, -8
 156              		.cfi_offset 14, -4
 157 000c 0446     		mov	r4, r0
 267:Drivers/STM32L4xx_HAL_Driver/Src/stm32l4xx_hal.c ****     {
 158              		.loc 1 267 5 is_stmt 1 view .LVU31
 267:Drivers/STM32L4xx_HAL_Driver/Src/stm32l4xx_hal.c ****     {
 159              		.loc 1 267 53 is_stmt 0 view .LVU32
 160 000e 4FF47A70 		mov	r0, #1000
 161              	.LVL4:
 267:Drivers/STM32L4xx_HAL_Driver/Src/stm32l4xx_hal.c ****     {
 162              		.loc 1 267 53 view .LVU33
 163 0012 B0FBF3F3 		udiv	r3, r0, r3
 267:Drivers/STM32L4xx_HAL_Driver/Src/stm32l4xx_hal.c ****     {
 164              		.loc 1 267 9 view .LVU34
 165 0016 0C4A     		ldr	r2, .L18+4
 166 0018 1068     		ldr	r0, [r2]
 167 001a B0FBF3F0 		udiv	r0, r0, r3
 168 001e FFF7FEFF 		bl	HAL_SYSTICK_Config
 169              	.LVL5:
 267:Drivers/STM32L4xx_HAL_Driver/Src/stm32l4xx_hal.c ****     {
 170              		.loc 1 267 8 view .LVU35
 171 0022 68B9     		cbnz	r0, .L10
 270:Drivers/STM32L4xx_HAL_Driver/Src/stm32l4xx_hal.c ****       {
 172              		.loc 1 270 7 is_stmt 1 view .LVU36
 270:Drivers/STM32L4xx_HAL_Driver/Src/stm32l4xx_hal.c ****       {
 173              		.loc 1 270 10 is_stmt 0 view .LVU37
 174 0024 0F2C     		cmp	r4, #15
 175 0026 01D9     		bls	.L17
 277:Drivers/STM32L4xx_HAL_Driver/Src/stm32l4xx_hal.c ****       }
 176              		.loc 1 277 16 view .LVU38
 177 0028 0120     		movs	r0, #1
 178 002a 0AE0     		b	.L8
 179              	.L17:
 272:Drivers/STM32L4xx_HAL_Driver/Src/stm32l4xx_hal.c ****         uwTickPrio = TickPriority;
 180              		.loc 1 272 9 is_stmt 1 view .LVU39
 181 002c 0022     		movs	r2, #0
 182 002e 2146     		mov	r1, r4
 183 0030 4FF0FF30 		mov	r0, #-1
 184 0034 FFF7FEFF 		bl	HAL_NVIC_SetPriority
 185              	.LVL6:
 273:Drivers/STM32L4xx_HAL_Driver/Src/stm32l4xx_hal.c ****       }
 186              		.loc 1 273 9 view .LVU40
 273:Drivers/STM32L4xx_HAL_Driver/Src/stm32l4xx_hal.c ****       }
 187              		.loc 1 273 20 is_stmt 0 view .LVU41
 188 0038 044B     		ldr	r3, .L18+8
 189 003a 1C60     		str	r4, [r3]
 261:Drivers/STM32L4xx_HAL_Driver/Src/stm32l4xx_hal.c **** 
 190              		.loc 1 261 22 view .LVU42
 191 003c 0020     		movs	r0, #0
 192 003e 00E0     		b	.L8
 193              	.L10:
 282:Drivers/STM32L4xx_HAL_Driver/Src/stm32l4xx_hal.c ****     }
 194              		.loc 1 282 14 view .LVU43
 195 0040 0120     		movs	r0, #1
 196              	.L8:
ARM GAS  C:\Users\union\AppData\Local\Temp\ccdvyd3C.s 			page 10


 197              	.LVL7:
 291:Drivers/STM32L4xx_HAL_Driver/Src/stm32l4xx_hal.c **** }
 198              		.loc 1 291 3 is_stmt 1 view .LVU44
 199              		.loc 1 292 1 is_stmt 0 view .LVU45
 200 0042 10BD     		pop	{r4, pc}
 201              	.LVL8:
 202              	.L19:
 203              		.loc 1 292 1 view .LVU46
 204              		.align	2
 205              	.L18:
 206 0044 00000000 		.word	.LANCHOR0
 207 0048 00000000 		.word	SystemCoreClock
 208 004c 00000000 		.word	.LANCHOR1
 209              		.cfi_endproc
 210              	.LFE136:
 212              		.section	.text.HAL_Init,"ax",%progbits
 213              		.align	1
 214              		.global	HAL_Init
 215              		.syntax unified
 216              		.thumb
 217              		.thumb_func
 218              		.fpu fpv4-sp-d16
 220              	HAL_Init:
 221              	.LFB132:
 153:Drivers/STM32L4xx_HAL_Driver/Src/stm32l4xx_hal.c ****   HAL_StatusTypeDef  status = HAL_OK;
 222              		.loc 1 153 1 is_stmt 1 view -0
 223              		.cfi_startproc
 224              		@ args = 0, pretend = 0, frame = 0
 225              		@ frame_needed = 0, uses_anonymous_args = 0
 226 0000 10B5     		push	{r4, lr}
 227              	.LCFI2:
 228              		.cfi_def_cfa_offset 8
 229              		.cfi_offset 4, -8
 230              		.cfi_offset 14, -4
 154:Drivers/STM32L4xx_HAL_Driver/Src/stm32l4xx_hal.c **** 
 231              		.loc 1 154 3 view .LVU48
 232              	.LVL9:
 170:Drivers/STM32L4xx_HAL_Driver/Src/stm32l4xx_hal.c **** #endif /* PREFETCH_ENABLE */
 233              		.loc 1 170 3 view .LVU49
 234 0002 094A     		ldr	r2, .L25
 235 0004 1368     		ldr	r3, [r2]
 236 0006 43F48073 		orr	r3, r3, #256
 237 000a 1360     		str	r3, [r2]
 174:Drivers/STM32L4xx_HAL_Driver/Src/stm32l4xx_hal.c **** 
 238              		.loc 1 174 3 view .LVU50
 239 000c 0320     		movs	r0, #3
 240 000e FFF7FEFF 		bl	HAL_NVIC_SetPriorityGrouping
 241              	.LVL10:
 177:Drivers/STM32L4xx_HAL_Driver/Src/stm32l4xx_hal.c ****   {
 242              		.loc 1 177 3 view .LVU51
 177:Drivers/STM32L4xx_HAL_Driver/Src/stm32l4xx_hal.c ****   {
 243              		.loc 1 177 7 is_stmt 0 view .LVU52
 244 0012 0F20     		movs	r0, #15
 245 0014 FFF7FEFF 		bl	HAL_InitTick
 246              	.LVL11:
 177:Drivers/STM32L4xx_HAL_Driver/Src/stm32l4xx_hal.c ****   {
 247              		.loc 1 177 6 view .LVU53
ARM GAS  C:\Users\union\AppData\Local\Temp\ccdvyd3C.s 			page 11


 248 0018 10B1     		cbz	r0, .L24
 179:Drivers/STM32L4xx_HAL_Driver/Src/stm32l4xx_hal.c ****   }
 249              		.loc 1 179 12 view .LVU54
 250 001a 0124     		movs	r4, #1
 251              	.L21:
 252              	.LVL12:
 188:Drivers/STM32L4xx_HAL_Driver/Src/stm32l4xx_hal.c **** }
 253              		.loc 1 188 3 is_stmt 1 view .LVU55
 189:Drivers/STM32L4xx_HAL_Driver/Src/stm32l4xx_hal.c **** 
 254              		.loc 1 189 1 is_stmt 0 view .LVU56
 255 001c 2046     		mov	r0, r4
 256 001e 10BD     		pop	{r4, pc}
 257              	.LVL13:
 258              	.L24:
 189:Drivers/STM32L4xx_HAL_Driver/Src/stm32l4xx_hal.c **** 
 259              		.loc 1 189 1 view .LVU57
 260 0020 0446     		mov	r4, r0
 184:Drivers/STM32L4xx_HAL_Driver/Src/stm32l4xx_hal.c ****   }
 261              		.loc 1 184 5 is_stmt 1 view .LVU58
 262 0022 FFF7FEFF 		bl	HAL_MspInit
 263              	.LVL14:
 264 0026 F9E7     		b	.L21
 265              	.L26:
 266              		.align	2
 267              	.L25:
 268 0028 00200240 		.word	1073881088
 269              		.cfi_endproc
 270              	.LFE132:
 272              		.section	.text.HAL_IncTick,"ax",%progbits
 273              		.align	1
 274              		.weak	HAL_IncTick
 275              		.syntax unified
 276              		.thumb
 277              		.thumb_func
 278              		.fpu fpv4-sp-d16
 280              	HAL_IncTick:
 281              	.LFB137:
 293:Drivers/STM32L4xx_HAL_Driver/Src/stm32l4xx_hal.c **** 
 294:Drivers/STM32L4xx_HAL_Driver/Src/stm32l4xx_hal.c **** /**
 295:Drivers/STM32L4xx_HAL_Driver/Src/stm32l4xx_hal.c ****   * @}
 296:Drivers/STM32L4xx_HAL_Driver/Src/stm32l4xx_hal.c ****   */
 297:Drivers/STM32L4xx_HAL_Driver/Src/stm32l4xx_hal.c **** 
 298:Drivers/STM32L4xx_HAL_Driver/Src/stm32l4xx_hal.c **** /** @defgroup HAL_Exported_Functions_Group2 HAL Control functions
 299:Drivers/STM32L4xx_HAL_Driver/Src/stm32l4xx_hal.c ****  *  @brief    HAL Control functions
 300:Drivers/STM32L4xx_HAL_Driver/Src/stm32l4xx_hal.c ****  *
 301:Drivers/STM32L4xx_HAL_Driver/Src/stm32l4xx_hal.c **** @verbatim
 302:Drivers/STM32L4xx_HAL_Driver/Src/stm32l4xx_hal.c ****  ===============================================================================
 303:Drivers/STM32L4xx_HAL_Driver/Src/stm32l4xx_hal.c ****                       ##### HAL Control functions #####
 304:Drivers/STM32L4xx_HAL_Driver/Src/stm32l4xx_hal.c ****  ===============================================================================
 305:Drivers/STM32L4xx_HAL_Driver/Src/stm32l4xx_hal.c ****     [..]  This section provides functions allowing to:
 306:Drivers/STM32L4xx_HAL_Driver/Src/stm32l4xx_hal.c ****       (+) Provide a tick value in millisecond
 307:Drivers/STM32L4xx_HAL_Driver/Src/stm32l4xx_hal.c ****       (+) Provide a blocking delay in millisecond
 308:Drivers/STM32L4xx_HAL_Driver/Src/stm32l4xx_hal.c ****       (+) Suspend the time base source interrupt
 309:Drivers/STM32L4xx_HAL_Driver/Src/stm32l4xx_hal.c ****       (+) Resume the time base source interrupt
 310:Drivers/STM32L4xx_HAL_Driver/Src/stm32l4xx_hal.c ****       (+) Get the HAL API driver version
 311:Drivers/STM32L4xx_HAL_Driver/Src/stm32l4xx_hal.c ****       (+) Get the device identifier
 312:Drivers/STM32L4xx_HAL_Driver/Src/stm32l4xx_hal.c ****       (+) Get the device revision identifier
ARM GAS  C:\Users\union\AppData\Local\Temp\ccdvyd3C.s 			page 12


 313:Drivers/STM32L4xx_HAL_Driver/Src/stm32l4xx_hal.c **** 
 314:Drivers/STM32L4xx_HAL_Driver/Src/stm32l4xx_hal.c **** @endverbatim
 315:Drivers/STM32L4xx_HAL_Driver/Src/stm32l4xx_hal.c ****   * @{
 316:Drivers/STM32L4xx_HAL_Driver/Src/stm32l4xx_hal.c ****   */
 317:Drivers/STM32L4xx_HAL_Driver/Src/stm32l4xx_hal.c **** 
 318:Drivers/STM32L4xx_HAL_Driver/Src/stm32l4xx_hal.c **** /**
 319:Drivers/STM32L4xx_HAL_Driver/Src/stm32l4xx_hal.c ****   * @brief This function is called to increment a global variable "uwTick"
 320:Drivers/STM32L4xx_HAL_Driver/Src/stm32l4xx_hal.c ****   *        used as application time base.
 321:Drivers/STM32L4xx_HAL_Driver/Src/stm32l4xx_hal.c ****   * @note In the default implementation, this variable is incremented each 1ms
 322:Drivers/STM32L4xx_HAL_Driver/Src/stm32l4xx_hal.c ****   *       in SysTick ISR.
 323:Drivers/STM32L4xx_HAL_Driver/Src/stm32l4xx_hal.c ****  * @note This function is declared as __weak to be overwritten in case of other
 324:Drivers/STM32L4xx_HAL_Driver/Src/stm32l4xx_hal.c ****   *      implementations in user file.
 325:Drivers/STM32L4xx_HAL_Driver/Src/stm32l4xx_hal.c ****   * @retval None
 326:Drivers/STM32L4xx_HAL_Driver/Src/stm32l4xx_hal.c ****   */
 327:Drivers/STM32L4xx_HAL_Driver/Src/stm32l4xx_hal.c **** __weak void HAL_IncTick(void)
 328:Drivers/STM32L4xx_HAL_Driver/Src/stm32l4xx_hal.c **** {
 282              		.loc 1 328 1 view -0
 283              		.cfi_startproc
 284              		@ args = 0, pretend = 0, frame = 0
 285              		@ frame_needed = 0, uses_anonymous_args = 0
 286              		@ link register save eliminated.
 329:Drivers/STM32L4xx_HAL_Driver/Src/stm32l4xx_hal.c ****   uwTick += (uint32_t)uwTickFreq;
 287              		.loc 1 329 3 view .LVU60
 288              		.loc 1 329 13 is_stmt 0 view .LVU61
 289 0000 034B     		ldr	r3, .L28
 290 0002 1B78     		ldrb	r3, [r3]	@ zero_extendqisi2
 291              		.loc 1 329 10 view .LVU62
 292 0004 034A     		ldr	r2, .L28+4
 293 0006 1168     		ldr	r1, [r2]
 294 0008 0B44     		add	r3, r3, r1
 295 000a 1360     		str	r3, [r2]
 330:Drivers/STM32L4xx_HAL_Driver/Src/stm32l4xx_hal.c **** }
 296              		.loc 1 330 1 view .LVU63
 297 000c 7047     		bx	lr
 298              	.L29:
 299 000e 00BF     		.align	2
 300              	.L28:
 301 0010 00000000 		.word	.LANCHOR0
 302 0014 00000000 		.word	uwTick
 303              		.cfi_endproc
 304              	.LFE137:
 306              		.section	.text.HAL_GetTick,"ax",%progbits
 307              		.align	1
 308              		.weak	HAL_GetTick
 309              		.syntax unified
 310              		.thumb
 311              		.thumb_func
 312              		.fpu fpv4-sp-d16
 314              	HAL_GetTick:
 315              	.LFB138:
 331:Drivers/STM32L4xx_HAL_Driver/Src/stm32l4xx_hal.c **** 
 332:Drivers/STM32L4xx_HAL_Driver/Src/stm32l4xx_hal.c **** /**
 333:Drivers/STM32L4xx_HAL_Driver/Src/stm32l4xx_hal.c ****   * @brief Provide a tick value in millisecond.
 334:Drivers/STM32L4xx_HAL_Driver/Src/stm32l4xx_hal.c ****   * @note This function is declared as __weak to be overwritten in case of other
 335:Drivers/STM32L4xx_HAL_Driver/Src/stm32l4xx_hal.c ****   *       implementations in user file.
 336:Drivers/STM32L4xx_HAL_Driver/Src/stm32l4xx_hal.c ****   * @retval tick value
 337:Drivers/STM32L4xx_HAL_Driver/Src/stm32l4xx_hal.c ****   */
ARM GAS  C:\Users\union\AppData\Local\Temp\ccdvyd3C.s 			page 13


 338:Drivers/STM32L4xx_HAL_Driver/Src/stm32l4xx_hal.c **** __weak uint32_t HAL_GetTick(void)
 339:Drivers/STM32L4xx_HAL_Driver/Src/stm32l4xx_hal.c **** {
 316              		.loc 1 339 1 is_stmt 1 view -0
 317              		.cfi_startproc
 318              		@ args = 0, pretend = 0, frame = 0
 319              		@ frame_needed = 0, uses_anonymous_args = 0
 320              		@ link register save eliminated.
 340:Drivers/STM32L4xx_HAL_Driver/Src/stm32l4xx_hal.c ****   return uwTick;
 321              		.loc 1 340 3 view .LVU65
 322              		.loc 1 340 10 is_stmt 0 view .LVU66
 323 0000 014B     		ldr	r3, .L31
 324 0002 1868     		ldr	r0, [r3]
 341:Drivers/STM32L4xx_HAL_Driver/Src/stm32l4xx_hal.c **** }
 325              		.loc 1 341 1 view .LVU67
 326 0004 7047     		bx	lr
 327              	.L32:
 328 0006 00BF     		.align	2
 329              	.L31:
 330 0008 00000000 		.word	uwTick
 331              		.cfi_endproc
 332              	.LFE138:
 334              		.section	.text.HAL_GetTickPrio,"ax",%progbits
 335              		.align	1
 336              		.global	HAL_GetTickPrio
 337              		.syntax unified
 338              		.thumb
 339              		.thumb_func
 340              		.fpu fpv4-sp-d16
 342              	HAL_GetTickPrio:
 343              	.LFB139:
 342:Drivers/STM32L4xx_HAL_Driver/Src/stm32l4xx_hal.c **** 
 343:Drivers/STM32L4xx_HAL_Driver/Src/stm32l4xx_hal.c **** /**
 344:Drivers/STM32L4xx_HAL_Driver/Src/stm32l4xx_hal.c ****   * @brief This function returns a tick priority.
 345:Drivers/STM32L4xx_HAL_Driver/Src/stm32l4xx_hal.c ****   * @retval tick priority
 346:Drivers/STM32L4xx_HAL_Driver/Src/stm32l4xx_hal.c ****   */
 347:Drivers/STM32L4xx_HAL_Driver/Src/stm32l4xx_hal.c **** uint32_t HAL_GetTickPrio(void)
 348:Drivers/STM32L4xx_HAL_Driver/Src/stm32l4xx_hal.c **** {
 344              		.loc 1 348 1 is_stmt 1 view -0
 345              		.cfi_startproc
 346              		@ args = 0, pretend = 0, frame = 0
 347              		@ frame_needed = 0, uses_anonymous_args = 0
 348              		@ link register save eliminated.
 349:Drivers/STM32L4xx_HAL_Driver/Src/stm32l4xx_hal.c ****   return uwTickPrio;
 349              		.loc 1 349 3 view .LVU69
 350:Drivers/STM32L4xx_HAL_Driver/Src/stm32l4xx_hal.c **** }
 350              		.loc 1 350 1 is_stmt 0 view .LVU70
 351 0000 014B     		ldr	r3, .L34
 352 0002 1868     		ldr	r0, [r3]
 353 0004 7047     		bx	lr
 354              	.L35:
 355 0006 00BF     		.align	2
 356              	.L34:
 357 0008 00000000 		.word	.LANCHOR1
 358              		.cfi_endproc
 359              	.LFE139:
 361              		.section	.text.HAL_SetTickFreq,"ax",%progbits
 362              		.align	1
ARM GAS  C:\Users\union\AppData\Local\Temp\ccdvyd3C.s 			page 14


 363              		.global	HAL_SetTickFreq
 364              		.syntax unified
 365              		.thumb
 366              		.thumb_func
 367              		.fpu fpv4-sp-d16
 369              	HAL_SetTickFreq:
 370              	.LVL15:
 371              	.LFB140:
 351:Drivers/STM32L4xx_HAL_Driver/Src/stm32l4xx_hal.c **** 
 352:Drivers/STM32L4xx_HAL_Driver/Src/stm32l4xx_hal.c **** /**
 353:Drivers/STM32L4xx_HAL_Driver/Src/stm32l4xx_hal.c ****   * @brief Set new tick Freq.
 354:Drivers/STM32L4xx_HAL_Driver/Src/stm32l4xx_hal.c ****   * @param Freq tick frequency
 355:Drivers/STM32L4xx_HAL_Driver/Src/stm32l4xx_hal.c ****   * @retval HAL status
 356:Drivers/STM32L4xx_HAL_Driver/Src/stm32l4xx_hal.c ****   */
 357:Drivers/STM32L4xx_HAL_Driver/Src/stm32l4xx_hal.c **** HAL_StatusTypeDef HAL_SetTickFreq(HAL_TickFreqTypeDef Freq)
 358:Drivers/STM32L4xx_HAL_Driver/Src/stm32l4xx_hal.c **** {
 372              		.loc 1 358 1 is_stmt 1 view -0
 373              		.cfi_startproc
 374              		@ args = 0, pretend = 0, frame = 0
 375              		@ frame_needed = 0, uses_anonymous_args = 0
 376              		.loc 1 358 1 is_stmt 0 view .LVU72
 377 0000 10B5     		push	{r4, lr}
 378              	.LCFI3:
 379              		.cfi_def_cfa_offset 8
 380              		.cfi_offset 4, -8
 381              		.cfi_offset 14, -4
 359:Drivers/STM32L4xx_HAL_Driver/Src/stm32l4xx_hal.c ****   HAL_StatusTypeDef status  = HAL_OK;
 382              		.loc 1 359 3 is_stmt 1 view .LVU73
 383              	.LVL16:
 360:Drivers/STM32L4xx_HAL_Driver/Src/stm32l4xx_hal.c ****   HAL_TickFreqTypeDef prevTickFreq;
 384              		.loc 1 360 3 view .LVU74
 361:Drivers/STM32L4xx_HAL_Driver/Src/stm32l4xx_hal.c **** 
 362:Drivers/STM32L4xx_HAL_Driver/Src/stm32l4xx_hal.c ****   if (uwTickFreq != Freq)
 385              		.loc 1 362 3 view .LVU75
 386              		.loc 1 362 18 is_stmt 0 view .LVU76
 387 0002 094B     		ldr	r3, .L41
 388 0004 1C78     		ldrb	r4, [r3]	@ zero_extendqisi2
 389              		.loc 1 362 6 view .LVU77
 390 0006 8442     		cmp	r4, r0
 391 0008 02D1     		bne	.L40
 359:Drivers/STM32L4xx_HAL_Driver/Src/stm32l4xx_hal.c ****   HAL_TickFreqTypeDef prevTickFreq;
 392              		.loc 1 359 21 view .LVU78
 393 000a 0023     		movs	r3, #0
 394              	.LVL17:
 395              	.L37:
 363:Drivers/STM32L4xx_HAL_Driver/Src/stm32l4xx_hal.c ****   {
 364:Drivers/STM32L4xx_HAL_Driver/Src/stm32l4xx_hal.c ****     /* Back up uwTickFreq frequency */
 365:Drivers/STM32L4xx_HAL_Driver/Src/stm32l4xx_hal.c ****     prevTickFreq = uwTickFreq;
 366:Drivers/STM32L4xx_HAL_Driver/Src/stm32l4xx_hal.c **** 
 367:Drivers/STM32L4xx_HAL_Driver/Src/stm32l4xx_hal.c ****     /* Update uwTickFreq global variable used by HAL_InitTick() */
 368:Drivers/STM32L4xx_HAL_Driver/Src/stm32l4xx_hal.c ****     uwTickFreq = Freq;
 369:Drivers/STM32L4xx_HAL_Driver/Src/stm32l4xx_hal.c **** 
 370:Drivers/STM32L4xx_HAL_Driver/Src/stm32l4xx_hal.c ****     /* Apply the new tick Freq  */
 371:Drivers/STM32L4xx_HAL_Driver/Src/stm32l4xx_hal.c ****     status = HAL_InitTick(uwTickPrio);
 372:Drivers/STM32L4xx_HAL_Driver/Src/stm32l4xx_hal.c ****     if (status != HAL_OK)
 373:Drivers/STM32L4xx_HAL_Driver/Src/stm32l4xx_hal.c ****     {
 374:Drivers/STM32L4xx_HAL_Driver/Src/stm32l4xx_hal.c ****       /* Restore previous tick frequency */
ARM GAS  C:\Users\union\AppData\Local\Temp\ccdvyd3C.s 			page 15


 375:Drivers/STM32L4xx_HAL_Driver/Src/stm32l4xx_hal.c ****       uwTickFreq = prevTickFreq;
 376:Drivers/STM32L4xx_HAL_Driver/Src/stm32l4xx_hal.c ****     }
 377:Drivers/STM32L4xx_HAL_Driver/Src/stm32l4xx_hal.c ****   }
 378:Drivers/STM32L4xx_HAL_Driver/Src/stm32l4xx_hal.c **** 
 379:Drivers/STM32L4xx_HAL_Driver/Src/stm32l4xx_hal.c ****   return status;
 396              		.loc 1 379 3 is_stmt 1 view .LVU79
 380:Drivers/STM32L4xx_HAL_Driver/Src/stm32l4xx_hal.c **** }
 397              		.loc 1 380 1 is_stmt 0 view .LVU80
 398 000c 1846     		mov	r0, r3
 399 000e 10BD     		pop	{r4, pc}
 400              	.LVL18:
 401              	.L40:
 365:Drivers/STM32L4xx_HAL_Driver/Src/stm32l4xx_hal.c **** 
 402              		.loc 1 365 5 is_stmt 1 view .LVU81
 368:Drivers/STM32L4xx_HAL_Driver/Src/stm32l4xx_hal.c **** 
 403              		.loc 1 368 5 view .LVU82
 368:Drivers/STM32L4xx_HAL_Driver/Src/stm32l4xx_hal.c **** 
 404              		.loc 1 368 16 is_stmt 0 view .LVU83
 405 0010 1870     		strb	r0, [r3]
 371:Drivers/STM32L4xx_HAL_Driver/Src/stm32l4xx_hal.c ****     if (status != HAL_OK)
 406              		.loc 1 371 5 is_stmt 1 view .LVU84
 371:Drivers/STM32L4xx_HAL_Driver/Src/stm32l4xx_hal.c ****     if (status != HAL_OK)
 407              		.loc 1 371 14 is_stmt 0 view .LVU85
 408 0012 064B     		ldr	r3, .L41+4
 409 0014 1868     		ldr	r0, [r3]
 410              	.LVL19:
 371:Drivers/STM32L4xx_HAL_Driver/Src/stm32l4xx_hal.c ****     if (status != HAL_OK)
 411              		.loc 1 371 14 view .LVU86
 412 0016 FFF7FEFF 		bl	HAL_InitTick
 413              	.LVL20:
 372:Drivers/STM32L4xx_HAL_Driver/Src/stm32l4xx_hal.c ****     {
 414              		.loc 1 372 5 is_stmt 1 view .LVU87
 372:Drivers/STM32L4xx_HAL_Driver/Src/stm32l4xx_hal.c ****     {
 415              		.loc 1 372 8 is_stmt 0 view .LVU88
 416 001a 0346     		mov	r3, r0
 417 001c 0028     		cmp	r0, #0
 418 001e F5D0     		beq	.L37
 375:Drivers/STM32L4xx_HAL_Driver/Src/stm32l4xx_hal.c ****     }
 419              		.loc 1 375 7 is_stmt 1 view .LVU89
 375:Drivers/STM32L4xx_HAL_Driver/Src/stm32l4xx_hal.c ****     }
 420              		.loc 1 375 18 is_stmt 0 view .LVU90
 421 0020 014A     		ldr	r2, .L41
 422 0022 1470     		strb	r4, [r2]
 423 0024 F2E7     		b	.L37
 424              	.L42:
 425 0026 00BF     		.align	2
 426              	.L41:
 427 0028 00000000 		.word	.LANCHOR0
 428 002c 00000000 		.word	.LANCHOR1
 429              		.cfi_endproc
 430              	.LFE140:
 432              		.section	.text.HAL_GetTickFreq,"ax",%progbits
 433              		.align	1
 434              		.global	HAL_GetTickFreq
 435              		.syntax unified
 436              		.thumb
 437              		.thumb_func
ARM GAS  C:\Users\union\AppData\Local\Temp\ccdvyd3C.s 			page 16


 438              		.fpu fpv4-sp-d16
 440              	HAL_GetTickFreq:
 441              	.LFB141:
 381:Drivers/STM32L4xx_HAL_Driver/Src/stm32l4xx_hal.c **** 
 382:Drivers/STM32L4xx_HAL_Driver/Src/stm32l4xx_hal.c **** /**
 383:Drivers/STM32L4xx_HAL_Driver/Src/stm32l4xx_hal.c ****   * @brief Return tick frequency.
 384:Drivers/STM32L4xx_HAL_Driver/Src/stm32l4xx_hal.c ****   * @retval tick period in Hz
 385:Drivers/STM32L4xx_HAL_Driver/Src/stm32l4xx_hal.c ****   */
 386:Drivers/STM32L4xx_HAL_Driver/Src/stm32l4xx_hal.c **** HAL_TickFreqTypeDef HAL_GetTickFreq(void)
 387:Drivers/STM32L4xx_HAL_Driver/Src/stm32l4xx_hal.c **** {
 442              		.loc 1 387 1 is_stmt 1 view -0
 443              		.cfi_startproc
 444              		@ args = 0, pretend = 0, frame = 0
 445              		@ frame_needed = 0, uses_anonymous_args = 0
 446              		@ link register save eliminated.
 388:Drivers/STM32L4xx_HAL_Driver/Src/stm32l4xx_hal.c ****   return uwTickFreq;
 447              		.loc 1 388 3 view .LVU92
 389:Drivers/STM32L4xx_HAL_Driver/Src/stm32l4xx_hal.c **** }
 448              		.loc 1 389 1 is_stmt 0 view .LVU93
 449 0000 014B     		ldr	r3, .L44
 450 0002 1878     		ldrb	r0, [r3]	@ zero_extendqisi2
 451 0004 7047     		bx	lr
 452              	.L45:
 453 0006 00BF     		.align	2
 454              	.L44:
 455 0008 00000000 		.word	.LANCHOR0
 456              		.cfi_endproc
 457              	.LFE141:
 459              		.section	.text.HAL_Delay,"ax",%progbits
 460              		.align	1
 461              		.weak	HAL_Delay
 462              		.syntax unified
 463              		.thumb
 464              		.thumb_func
 465              		.fpu fpv4-sp-d16
 467              	HAL_Delay:
 468              	.LVL21:
 469              	.LFB142:
 390:Drivers/STM32L4xx_HAL_Driver/Src/stm32l4xx_hal.c **** 
 391:Drivers/STM32L4xx_HAL_Driver/Src/stm32l4xx_hal.c **** /**
 392:Drivers/STM32L4xx_HAL_Driver/Src/stm32l4xx_hal.c ****   * @brief This function provides minimum delay (in milliseconds) based
 393:Drivers/STM32L4xx_HAL_Driver/Src/stm32l4xx_hal.c ****   *        on variable incremented.
 394:Drivers/STM32L4xx_HAL_Driver/Src/stm32l4xx_hal.c ****   * @note In the default implementation , SysTick timer is the source of time base.
 395:Drivers/STM32L4xx_HAL_Driver/Src/stm32l4xx_hal.c ****   *       It is used to generate interrupts at regular time intervals where uwTick
 396:Drivers/STM32L4xx_HAL_Driver/Src/stm32l4xx_hal.c ****   *       is incremented.
 397:Drivers/STM32L4xx_HAL_Driver/Src/stm32l4xx_hal.c ****   * @note This function is declared as __weak to be overwritten in case of other
 398:Drivers/STM32L4xx_HAL_Driver/Src/stm32l4xx_hal.c ****   *       implementations in user file.
 399:Drivers/STM32L4xx_HAL_Driver/Src/stm32l4xx_hal.c ****   * @param Delay  specifies the delay time length, in milliseconds.
 400:Drivers/STM32L4xx_HAL_Driver/Src/stm32l4xx_hal.c ****   * @retval None
 401:Drivers/STM32L4xx_HAL_Driver/Src/stm32l4xx_hal.c ****   */
 402:Drivers/STM32L4xx_HAL_Driver/Src/stm32l4xx_hal.c **** __weak void HAL_Delay(uint32_t Delay)
 403:Drivers/STM32L4xx_HAL_Driver/Src/stm32l4xx_hal.c **** {
 470              		.loc 1 403 1 is_stmt 1 view -0
 471              		.cfi_startproc
 472              		@ args = 0, pretend = 0, frame = 0
 473              		@ frame_needed = 0, uses_anonymous_args = 0
 474              		.loc 1 403 1 is_stmt 0 view .LVU95
ARM GAS  C:\Users\union\AppData\Local\Temp\ccdvyd3C.s 			page 17


 475 0000 38B5     		push	{r3, r4, r5, lr}
 476              	.LCFI4:
 477              		.cfi_def_cfa_offset 16
 478              		.cfi_offset 3, -16
 479              		.cfi_offset 4, -12
 480              		.cfi_offset 5, -8
 481              		.cfi_offset 14, -4
 482 0002 0446     		mov	r4, r0
 404:Drivers/STM32L4xx_HAL_Driver/Src/stm32l4xx_hal.c ****   uint32_t tickstart = HAL_GetTick();
 483              		.loc 1 404 3 is_stmt 1 view .LVU96
 484              		.loc 1 404 24 is_stmt 0 view .LVU97
 485 0004 FFF7FEFF 		bl	HAL_GetTick
 486              	.LVL22:
 487              		.loc 1 404 24 view .LVU98
 488 0008 0546     		mov	r5, r0
 489              	.LVL23:
 405:Drivers/STM32L4xx_HAL_Driver/Src/stm32l4xx_hal.c ****   uint32_t wait = Delay;
 490              		.loc 1 405 3 is_stmt 1 view .LVU99
 406:Drivers/STM32L4xx_HAL_Driver/Src/stm32l4xx_hal.c **** 
 407:Drivers/STM32L4xx_HAL_Driver/Src/stm32l4xx_hal.c ****   /* Add a period to guaranty minimum wait */
 408:Drivers/STM32L4xx_HAL_Driver/Src/stm32l4xx_hal.c ****   if (wait < HAL_MAX_DELAY)
 491              		.loc 1 408 3 view .LVU100
 492              		.loc 1 408 6 is_stmt 0 view .LVU101
 493 000a B4F1FF3F 		cmp	r4, #-1
 494 000e 02D0     		beq	.L48
 409:Drivers/STM32L4xx_HAL_Driver/Src/stm32l4xx_hal.c ****   {
 410:Drivers/STM32L4xx_HAL_Driver/Src/stm32l4xx_hal.c ****     wait += (uint32_t)uwTickFreq;
 495              		.loc 1 410 5 is_stmt 1 view .LVU102
 496              		.loc 1 410 13 is_stmt 0 view .LVU103
 497 0010 044B     		ldr	r3, .L50
 498 0012 1B78     		ldrb	r3, [r3]	@ zero_extendqisi2
 499              		.loc 1 410 10 view .LVU104
 500 0014 1C44     		add	r4, r4, r3
 501              	.LVL24:
 502              	.L48:
 411:Drivers/STM32L4xx_HAL_Driver/Src/stm32l4xx_hal.c ****   }
 412:Drivers/STM32L4xx_HAL_Driver/Src/stm32l4xx_hal.c **** 
 413:Drivers/STM32L4xx_HAL_Driver/Src/stm32l4xx_hal.c ****   while ((HAL_GetTick() - tickstart) < wait)
 414:Drivers/STM32L4xx_HAL_Driver/Src/stm32l4xx_hal.c ****   {
 415:Drivers/STM32L4xx_HAL_Driver/Src/stm32l4xx_hal.c ****   }
 503              		.loc 1 415 3 is_stmt 1 discriminator 1 view .LVU105
 413:Drivers/STM32L4xx_HAL_Driver/Src/stm32l4xx_hal.c ****   {
 504              		.loc 1 413 11 is_stmt 0 discriminator 1 view .LVU106
 505 0016 FFF7FEFF 		bl	HAL_GetTick
 506              	.LVL25:
 413:Drivers/STM32L4xx_HAL_Driver/Src/stm32l4xx_hal.c ****   {
 507              		.loc 1 413 25 discriminator 1 view .LVU107
 508 001a 401B     		subs	r0, r0, r5
 413:Drivers/STM32L4xx_HAL_Driver/Src/stm32l4xx_hal.c ****   {
 509              		.loc 1 413 9 discriminator 1 view .LVU108
 510 001c A042     		cmp	r0, r4
 511 001e FAD3     		bcc	.L48
 416:Drivers/STM32L4xx_HAL_Driver/Src/stm32l4xx_hal.c **** }
 512              		.loc 1 416 1 view .LVU109
 513 0020 38BD     		pop	{r3, r4, r5, pc}
 514              	.LVL26:
 515              	.L51:
ARM GAS  C:\Users\union\AppData\Local\Temp\ccdvyd3C.s 			page 18


 516              		.loc 1 416 1 view .LVU110
 517 0022 00BF     		.align	2
 518              	.L50:
 519 0024 00000000 		.word	.LANCHOR0
 520              		.cfi_endproc
 521              	.LFE142:
 523              		.section	.text.HAL_SuspendTick,"ax",%progbits
 524              		.align	1
 525              		.weak	HAL_SuspendTick
 526              		.syntax unified
 527              		.thumb
 528              		.thumb_func
 529              		.fpu fpv4-sp-d16
 531              	HAL_SuspendTick:
 532              	.LFB143:
 417:Drivers/STM32L4xx_HAL_Driver/Src/stm32l4xx_hal.c **** 
 418:Drivers/STM32L4xx_HAL_Driver/Src/stm32l4xx_hal.c **** /**
 419:Drivers/STM32L4xx_HAL_Driver/Src/stm32l4xx_hal.c ****   * @brief Suspend Tick increment.
 420:Drivers/STM32L4xx_HAL_Driver/Src/stm32l4xx_hal.c ****   * @note In the default implementation , SysTick timer is the source of time base. It is
 421:Drivers/STM32L4xx_HAL_Driver/Src/stm32l4xx_hal.c ****   *       used to generate interrupts at regular time intervals. Once HAL_SuspendTick()
 422:Drivers/STM32L4xx_HAL_Driver/Src/stm32l4xx_hal.c ****   *       is called, the SysTick interrupt will be disabled and so Tick increment
 423:Drivers/STM32L4xx_HAL_Driver/Src/stm32l4xx_hal.c ****   *       is suspended.
 424:Drivers/STM32L4xx_HAL_Driver/Src/stm32l4xx_hal.c ****   * @note This function is declared as __weak to be overwritten in case of other
 425:Drivers/STM32L4xx_HAL_Driver/Src/stm32l4xx_hal.c ****   *       implementations in user file.
 426:Drivers/STM32L4xx_HAL_Driver/Src/stm32l4xx_hal.c ****   * @retval None
 427:Drivers/STM32L4xx_HAL_Driver/Src/stm32l4xx_hal.c ****   */
 428:Drivers/STM32L4xx_HAL_Driver/Src/stm32l4xx_hal.c **** __weak void HAL_SuspendTick(void)
 429:Drivers/STM32L4xx_HAL_Driver/Src/stm32l4xx_hal.c **** {
 533              		.loc 1 429 1 is_stmt 1 view -0
 534              		.cfi_startproc
 535              		@ args = 0, pretend = 0, frame = 0
 536              		@ frame_needed = 0, uses_anonymous_args = 0
 537              		@ link register save eliminated.
 430:Drivers/STM32L4xx_HAL_Driver/Src/stm32l4xx_hal.c ****   /* Disable SysTick Interrupt */
 431:Drivers/STM32L4xx_HAL_Driver/Src/stm32l4xx_hal.c ****   SysTick->CTRL &= ~SysTick_CTRL_TICKINT_Msk;
 538              		.loc 1 431 3 view .LVU112
 539              		.loc 1 431 17 is_stmt 0 view .LVU113
 540 0000 024A     		ldr	r2, .L53
 541 0002 1368     		ldr	r3, [r2]
 542 0004 23F00203 		bic	r3, r3, #2
 543 0008 1360     		str	r3, [r2]
 432:Drivers/STM32L4xx_HAL_Driver/Src/stm32l4xx_hal.c **** }
 544              		.loc 1 432 1 view .LVU114
 545 000a 7047     		bx	lr
 546              	.L54:
 547              		.align	2
 548              	.L53:
 549 000c 10E000E0 		.word	-536813552
 550              		.cfi_endproc
 551              	.LFE143:
 553              		.section	.text.HAL_ResumeTick,"ax",%progbits
 554              		.align	1
 555              		.weak	HAL_ResumeTick
 556              		.syntax unified
 557              		.thumb
 558              		.thumb_func
 559              		.fpu fpv4-sp-d16
ARM GAS  C:\Users\union\AppData\Local\Temp\ccdvyd3C.s 			page 19


 561              	HAL_ResumeTick:
 562              	.LFB144:
 433:Drivers/STM32L4xx_HAL_Driver/Src/stm32l4xx_hal.c **** 
 434:Drivers/STM32L4xx_HAL_Driver/Src/stm32l4xx_hal.c **** /**
 435:Drivers/STM32L4xx_HAL_Driver/Src/stm32l4xx_hal.c ****   * @brief Resume Tick increment.
 436:Drivers/STM32L4xx_HAL_Driver/Src/stm32l4xx_hal.c ****   * @note In the default implementation , SysTick timer is the source of time base. It is
 437:Drivers/STM32L4xx_HAL_Driver/Src/stm32l4xx_hal.c ****   *       used to generate interrupts at regular time intervals. Once HAL_ResumeTick()
 438:Drivers/STM32L4xx_HAL_Driver/Src/stm32l4xx_hal.c ****   *       is called, the SysTick interrupt will be enabled and so Tick increment
 439:Drivers/STM32L4xx_HAL_Driver/Src/stm32l4xx_hal.c ****   *       is resumed.
 440:Drivers/STM32L4xx_HAL_Driver/Src/stm32l4xx_hal.c ****   * @note This function is declared as __weak to be overwritten in case of other
 441:Drivers/STM32L4xx_HAL_Driver/Src/stm32l4xx_hal.c ****   *       implementations in user file.
 442:Drivers/STM32L4xx_HAL_Driver/Src/stm32l4xx_hal.c ****   * @retval None
 443:Drivers/STM32L4xx_HAL_Driver/Src/stm32l4xx_hal.c ****   */
 444:Drivers/STM32L4xx_HAL_Driver/Src/stm32l4xx_hal.c **** __weak void HAL_ResumeTick(void)
 445:Drivers/STM32L4xx_HAL_Driver/Src/stm32l4xx_hal.c **** {
 563              		.loc 1 445 1 is_stmt 1 view -0
 564              		.cfi_startproc
 565              		@ args = 0, pretend = 0, frame = 0
 566              		@ frame_needed = 0, uses_anonymous_args = 0
 567              		@ link register save eliminated.
 446:Drivers/STM32L4xx_HAL_Driver/Src/stm32l4xx_hal.c ****   /* Enable SysTick Interrupt */
 447:Drivers/STM32L4xx_HAL_Driver/Src/stm32l4xx_hal.c ****   SysTick->CTRL  |= SysTick_CTRL_TICKINT_Msk;
 568              		.loc 1 447 3 view .LVU116
 569              		.loc 1 447 18 is_stmt 0 view .LVU117
 570 0000 024A     		ldr	r2, .L56
 571 0002 1368     		ldr	r3, [r2]
 572 0004 43F00203 		orr	r3, r3, #2
 573 0008 1360     		str	r3, [r2]
 448:Drivers/STM32L4xx_HAL_Driver/Src/stm32l4xx_hal.c **** }
 574              		.loc 1 448 1 view .LVU118
 575 000a 7047     		bx	lr
 576              	.L57:
 577              		.align	2
 578              	.L56:
 579 000c 10E000E0 		.word	-536813552
 580              		.cfi_endproc
 581              	.LFE144:
 583              		.section	.text.HAL_GetHalVersion,"ax",%progbits
 584              		.align	1
 585              		.global	HAL_GetHalVersion
 586              		.syntax unified
 587              		.thumb
 588              		.thumb_func
 589              		.fpu fpv4-sp-d16
 591              	HAL_GetHalVersion:
 592              	.LFB145:
 449:Drivers/STM32L4xx_HAL_Driver/Src/stm32l4xx_hal.c **** 
 450:Drivers/STM32L4xx_HAL_Driver/Src/stm32l4xx_hal.c **** /**
 451:Drivers/STM32L4xx_HAL_Driver/Src/stm32l4xx_hal.c ****   * @brief  Return the HAL revision.
 452:Drivers/STM32L4xx_HAL_Driver/Src/stm32l4xx_hal.c ****   * @retval version : 0xXYZR (8bits for each decimal, R for RC)
 453:Drivers/STM32L4xx_HAL_Driver/Src/stm32l4xx_hal.c ****   */
 454:Drivers/STM32L4xx_HAL_Driver/Src/stm32l4xx_hal.c **** uint32_t HAL_GetHalVersion(void)
 455:Drivers/STM32L4xx_HAL_Driver/Src/stm32l4xx_hal.c **** {
 593              		.loc 1 455 1 is_stmt 1 view -0
 594              		.cfi_startproc
 595              		@ args = 0, pretend = 0, frame = 0
 596              		@ frame_needed = 0, uses_anonymous_args = 0
ARM GAS  C:\Users\union\AppData\Local\Temp\ccdvyd3C.s 			page 20


 597              		@ link register save eliminated.
 456:Drivers/STM32L4xx_HAL_Driver/Src/stm32l4xx_hal.c ****   return STM32L4XX_HAL_VERSION;
 598              		.loc 1 456 3 view .LVU120
 457:Drivers/STM32L4xx_HAL_Driver/Src/stm32l4xx_hal.c **** }
 599              		.loc 1 457 1 is_stmt 0 view .LVU121
 600 0000 0048     		ldr	r0, .L59
 601 0002 7047     		bx	lr
 602              	.L60:
 603              		.align	2
 604              	.L59:
 605 0004 00020D01 		.word	17629696
 606              		.cfi_endproc
 607              	.LFE145:
 609              		.section	.text.HAL_GetREVID,"ax",%progbits
 610              		.align	1
 611              		.global	HAL_GetREVID
 612              		.syntax unified
 613              		.thumb
 614              		.thumb_func
 615              		.fpu fpv4-sp-d16
 617              	HAL_GetREVID:
 618              	.LFB146:
 458:Drivers/STM32L4xx_HAL_Driver/Src/stm32l4xx_hal.c **** 
 459:Drivers/STM32L4xx_HAL_Driver/Src/stm32l4xx_hal.c **** /**
 460:Drivers/STM32L4xx_HAL_Driver/Src/stm32l4xx_hal.c ****   * @brief  Return the device revision identifier.
 461:Drivers/STM32L4xx_HAL_Driver/Src/stm32l4xx_hal.c ****   * @retval Device revision identifier
 462:Drivers/STM32L4xx_HAL_Driver/Src/stm32l4xx_hal.c ****   */
 463:Drivers/STM32L4xx_HAL_Driver/Src/stm32l4xx_hal.c **** uint32_t HAL_GetREVID(void)
 464:Drivers/STM32L4xx_HAL_Driver/Src/stm32l4xx_hal.c **** {
 619              		.loc 1 464 1 is_stmt 1 view -0
 620              		.cfi_startproc
 621              		@ args = 0, pretend = 0, frame = 0
 622              		@ frame_needed = 0, uses_anonymous_args = 0
 623              		@ link register save eliminated.
 465:Drivers/STM32L4xx_HAL_Driver/Src/stm32l4xx_hal.c ****   return((DBGMCU->IDCODE & DBGMCU_IDCODE_REV_ID) >> 16);
 624              		.loc 1 465 3 view .LVU123
 625              		.loc 1 465 17 is_stmt 0 view .LVU124
 626 0000 014B     		ldr	r3, .L62
 627 0002 1868     		ldr	r0, [r3]
 466:Drivers/STM32L4xx_HAL_Driver/Src/stm32l4xx_hal.c **** }
 628              		.loc 1 466 1 view .LVU125
 629 0004 000C     		lsrs	r0, r0, #16
 630 0006 7047     		bx	lr
 631              	.L63:
 632              		.align	2
 633              	.L62:
 634 0008 002004E0 		.word	-536600576
 635              		.cfi_endproc
 636              	.LFE146:
 638              		.section	.text.HAL_GetDEVID,"ax",%progbits
 639              		.align	1
 640              		.global	HAL_GetDEVID
 641              		.syntax unified
 642              		.thumb
 643              		.thumb_func
 644              		.fpu fpv4-sp-d16
 646              	HAL_GetDEVID:
ARM GAS  C:\Users\union\AppData\Local\Temp\ccdvyd3C.s 			page 21


 647              	.LFB147:
 467:Drivers/STM32L4xx_HAL_Driver/Src/stm32l4xx_hal.c **** 
 468:Drivers/STM32L4xx_HAL_Driver/Src/stm32l4xx_hal.c **** /**
 469:Drivers/STM32L4xx_HAL_Driver/Src/stm32l4xx_hal.c ****   * @brief  Return the device identifier.
 470:Drivers/STM32L4xx_HAL_Driver/Src/stm32l4xx_hal.c ****   * @retval Device identifier
 471:Drivers/STM32L4xx_HAL_Driver/Src/stm32l4xx_hal.c ****   */
 472:Drivers/STM32L4xx_HAL_Driver/Src/stm32l4xx_hal.c **** uint32_t HAL_GetDEVID(void)
 473:Drivers/STM32L4xx_HAL_Driver/Src/stm32l4xx_hal.c **** {
 648              		.loc 1 473 1 is_stmt 1 view -0
 649              		.cfi_startproc
 650              		@ args = 0, pretend = 0, frame = 0
 651              		@ frame_needed = 0, uses_anonymous_args = 0
 652              		@ link register save eliminated.
 474:Drivers/STM32L4xx_HAL_Driver/Src/stm32l4xx_hal.c ****   return(DBGMCU->IDCODE & DBGMCU_IDCODE_DEV_ID);
 653              		.loc 1 474 3 view .LVU127
 654              		.loc 1 474 16 is_stmt 0 view .LVU128
 655 0000 024B     		ldr	r3, .L65
 656 0002 1868     		ldr	r0, [r3]
 475:Drivers/STM32L4xx_HAL_Driver/Src/stm32l4xx_hal.c **** }
 657              		.loc 1 475 1 view .LVU129
 658 0004 C0F30B00 		ubfx	r0, r0, #0, #12
 659 0008 7047     		bx	lr
 660              	.L66:
 661 000a 00BF     		.align	2
 662              	.L65:
 663 000c 002004E0 		.word	-536600576
 664              		.cfi_endproc
 665              	.LFE147:
 667              		.section	.text.HAL_GetUIDw0,"ax",%progbits
 668              		.align	1
 669              		.global	HAL_GetUIDw0
 670              		.syntax unified
 671              		.thumb
 672              		.thumb_func
 673              		.fpu fpv4-sp-d16
 675              	HAL_GetUIDw0:
 676              	.LFB148:
 476:Drivers/STM32L4xx_HAL_Driver/Src/stm32l4xx_hal.c **** 
 477:Drivers/STM32L4xx_HAL_Driver/Src/stm32l4xx_hal.c **** /**
 478:Drivers/STM32L4xx_HAL_Driver/Src/stm32l4xx_hal.c ****   * @brief  Return the first word of the unique device identifier (UID based on 96 bits)
 479:Drivers/STM32L4xx_HAL_Driver/Src/stm32l4xx_hal.c ****   * @retval Device identifier
 480:Drivers/STM32L4xx_HAL_Driver/Src/stm32l4xx_hal.c ****   */
 481:Drivers/STM32L4xx_HAL_Driver/Src/stm32l4xx_hal.c **** uint32_t HAL_GetUIDw0(void)
 482:Drivers/STM32L4xx_HAL_Driver/Src/stm32l4xx_hal.c **** {
 677              		.loc 1 482 1 is_stmt 1 view -0
 678              		.cfi_startproc
 679              		@ args = 0, pretend = 0, frame = 0
 680              		@ frame_needed = 0, uses_anonymous_args = 0
 681              		@ link register save eliminated.
 483:Drivers/STM32L4xx_HAL_Driver/Src/stm32l4xx_hal.c ****   return(READ_REG(*((uint32_t *)UID_BASE)));
 682              		.loc 1 483 3 view .LVU131
 484:Drivers/STM32L4xx_HAL_Driver/Src/stm32l4xx_hal.c **** }
 683              		.loc 1 484 1 is_stmt 0 view .LVU132
 684 0000 014B     		ldr	r3, .L68
 685 0002 1868     		ldr	r0, [r3]
 686 0004 7047     		bx	lr
 687              	.L69:
ARM GAS  C:\Users\union\AppData\Local\Temp\ccdvyd3C.s 			page 22


 688 0006 00BF     		.align	2
 689              	.L68:
 690 0008 9075FF1F 		.word	536835472
 691              		.cfi_endproc
 692              	.LFE148:
 694              		.section	.text.HAL_GetUIDw1,"ax",%progbits
 695              		.align	1
 696              		.global	HAL_GetUIDw1
 697              		.syntax unified
 698              		.thumb
 699              		.thumb_func
 700              		.fpu fpv4-sp-d16
 702              	HAL_GetUIDw1:
 703              	.LFB149:
 485:Drivers/STM32L4xx_HAL_Driver/Src/stm32l4xx_hal.c **** 
 486:Drivers/STM32L4xx_HAL_Driver/Src/stm32l4xx_hal.c **** /**
 487:Drivers/STM32L4xx_HAL_Driver/Src/stm32l4xx_hal.c ****   * @brief  Return the second word of the unique device identifier (UID based on 96 bits)
 488:Drivers/STM32L4xx_HAL_Driver/Src/stm32l4xx_hal.c ****   * @retval Device identifier
 489:Drivers/STM32L4xx_HAL_Driver/Src/stm32l4xx_hal.c ****   */
 490:Drivers/STM32L4xx_HAL_Driver/Src/stm32l4xx_hal.c **** uint32_t HAL_GetUIDw1(void)
 491:Drivers/STM32L4xx_HAL_Driver/Src/stm32l4xx_hal.c **** {
 704              		.loc 1 491 1 is_stmt 1 view -0
 705              		.cfi_startproc
 706              		@ args = 0, pretend = 0, frame = 0
 707              		@ frame_needed = 0, uses_anonymous_args = 0
 708              		@ link register save eliminated.
 492:Drivers/STM32L4xx_HAL_Driver/Src/stm32l4xx_hal.c ****   return(READ_REG(*((uint32_t *)(UID_BASE + 4U))));
 709              		.loc 1 492 3 view .LVU134
 493:Drivers/STM32L4xx_HAL_Driver/Src/stm32l4xx_hal.c **** }
 710              		.loc 1 493 1 is_stmt 0 view .LVU135
 711 0000 014B     		ldr	r3, .L71
 712 0002 1868     		ldr	r0, [r3]
 713 0004 7047     		bx	lr
 714              	.L72:
 715 0006 00BF     		.align	2
 716              	.L71:
 717 0008 9475FF1F 		.word	536835476
 718              		.cfi_endproc
 719              	.LFE149:
 721              		.section	.text.HAL_GetUIDw2,"ax",%progbits
 722              		.align	1
 723              		.global	HAL_GetUIDw2
 724              		.syntax unified
 725              		.thumb
 726              		.thumb_func
 727              		.fpu fpv4-sp-d16
 729              	HAL_GetUIDw2:
 730              	.LFB150:
 494:Drivers/STM32L4xx_HAL_Driver/Src/stm32l4xx_hal.c **** 
 495:Drivers/STM32L4xx_HAL_Driver/Src/stm32l4xx_hal.c **** /**
 496:Drivers/STM32L4xx_HAL_Driver/Src/stm32l4xx_hal.c ****   * @brief  Return the third word of the unique device identifier (UID based on 96 bits)
 497:Drivers/STM32L4xx_HAL_Driver/Src/stm32l4xx_hal.c ****   * @retval Device identifier
 498:Drivers/STM32L4xx_HAL_Driver/Src/stm32l4xx_hal.c ****   */
 499:Drivers/STM32L4xx_HAL_Driver/Src/stm32l4xx_hal.c **** uint32_t HAL_GetUIDw2(void)
 500:Drivers/STM32L4xx_HAL_Driver/Src/stm32l4xx_hal.c **** {
 731              		.loc 1 500 1 is_stmt 1 view -0
 732              		.cfi_startproc
ARM GAS  C:\Users\union\AppData\Local\Temp\ccdvyd3C.s 			page 23


 733              		@ args = 0, pretend = 0, frame = 0
 734              		@ frame_needed = 0, uses_anonymous_args = 0
 735              		@ link register save eliminated.
 501:Drivers/STM32L4xx_HAL_Driver/Src/stm32l4xx_hal.c ****   return(READ_REG(*((uint32_t *)(UID_BASE + 8U))));
 736              		.loc 1 501 3 view .LVU137
 502:Drivers/STM32L4xx_HAL_Driver/Src/stm32l4xx_hal.c **** }
 737              		.loc 1 502 1 is_stmt 0 view .LVU138
 738 0000 014B     		ldr	r3, .L74
 739 0002 1868     		ldr	r0, [r3]
 740 0004 7047     		bx	lr
 741              	.L75:
 742 0006 00BF     		.align	2
 743              	.L74:
 744 0008 9875FF1F 		.word	536835480
 745              		.cfi_endproc
 746              	.LFE150:
 748              		.section	.text.HAL_DBGMCU_EnableDBGSleepMode,"ax",%progbits
 749              		.align	1
 750              		.global	HAL_DBGMCU_EnableDBGSleepMode
 751              		.syntax unified
 752              		.thumb
 753              		.thumb_func
 754              		.fpu fpv4-sp-d16
 756              	HAL_DBGMCU_EnableDBGSleepMode:
 757              	.LFB151:
 503:Drivers/STM32L4xx_HAL_Driver/Src/stm32l4xx_hal.c **** 
 504:Drivers/STM32L4xx_HAL_Driver/Src/stm32l4xx_hal.c **** /**
 505:Drivers/STM32L4xx_HAL_Driver/Src/stm32l4xx_hal.c ****   * @}
 506:Drivers/STM32L4xx_HAL_Driver/Src/stm32l4xx_hal.c ****   */
 507:Drivers/STM32L4xx_HAL_Driver/Src/stm32l4xx_hal.c **** 
 508:Drivers/STM32L4xx_HAL_Driver/Src/stm32l4xx_hal.c **** /** @defgroup HAL_Exported_Functions_Group3 HAL Debug functions
 509:Drivers/STM32L4xx_HAL_Driver/Src/stm32l4xx_hal.c ****  *  @brief    HAL Debug functions
 510:Drivers/STM32L4xx_HAL_Driver/Src/stm32l4xx_hal.c ****  *
 511:Drivers/STM32L4xx_HAL_Driver/Src/stm32l4xx_hal.c **** @verbatim
 512:Drivers/STM32L4xx_HAL_Driver/Src/stm32l4xx_hal.c ****  ===============================================================================
 513:Drivers/STM32L4xx_HAL_Driver/Src/stm32l4xx_hal.c ****                       ##### HAL Debug functions #####
 514:Drivers/STM32L4xx_HAL_Driver/Src/stm32l4xx_hal.c ****  ===============================================================================
 515:Drivers/STM32L4xx_HAL_Driver/Src/stm32l4xx_hal.c ****     [..]  This section provides functions allowing to:
 516:Drivers/STM32L4xx_HAL_Driver/Src/stm32l4xx_hal.c ****       (+) Enable/Disable Debug module during SLEEP mode
 517:Drivers/STM32L4xx_HAL_Driver/Src/stm32l4xx_hal.c ****       (+) Enable/Disable Debug module during STOP0/STOP1/STOP2 modes
 518:Drivers/STM32L4xx_HAL_Driver/Src/stm32l4xx_hal.c ****       (+) Enable/Disable Debug module during STANDBY mode
 519:Drivers/STM32L4xx_HAL_Driver/Src/stm32l4xx_hal.c **** 
 520:Drivers/STM32L4xx_HAL_Driver/Src/stm32l4xx_hal.c **** @endverbatim
 521:Drivers/STM32L4xx_HAL_Driver/Src/stm32l4xx_hal.c ****   * @{
 522:Drivers/STM32L4xx_HAL_Driver/Src/stm32l4xx_hal.c ****   */
 523:Drivers/STM32L4xx_HAL_Driver/Src/stm32l4xx_hal.c **** 
 524:Drivers/STM32L4xx_HAL_Driver/Src/stm32l4xx_hal.c **** /**
 525:Drivers/STM32L4xx_HAL_Driver/Src/stm32l4xx_hal.c ****   * @brief  Enable the Debug Module during SLEEP mode.
 526:Drivers/STM32L4xx_HAL_Driver/Src/stm32l4xx_hal.c ****   * @retval None
 527:Drivers/STM32L4xx_HAL_Driver/Src/stm32l4xx_hal.c ****   */
 528:Drivers/STM32L4xx_HAL_Driver/Src/stm32l4xx_hal.c **** void HAL_DBGMCU_EnableDBGSleepMode(void)
 529:Drivers/STM32L4xx_HAL_Driver/Src/stm32l4xx_hal.c **** {
 758              		.loc 1 529 1 is_stmt 1 view -0
 759              		.cfi_startproc
 760              		@ args = 0, pretend = 0, frame = 0
 761              		@ frame_needed = 0, uses_anonymous_args = 0
 762              		@ link register save eliminated.
ARM GAS  C:\Users\union\AppData\Local\Temp\ccdvyd3C.s 			page 24


 530:Drivers/STM32L4xx_HAL_Driver/Src/stm32l4xx_hal.c ****   SET_BIT(DBGMCU->CR, DBGMCU_CR_DBG_SLEEP);
 763              		.loc 1 530 3 view .LVU140
 764 0000 024A     		ldr	r2, .L77
 765 0002 5368     		ldr	r3, [r2, #4]
 766 0004 43F00103 		orr	r3, r3, #1
 767 0008 5360     		str	r3, [r2, #4]
 531:Drivers/STM32L4xx_HAL_Driver/Src/stm32l4xx_hal.c **** }
 768              		.loc 1 531 1 is_stmt 0 view .LVU141
 769 000a 7047     		bx	lr
 770              	.L78:
 771              		.align	2
 772              	.L77:
 773 000c 002004E0 		.word	-536600576
 774              		.cfi_endproc
 775              	.LFE151:
 777              		.section	.text.HAL_DBGMCU_DisableDBGSleepMode,"ax",%progbits
 778              		.align	1
 779              		.global	HAL_DBGMCU_DisableDBGSleepMode
 780              		.syntax unified
 781              		.thumb
 782              		.thumb_func
 783              		.fpu fpv4-sp-d16
 785              	HAL_DBGMCU_DisableDBGSleepMode:
 786              	.LFB152:
 532:Drivers/STM32L4xx_HAL_Driver/Src/stm32l4xx_hal.c **** 
 533:Drivers/STM32L4xx_HAL_Driver/Src/stm32l4xx_hal.c **** /**
 534:Drivers/STM32L4xx_HAL_Driver/Src/stm32l4xx_hal.c ****   * @brief  Disable the Debug Module during SLEEP mode.
 535:Drivers/STM32L4xx_HAL_Driver/Src/stm32l4xx_hal.c ****   * @retval None
 536:Drivers/STM32L4xx_HAL_Driver/Src/stm32l4xx_hal.c ****   */
 537:Drivers/STM32L4xx_HAL_Driver/Src/stm32l4xx_hal.c **** void HAL_DBGMCU_DisableDBGSleepMode(void)
 538:Drivers/STM32L4xx_HAL_Driver/Src/stm32l4xx_hal.c **** {
 787              		.loc 1 538 1 is_stmt 1 view -0
 788              		.cfi_startproc
 789              		@ args = 0, pretend = 0, frame = 0
 790              		@ frame_needed = 0, uses_anonymous_args = 0
 791              		@ link register save eliminated.
 539:Drivers/STM32L4xx_HAL_Driver/Src/stm32l4xx_hal.c ****   CLEAR_BIT(DBGMCU->CR, DBGMCU_CR_DBG_SLEEP);
 792              		.loc 1 539 3 view .LVU143
 793 0000 024A     		ldr	r2, .L80
 794 0002 5368     		ldr	r3, [r2, #4]
 795 0004 23F00103 		bic	r3, r3, #1
 796 0008 5360     		str	r3, [r2, #4]
 540:Drivers/STM32L4xx_HAL_Driver/Src/stm32l4xx_hal.c **** }
 797              		.loc 1 540 1 is_stmt 0 view .LVU144
 798 000a 7047     		bx	lr
 799              	.L81:
 800              		.align	2
 801              	.L80:
 802 000c 002004E0 		.word	-536600576
 803              		.cfi_endproc
 804              	.LFE152:
 806              		.section	.text.HAL_DBGMCU_EnableDBGStopMode,"ax",%progbits
 807              		.align	1
 808              		.global	HAL_DBGMCU_EnableDBGStopMode
 809              		.syntax unified
 810              		.thumb
 811              		.thumb_func
ARM GAS  C:\Users\union\AppData\Local\Temp\ccdvyd3C.s 			page 25


 812              		.fpu fpv4-sp-d16
 814              	HAL_DBGMCU_EnableDBGStopMode:
 815              	.LFB153:
 541:Drivers/STM32L4xx_HAL_Driver/Src/stm32l4xx_hal.c **** 
 542:Drivers/STM32L4xx_HAL_Driver/Src/stm32l4xx_hal.c **** /**
 543:Drivers/STM32L4xx_HAL_Driver/Src/stm32l4xx_hal.c ****   * @brief  Enable the Debug Module during STOP0/STOP1/STOP2 modes.
 544:Drivers/STM32L4xx_HAL_Driver/Src/stm32l4xx_hal.c ****   * @retval None
 545:Drivers/STM32L4xx_HAL_Driver/Src/stm32l4xx_hal.c ****   */
 546:Drivers/STM32L4xx_HAL_Driver/Src/stm32l4xx_hal.c **** void HAL_DBGMCU_EnableDBGStopMode(void)
 547:Drivers/STM32L4xx_HAL_Driver/Src/stm32l4xx_hal.c **** {
 816              		.loc 1 547 1 is_stmt 1 view -0
 817              		.cfi_startproc
 818              		@ args = 0, pretend = 0, frame = 0
 819              		@ frame_needed = 0, uses_anonymous_args = 0
 820              		@ link register save eliminated.
 548:Drivers/STM32L4xx_HAL_Driver/Src/stm32l4xx_hal.c ****   SET_BIT(DBGMCU->CR, DBGMCU_CR_DBG_STOP);
 821              		.loc 1 548 3 view .LVU146
 822 0000 024A     		ldr	r2, .L83
 823 0002 5368     		ldr	r3, [r2, #4]
 824 0004 43F00203 		orr	r3, r3, #2
 825 0008 5360     		str	r3, [r2, #4]
 549:Drivers/STM32L4xx_HAL_Driver/Src/stm32l4xx_hal.c **** }
 826              		.loc 1 549 1 is_stmt 0 view .LVU147
 827 000a 7047     		bx	lr
 828              	.L84:
 829              		.align	2
 830              	.L83:
 831 000c 002004E0 		.word	-536600576
 832              		.cfi_endproc
 833              	.LFE153:
 835              		.section	.text.HAL_DBGMCU_DisableDBGStopMode,"ax",%progbits
 836              		.align	1
 837              		.global	HAL_DBGMCU_DisableDBGStopMode
 838              		.syntax unified
 839              		.thumb
 840              		.thumb_func
 841              		.fpu fpv4-sp-d16
 843              	HAL_DBGMCU_DisableDBGStopMode:
 844              	.LFB154:
 550:Drivers/STM32L4xx_HAL_Driver/Src/stm32l4xx_hal.c **** 
 551:Drivers/STM32L4xx_HAL_Driver/Src/stm32l4xx_hal.c **** /**
 552:Drivers/STM32L4xx_HAL_Driver/Src/stm32l4xx_hal.c ****   * @brief  Disable the Debug Module during STOP0/STOP1/STOP2 modes.
 553:Drivers/STM32L4xx_HAL_Driver/Src/stm32l4xx_hal.c ****   * @retval None
 554:Drivers/STM32L4xx_HAL_Driver/Src/stm32l4xx_hal.c ****   */
 555:Drivers/STM32L4xx_HAL_Driver/Src/stm32l4xx_hal.c **** void HAL_DBGMCU_DisableDBGStopMode(void)
 556:Drivers/STM32L4xx_HAL_Driver/Src/stm32l4xx_hal.c **** {
 845              		.loc 1 556 1 is_stmt 1 view -0
 846              		.cfi_startproc
 847              		@ args = 0, pretend = 0, frame = 0
 848              		@ frame_needed = 0, uses_anonymous_args = 0
 849              		@ link register save eliminated.
 557:Drivers/STM32L4xx_HAL_Driver/Src/stm32l4xx_hal.c ****   CLEAR_BIT(DBGMCU->CR, DBGMCU_CR_DBG_STOP);
 850              		.loc 1 557 3 view .LVU149
 851 0000 024A     		ldr	r2, .L86
 852 0002 5368     		ldr	r3, [r2, #4]
 853 0004 23F00203 		bic	r3, r3, #2
 854 0008 5360     		str	r3, [r2, #4]
ARM GAS  C:\Users\union\AppData\Local\Temp\ccdvyd3C.s 			page 26


 558:Drivers/STM32L4xx_HAL_Driver/Src/stm32l4xx_hal.c **** }
 855              		.loc 1 558 1 is_stmt 0 view .LVU150
 856 000a 7047     		bx	lr
 857              	.L87:
 858              		.align	2
 859              	.L86:
 860 000c 002004E0 		.word	-536600576
 861              		.cfi_endproc
 862              	.LFE154:
 864              		.section	.text.HAL_DBGMCU_EnableDBGStandbyMode,"ax",%progbits
 865              		.align	1
 866              		.global	HAL_DBGMCU_EnableDBGStandbyMode
 867              		.syntax unified
 868              		.thumb
 869              		.thumb_func
 870              		.fpu fpv4-sp-d16
 872              	HAL_DBGMCU_EnableDBGStandbyMode:
 873              	.LFB155:
 559:Drivers/STM32L4xx_HAL_Driver/Src/stm32l4xx_hal.c **** 
 560:Drivers/STM32L4xx_HAL_Driver/Src/stm32l4xx_hal.c **** /**
 561:Drivers/STM32L4xx_HAL_Driver/Src/stm32l4xx_hal.c ****   * @brief  Enable the Debug Module during STANDBY mode.
 562:Drivers/STM32L4xx_HAL_Driver/Src/stm32l4xx_hal.c ****   * @retval None
 563:Drivers/STM32L4xx_HAL_Driver/Src/stm32l4xx_hal.c ****   */
 564:Drivers/STM32L4xx_HAL_Driver/Src/stm32l4xx_hal.c **** void HAL_DBGMCU_EnableDBGStandbyMode(void)
 565:Drivers/STM32L4xx_HAL_Driver/Src/stm32l4xx_hal.c **** {
 874              		.loc 1 565 1 is_stmt 1 view -0
 875              		.cfi_startproc
 876              		@ args = 0, pretend = 0, frame = 0
 877              		@ frame_needed = 0, uses_anonymous_args = 0
 878              		@ link register save eliminated.
 566:Drivers/STM32L4xx_HAL_Driver/Src/stm32l4xx_hal.c ****   SET_BIT(DBGMCU->CR, DBGMCU_CR_DBG_STANDBY);
 879              		.loc 1 566 3 view .LVU152
 880 0000 024A     		ldr	r2, .L89
 881 0002 5368     		ldr	r3, [r2, #4]
 882 0004 43F00403 		orr	r3, r3, #4
 883 0008 5360     		str	r3, [r2, #4]
 567:Drivers/STM32L4xx_HAL_Driver/Src/stm32l4xx_hal.c **** }
 884              		.loc 1 567 1 is_stmt 0 view .LVU153
 885 000a 7047     		bx	lr
 886              	.L90:
 887              		.align	2
 888              	.L89:
 889 000c 002004E0 		.word	-536600576
 890              		.cfi_endproc
 891              	.LFE155:
 893              		.section	.text.HAL_DBGMCU_DisableDBGStandbyMode,"ax",%progbits
 894              		.align	1
 895              		.global	HAL_DBGMCU_DisableDBGStandbyMode
 896              		.syntax unified
 897              		.thumb
 898              		.thumb_func
 899              		.fpu fpv4-sp-d16
 901              	HAL_DBGMCU_DisableDBGStandbyMode:
 902              	.LFB156:
 568:Drivers/STM32L4xx_HAL_Driver/Src/stm32l4xx_hal.c **** 
 569:Drivers/STM32L4xx_HAL_Driver/Src/stm32l4xx_hal.c **** /**
 570:Drivers/STM32L4xx_HAL_Driver/Src/stm32l4xx_hal.c ****   * @brief  Disable the Debug Module during STANDBY mode.
ARM GAS  C:\Users\union\AppData\Local\Temp\ccdvyd3C.s 			page 27


 571:Drivers/STM32L4xx_HAL_Driver/Src/stm32l4xx_hal.c ****   * @retval None
 572:Drivers/STM32L4xx_HAL_Driver/Src/stm32l4xx_hal.c ****   */
 573:Drivers/STM32L4xx_HAL_Driver/Src/stm32l4xx_hal.c **** void HAL_DBGMCU_DisableDBGStandbyMode(void)
 574:Drivers/STM32L4xx_HAL_Driver/Src/stm32l4xx_hal.c **** {
 903              		.loc 1 574 1 is_stmt 1 view -0
 904              		.cfi_startproc
 905              		@ args = 0, pretend = 0, frame = 0
 906              		@ frame_needed = 0, uses_anonymous_args = 0
 907              		@ link register save eliminated.
 575:Drivers/STM32L4xx_HAL_Driver/Src/stm32l4xx_hal.c ****   CLEAR_BIT(DBGMCU->CR, DBGMCU_CR_DBG_STANDBY);
 908              		.loc 1 575 3 view .LVU155
 909 0000 024A     		ldr	r2, .L92
 910 0002 5368     		ldr	r3, [r2, #4]
 911 0004 23F00403 		bic	r3, r3, #4
 912 0008 5360     		str	r3, [r2, #4]
 576:Drivers/STM32L4xx_HAL_Driver/Src/stm32l4xx_hal.c **** }
 913              		.loc 1 576 1 is_stmt 0 view .LVU156
 914 000a 7047     		bx	lr
 915              	.L93:
 916              		.align	2
 917              	.L92:
 918 000c 002004E0 		.word	-536600576
 919              		.cfi_endproc
 920              	.LFE156:
 922              		.section	.text.HAL_SYSCFG_SRAM2Erase,"ax",%progbits
 923              		.align	1
 924              		.global	HAL_SYSCFG_SRAM2Erase
 925              		.syntax unified
 926              		.thumb
 927              		.thumb_func
 928              		.fpu fpv4-sp-d16
 930              	HAL_SYSCFG_SRAM2Erase:
 931              	.LFB157:
 577:Drivers/STM32L4xx_HAL_Driver/Src/stm32l4xx_hal.c **** 
 578:Drivers/STM32L4xx_HAL_Driver/Src/stm32l4xx_hal.c **** /**
 579:Drivers/STM32L4xx_HAL_Driver/Src/stm32l4xx_hal.c ****   * @}
 580:Drivers/STM32L4xx_HAL_Driver/Src/stm32l4xx_hal.c ****   */
 581:Drivers/STM32L4xx_HAL_Driver/Src/stm32l4xx_hal.c **** 
 582:Drivers/STM32L4xx_HAL_Driver/Src/stm32l4xx_hal.c **** /** @defgroup HAL_Exported_Functions_Group4 HAL SYSCFG configuration functions
 583:Drivers/STM32L4xx_HAL_Driver/Src/stm32l4xx_hal.c ****  *  @brief    HAL SYSCFG configuration functions
 584:Drivers/STM32L4xx_HAL_Driver/Src/stm32l4xx_hal.c ****  *
 585:Drivers/STM32L4xx_HAL_Driver/Src/stm32l4xx_hal.c **** @verbatim
 586:Drivers/STM32L4xx_HAL_Driver/Src/stm32l4xx_hal.c ****  ===============================================================================
 587:Drivers/STM32L4xx_HAL_Driver/Src/stm32l4xx_hal.c ****                       ##### HAL SYSCFG configuration functions #####
 588:Drivers/STM32L4xx_HAL_Driver/Src/stm32l4xx_hal.c ****  ===============================================================================
 589:Drivers/STM32L4xx_HAL_Driver/Src/stm32l4xx_hal.c ****     [..]  This section provides functions allowing to:
 590:Drivers/STM32L4xx_HAL_Driver/Src/stm32l4xx_hal.c ****       (+) Start a hardware SRAM2 erase operation
 591:Drivers/STM32L4xx_HAL_Driver/Src/stm32l4xx_hal.c ****       (+) Enable/Disable the Internal FLASH Bank Swapping
 592:Drivers/STM32L4xx_HAL_Driver/Src/stm32l4xx_hal.c ****       (+) Configure the Voltage reference buffer
 593:Drivers/STM32L4xx_HAL_Driver/Src/stm32l4xx_hal.c ****       (+) Enable/Disable the Voltage reference buffer
 594:Drivers/STM32L4xx_HAL_Driver/Src/stm32l4xx_hal.c ****       (+) Enable/Disable the I/O analog switch voltage booster
 595:Drivers/STM32L4xx_HAL_Driver/Src/stm32l4xx_hal.c **** 
 596:Drivers/STM32L4xx_HAL_Driver/Src/stm32l4xx_hal.c **** @endverbatim
 597:Drivers/STM32L4xx_HAL_Driver/Src/stm32l4xx_hal.c ****   * @{
 598:Drivers/STM32L4xx_HAL_Driver/Src/stm32l4xx_hal.c ****   */
 599:Drivers/STM32L4xx_HAL_Driver/Src/stm32l4xx_hal.c **** 
 600:Drivers/STM32L4xx_HAL_Driver/Src/stm32l4xx_hal.c **** /**
ARM GAS  C:\Users\union\AppData\Local\Temp\ccdvyd3C.s 			page 28


 601:Drivers/STM32L4xx_HAL_Driver/Src/stm32l4xx_hal.c ****   * @brief  Start a hardware SRAM2 erase operation.
 602:Drivers/STM32L4xx_HAL_Driver/Src/stm32l4xx_hal.c ****   * @note   As long as SRAM2 is not erased the SRAM2ER bit will be set.
 603:Drivers/STM32L4xx_HAL_Driver/Src/stm32l4xx_hal.c ****   *         This bit is automatically reset at the end of the SRAM2 erase operation.
 604:Drivers/STM32L4xx_HAL_Driver/Src/stm32l4xx_hal.c ****   * @retval None
 605:Drivers/STM32L4xx_HAL_Driver/Src/stm32l4xx_hal.c ****   */
 606:Drivers/STM32L4xx_HAL_Driver/Src/stm32l4xx_hal.c **** void HAL_SYSCFG_SRAM2Erase(void)
 607:Drivers/STM32L4xx_HAL_Driver/Src/stm32l4xx_hal.c **** {
 932              		.loc 1 607 1 is_stmt 1 view -0
 933              		.cfi_startproc
 934              		@ args = 0, pretend = 0, frame = 0
 935              		@ frame_needed = 0, uses_anonymous_args = 0
 936              		@ link register save eliminated.
 608:Drivers/STM32L4xx_HAL_Driver/Src/stm32l4xx_hal.c ****   /* unlock the write protection of the SRAM2ER bit */
 609:Drivers/STM32L4xx_HAL_Driver/Src/stm32l4xx_hal.c ****   SYSCFG->SKR = 0xCA;
 937              		.loc 1 609 3 view .LVU158
 938              		.loc 1 609 15 is_stmt 0 view .LVU159
 939 0000 054B     		ldr	r3, .L95
 940 0002 CA22     		movs	r2, #202
 941 0004 5A62     		str	r2, [r3, #36]
 610:Drivers/STM32L4xx_HAL_Driver/Src/stm32l4xx_hal.c ****   SYSCFG->SKR = 0x53;
 942              		.loc 1 610 3 is_stmt 1 view .LVU160
 943              		.loc 1 610 15 is_stmt 0 view .LVU161
 944 0006 5322     		movs	r2, #83
 945 0008 5A62     		str	r2, [r3, #36]
 611:Drivers/STM32L4xx_HAL_Driver/Src/stm32l4xx_hal.c ****   /* Starts a hardware SRAM2 erase operation*/
 612:Drivers/STM32L4xx_HAL_Driver/Src/stm32l4xx_hal.c ****   *(__IO uint32_t *) SCSR_SRAM2ER_BB = 0x00000001UL;
 946              		.loc 1 612 3 is_stmt 1 view .LVU162
 947              		.loc 1 612 38 is_stmt 0 view .LVU163
 948 000a A3F1FD23 		sub	r3, r3, #-50266880
 949 000e A3F56003 		sub	r3, r3, #14680064
 950 0012 0122     		movs	r2, #1
 951 0014 1A60     		str	r2, [r3]
 613:Drivers/STM32L4xx_HAL_Driver/Src/stm32l4xx_hal.c **** }
 952              		.loc 1 613 1 view .LVU164
 953 0016 7047     		bx	lr
 954              	.L96:
 955              		.align	2
 956              	.L95:
 957 0018 00000140 		.word	1073807360
 958              		.cfi_endproc
 959              	.LFE157:
 961              		.section	.text.HAL_SYSCFG_EnableMemorySwappingBank,"ax",%progbits
 962              		.align	1
 963              		.global	HAL_SYSCFG_EnableMemorySwappingBank
 964              		.syntax unified
 965              		.thumb
 966              		.thumb_func
 967              		.fpu fpv4-sp-d16
 969              	HAL_SYSCFG_EnableMemorySwappingBank:
 970              	.LFB158:
 614:Drivers/STM32L4xx_HAL_Driver/Src/stm32l4xx_hal.c **** 
 615:Drivers/STM32L4xx_HAL_Driver/Src/stm32l4xx_hal.c **** /**
 616:Drivers/STM32L4xx_HAL_Driver/Src/stm32l4xx_hal.c ****   * @brief  Enable the Internal FLASH Bank Swapping.
 617:Drivers/STM32L4xx_HAL_Driver/Src/stm32l4xx_hal.c ****   *
 618:Drivers/STM32L4xx_HAL_Driver/Src/stm32l4xx_hal.c ****   * @note   This function can be used only for STM32L4xx devices.
 619:Drivers/STM32L4xx_HAL_Driver/Src/stm32l4xx_hal.c ****   *
 620:Drivers/STM32L4xx_HAL_Driver/Src/stm32l4xx_hal.c ****   * @note   Flash Bank2 mapped at 0x08000000 (and aliased @0x00000000)
ARM GAS  C:\Users\union\AppData\Local\Temp\ccdvyd3C.s 			page 29


 621:Drivers/STM32L4xx_HAL_Driver/Src/stm32l4xx_hal.c ****   *         and Flash Bank1 mapped at 0x08100000 (and aliased at 0x00100000)
 622:Drivers/STM32L4xx_HAL_Driver/Src/stm32l4xx_hal.c ****   *
 623:Drivers/STM32L4xx_HAL_Driver/Src/stm32l4xx_hal.c ****   * @retval None
 624:Drivers/STM32L4xx_HAL_Driver/Src/stm32l4xx_hal.c ****   */
 625:Drivers/STM32L4xx_HAL_Driver/Src/stm32l4xx_hal.c **** void HAL_SYSCFG_EnableMemorySwappingBank(void)
 626:Drivers/STM32L4xx_HAL_Driver/Src/stm32l4xx_hal.c **** {
 971              		.loc 1 626 1 is_stmt 1 view -0
 972              		.cfi_startproc
 973              		@ args = 0, pretend = 0, frame = 0
 974              		@ frame_needed = 0, uses_anonymous_args = 0
 975              		@ link register save eliminated.
 627:Drivers/STM32L4xx_HAL_Driver/Src/stm32l4xx_hal.c ****   *(__IO uint32_t *)FB_MODE_BB = 0x00000001UL;
 976              		.loc 1 627 3 view .LVU166
 977              		.loc 1 627 32 is_stmt 0 view .LVU167
 978 0000 014B     		ldr	r3, .L98
 979 0002 0122     		movs	r2, #1
 980 0004 1A60     		str	r2, [r3]
 628:Drivers/STM32L4xx_HAL_Driver/Src/stm32l4xx_hal.c **** }
 981              		.loc 1 628 1 view .LVU168
 982 0006 7047     		bx	lr
 983              	.L99:
 984              		.align	2
 985              	.L98:
 986 0008 20002042 		.word	1109393440
 987              		.cfi_endproc
 988              	.LFE158:
 990              		.section	.text.HAL_SYSCFG_DisableMemorySwappingBank,"ax",%progbits
 991              		.align	1
 992              		.global	HAL_SYSCFG_DisableMemorySwappingBank
 993              		.syntax unified
 994              		.thumb
 995              		.thumb_func
 996              		.fpu fpv4-sp-d16
 998              	HAL_SYSCFG_DisableMemorySwappingBank:
 999              	.LFB159:
 629:Drivers/STM32L4xx_HAL_Driver/Src/stm32l4xx_hal.c **** 
 630:Drivers/STM32L4xx_HAL_Driver/Src/stm32l4xx_hal.c **** /**
 631:Drivers/STM32L4xx_HAL_Driver/Src/stm32l4xx_hal.c ****   * @brief  Disable the Internal FLASH Bank Swapping.
 632:Drivers/STM32L4xx_HAL_Driver/Src/stm32l4xx_hal.c ****   *
 633:Drivers/STM32L4xx_HAL_Driver/Src/stm32l4xx_hal.c ****   * @note   This function can be used only for STM32L4xx devices.
 634:Drivers/STM32L4xx_HAL_Driver/Src/stm32l4xx_hal.c ****   *
 635:Drivers/STM32L4xx_HAL_Driver/Src/stm32l4xx_hal.c ****   * @note   The default state : Flash Bank1 mapped at 0x08000000 (and aliased @0x0000 0000)
 636:Drivers/STM32L4xx_HAL_Driver/Src/stm32l4xx_hal.c ****   *         and Flash Bank2 mapped at 0x08100000 (and aliased at 0x00100000)
 637:Drivers/STM32L4xx_HAL_Driver/Src/stm32l4xx_hal.c ****   *
 638:Drivers/STM32L4xx_HAL_Driver/Src/stm32l4xx_hal.c ****   * @retval None
 639:Drivers/STM32L4xx_HAL_Driver/Src/stm32l4xx_hal.c ****   */
 640:Drivers/STM32L4xx_HAL_Driver/Src/stm32l4xx_hal.c **** void HAL_SYSCFG_DisableMemorySwappingBank(void)
 641:Drivers/STM32L4xx_HAL_Driver/Src/stm32l4xx_hal.c **** {
 1000              		.loc 1 641 1 is_stmt 1 view -0
 1001              		.cfi_startproc
 1002              		@ args = 0, pretend = 0, frame = 0
 1003              		@ frame_needed = 0, uses_anonymous_args = 0
 1004              		@ link register save eliminated.
 642:Drivers/STM32L4xx_HAL_Driver/Src/stm32l4xx_hal.c **** 
 643:Drivers/STM32L4xx_HAL_Driver/Src/stm32l4xx_hal.c ****   *(__IO uint32_t *)FB_MODE_BB = 0x00000000UL;
 1005              		.loc 1 643 3 view .LVU170
 1006              		.loc 1 643 32 is_stmt 0 view .LVU171
ARM GAS  C:\Users\union\AppData\Local\Temp\ccdvyd3C.s 			page 30


 1007 0000 014B     		ldr	r3, .L101
 1008 0002 0022     		movs	r2, #0
 1009 0004 1A60     		str	r2, [r3]
 644:Drivers/STM32L4xx_HAL_Driver/Src/stm32l4xx_hal.c **** }
 1010              		.loc 1 644 1 view .LVU172
 1011 0006 7047     		bx	lr
 1012              	.L102:
 1013              		.align	2
 1014              	.L101:
 1015 0008 20002042 		.word	1109393440
 1016              		.cfi_endproc
 1017              	.LFE159:
 1019              		.section	.text.HAL_SYSCFG_VREFBUF_VoltageScalingConfig,"ax",%progbits
 1020              		.align	1
 1021              		.global	HAL_SYSCFG_VREFBUF_VoltageScalingConfig
 1022              		.syntax unified
 1023              		.thumb
 1024              		.thumb_func
 1025              		.fpu fpv4-sp-d16
 1027              	HAL_SYSCFG_VREFBUF_VoltageScalingConfig:
 1028              	.LVL27:
 1029              	.LFB160:
 645:Drivers/STM32L4xx_HAL_Driver/Src/stm32l4xx_hal.c **** 
 646:Drivers/STM32L4xx_HAL_Driver/Src/stm32l4xx_hal.c **** #if defined(VREFBUF)
 647:Drivers/STM32L4xx_HAL_Driver/Src/stm32l4xx_hal.c **** /**
 648:Drivers/STM32L4xx_HAL_Driver/Src/stm32l4xx_hal.c ****   * @brief Configure the internal voltage reference buffer voltage scale.
 649:Drivers/STM32L4xx_HAL_Driver/Src/stm32l4xx_hal.c ****   * @param VoltageScaling  specifies the output voltage to achieve
 650:Drivers/STM32L4xx_HAL_Driver/Src/stm32l4xx_hal.c ****   *          This parameter can be one of the following values:
 651:Drivers/STM32L4xx_HAL_Driver/Src/stm32l4xx_hal.c ****   *            @arg SYSCFG_VREFBUF_VOLTAGE_SCALE0: VREF_OUT1 around 2.048 V.
 652:Drivers/STM32L4xx_HAL_Driver/Src/stm32l4xx_hal.c ****   *                                                This requires VDDA equal to or higher than 2.4 V
 653:Drivers/STM32L4xx_HAL_Driver/Src/stm32l4xx_hal.c ****   *            @arg SYSCFG_VREFBUF_VOLTAGE_SCALE1: VREF_OUT2 around 2.5 V.
 654:Drivers/STM32L4xx_HAL_Driver/Src/stm32l4xx_hal.c ****   *                                                This requires VDDA equal to or higher than 2.8 V
 655:Drivers/STM32L4xx_HAL_Driver/Src/stm32l4xx_hal.c ****   * @retval None
 656:Drivers/STM32L4xx_HAL_Driver/Src/stm32l4xx_hal.c ****   */
 657:Drivers/STM32L4xx_HAL_Driver/Src/stm32l4xx_hal.c **** void HAL_SYSCFG_VREFBUF_VoltageScalingConfig(uint32_t VoltageScaling)
 658:Drivers/STM32L4xx_HAL_Driver/Src/stm32l4xx_hal.c **** {
 1030              		.loc 1 658 1 is_stmt 1 view -0
 1031              		.cfi_startproc
 1032              		@ args = 0, pretend = 0, frame = 0
 1033              		@ frame_needed = 0, uses_anonymous_args = 0
 1034              		@ link register save eliminated.
 659:Drivers/STM32L4xx_HAL_Driver/Src/stm32l4xx_hal.c ****   /* Check the parameters */
 660:Drivers/STM32L4xx_HAL_Driver/Src/stm32l4xx_hal.c ****   assert_param(IS_SYSCFG_VREFBUF_VOLTAGE_SCALE(VoltageScaling));
 1035              		.loc 1 660 3 view .LVU174
 661:Drivers/STM32L4xx_HAL_Driver/Src/stm32l4xx_hal.c **** 
 662:Drivers/STM32L4xx_HAL_Driver/Src/stm32l4xx_hal.c ****   MODIFY_REG(VREFBUF->CSR, VREFBUF_CSR_VRS, VoltageScaling);
 1036              		.loc 1 662 3 view .LVU175
 1037 0000 034A     		ldr	r2, .L104
 1038 0002 1368     		ldr	r3, [r2]
 1039 0004 23F00403 		bic	r3, r3, #4
 1040 0008 1843     		orrs	r0, r0, r3
 1041              	.LVL28:
 1042              		.loc 1 662 3 is_stmt 0 view .LVU176
 1043 000a 1060     		str	r0, [r2]
 663:Drivers/STM32L4xx_HAL_Driver/Src/stm32l4xx_hal.c **** }
 1044              		.loc 1 663 1 view .LVU177
 1045 000c 7047     		bx	lr
ARM GAS  C:\Users\union\AppData\Local\Temp\ccdvyd3C.s 			page 31


 1046              	.L105:
 1047 000e 00BF     		.align	2
 1048              	.L104:
 1049 0010 30000140 		.word	1073807408
 1050              		.cfi_endproc
 1051              	.LFE160:
 1053              		.section	.text.HAL_SYSCFG_VREFBUF_HighImpedanceConfig,"ax",%progbits
 1054              		.align	1
 1055              		.global	HAL_SYSCFG_VREFBUF_HighImpedanceConfig
 1056              		.syntax unified
 1057              		.thumb
 1058              		.thumb_func
 1059              		.fpu fpv4-sp-d16
 1061              	HAL_SYSCFG_VREFBUF_HighImpedanceConfig:
 1062              	.LVL29:
 1063              	.LFB161:
 664:Drivers/STM32L4xx_HAL_Driver/Src/stm32l4xx_hal.c **** 
 665:Drivers/STM32L4xx_HAL_Driver/Src/stm32l4xx_hal.c **** /**
 666:Drivers/STM32L4xx_HAL_Driver/Src/stm32l4xx_hal.c ****   * @brief Configure the internal voltage reference buffer high impedance mode.
 667:Drivers/STM32L4xx_HAL_Driver/Src/stm32l4xx_hal.c ****   * @param Mode  specifies the high impedance mode
 668:Drivers/STM32L4xx_HAL_Driver/Src/stm32l4xx_hal.c ****   *          This parameter can be one of the following values:
 669:Drivers/STM32L4xx_HAL_Driver/Src/stm32l4xx_hal.c ****   *            @arg SYSCFG_VREFBUF_HIGH_IMPEDANCE_DISABLE: VREF+ pin is internally connect to VREFI
 670:Drivers/STM32L4xx_HAL_Driver/Src/stm32l4xx_hal.c ****   *            @arg SYSCFG_VREFBUF_HIGH_IMPEDANCE_ENABLE: VREF+ pin is high impedance.
 671:Drivers/STM32L4xx_HAL_Driver/Src/stm32l4xx_hal.c ****   * @retval None
 672:Drivers/STM32L4xx_HAL_Driver/Src/stm32l4xx_hal.c ****   */
 673:Drivers/STM32L4xx_HAL_Driver/Src/stm32l4xx_hal.c **** void HAL_SYSCFG_VREFBUF_HighImpedanceConfig(uint32_t Mode)
 674:Drivers/STM32L4xx_HAL_Driver/Src/stm32l4xx_hal.c **** {
 1064              		.loc 1 674 1 is_stmt 1 view -0
 1065              		.cfi_startproc
 1066              		@ args = 0, pretend = 0, frame = 0
 1067              		@ frame_needed = 0, uses_anonymous_args = 0
 1068              		@ link register save eliminated.
 675:Drivers/STM32L4xx_HAL_Driver/Src/stm32l4xx_hal.c ****   /* Check the parameters */
 676:Drivers/STM32L4xx_HAL_Driver/Src/stm32l4xx_hal.c ****   assert_param(IS_SYSCFG_VREFBUF_HIGH_IMPEDANCE(Mode));
 1069              		.loc 1 676 3 view .LVU179
 677:Drivers/STM32L4xx_HAL_Driver/Src/stm32l4xx_hal.c **** 
 678:Drivers/STM32L4xx_HAL_Driver/Src/stm32l4xx_hal.c ****   MODIFY_REG(VREFBUF->CSR, VREFBUF_CSR_HIZ, Mode);
 1070              		.loc 1 678 3 view .LVU180
 1071 0000 034A     		ldr	r2, .L107
 1072 0002 1368     		ldr	r3, [r2]
 1073 0004 23F00203 		bic	r3, r3, #2
 1074 0008 1843     		orrs	r0, r0, r3
 1075              	.LVL30:
 1076              		.loc 1 678 3 is_stmt 0 view .LVU181
 1077 000a 1060     		str	r0, [r2]
 679:Drivers/STM32L4xx_HAL_Driver/Src/stm32l4xx_hal.c **** }
 1078              		.loc 1 679 1 view .LVU182
 1079 000c 7047     		bx	lr
 1080              	.L108:
 1081 000e 00BF     		.align	2
 1082              	.L107:
 1083 0010 30000140 		.word	1073807408
 1084              		.cfi_endproc
 1085              	.LFE161:
 1087              		.section	.text.HAL_SYSCFG_VREFBUF_TrimmingConfig,"ax",%progbits
 1088              		.align	1
 1089              		.global	HAL_SYSCFG_VREFBUF_TrimmingConfig
ARM GAS  C:\Users\union\AppData\Local\Temp\ccdvyd3C.s 			page 32


 1090              		.syntax unified
 1091              		.thumb
 1092              		.thumb_func
 1093              		.fpu fpv4-sp-d16
 1095              	HAL_SYSCFG_VREFBUF_TrimmingConfig:
 1096              	.LVL31:
 1097              	.LFB162:
 680:Drivers/STM32L4xx_HAL_Driver/Src/stm32l4xx_hal.c **** 
 681:Drivers/STM32L4xx_HAL_Driver/Src/stm32l4xx_hal.c **** /**
 682:Drivers/STM32L4xx_HAL_Driver/Src/stm32l4xx_hal.c ****   * @brief  Tune the Internal Voltage Reference buffer (VREFBUF).
 683:Drivers/STM32L4xx_HAL_Driver/Src/stm32l4xx_hal.c ****   * @retval None
 684:Drivers/STM32L4xx_HAL_Driver/Src/stm32l4xx_hal.c ****   */
 685:Drivers/STM32L4xx_HAL_Driver/Src/stm32l4xx_hal.c **** void HAL_SYSCFG_VREFBUF_TrimmingConfig(uint32_t TrimmingValue)
 686:Drivers/STM32L4xx_HAL_Driver/Src/stm32l4xx_hal.c **** {
 1098              		.loc 1 686 1 is_stmt 1 view -0
 1099              		.cfi_startproc
 1100              		@ args = 0, pretend = 0, frame = 0
 1101              		@ frame_needed = 0, uses_anonymous_args = 0
 1102              		@ link register save eliminated.
 687:Drivers/STM32L4xx_HAL_Driver/Src/stm32l4xx_hal.c ****   /* Check the parameters */
 688:Drivers/STM32L4xx_HAL_Driver/Src/stm32l4xx_hal.c ****   assert_param(IS_SYSCFG_VREFBUF_TRIMMING(TrimmingValue));
 1103              		.loc 1 688 3 view .LVU184
 689:Drivers/STM32L4xx_HAL_Driver/Src/stm32l4xx_hal.c **** 
 690:Drivers/STM32L4xx_HAL_Driver/Src/stm32l4xx_hal.c ****   MODIFY_REG(VREFBUF->CCR, VREFBUF_CCR_TRIM, TrimmingValue);
 1104              		.loc 1 690 3 view .LVU185
 1105 0000 034A     		ldr	r2, .L110
 1106 0002 5368     		ldr	r3, [r2, #4]
 1107 0004 23F03F03 		bic	r3, r3, #63
 1108 0008 1843     		orrs	r0, r0, r3
 1109              	.LVL32:
 1110              		.loc 1 690 3 is_stmt 0 view .LVU186
 1111 000a 5060     		str	r0, [r2, #4]
 691:Drivers/STM32L4xx_HAL_Driver/Src/stm32l4xx_hal.c **** }
 1112              		.loc 1 691 1 view .LVU187
 1113 000c 7047     		bx	lr
 1114              	.L111:
 1115 000e 00BF     		.align	2
 1116              	.L110:
 1117 0010 30000140 		.word	1073807408
 1118              		.cfi_endproc
 1119              	.LFE162:
 1121              		.section	.text.HAL_SYSCFG_EnableVREFBUF,"ax",%progbits
 1122              		.align	1
 1123              		.global	HAL_SYSCFG_EnableVREFBUF
 1124              		.syntax unified
 1125              		.thumb
 1126              		.thumb_func
 1127              		.fpu fpv4-sp-d16
 1129              	HAL_SYSCFG_EnableVREFBUF:
 1130              	.LFB163:
 692:Drivers/STM32L4xx_HAL_Driver/Src/stm32l4xx_hal.c **** 
 693:Drivers/STM32L4xx_HAL_Driver/Src/stm32l4xx_hal.c **** /**
 694:Drivers/STM32L4xx_HAL_Driver/Src/stm32l4xx_hal.c ****   * @brief  Enable the Internal Voltage Reference buffer (VREFBUF).
 695:Drivers/STM32L4xx_HAL_Driver/Src/stm32l4xx_hal.c ****   * @retval HAL_OK/HAL_TIMEOUT
 696:Drivers/STM32L4xx_HAL_Driver/Src/stm32l4xx_hal.c ****   */
 697:Drivers/STM32L4xx_HAL_Driver/Src/stm32l4xx_hal.c **** HAL_StatusTypeDef HAL_SYSCFG_EnableVREFBUF(void)
 698:Drivers/STM32L4xx_HAL_Driver/Src/stm32l4xx_hal.c **** {
ARM GAS  C:\Users\union\AppData\Local\Temp\ccdvyd3C.s 			page 33


 1131              		.loc 1 698 1 is_stmt 1 view -0
 1132              		.cfi_startproc
 1133              		@ args = 0, pretend = 0, frame = 0
 1134              		@ frame_needed = 0, uses_anonymous_args = 0
 1135 0000 10B5     		push	{r4, lr}
 1136              	.LCFI5:
 1137              		.cfi_def_cfa_offset 8
 1138              		.cfi_offset 4, -8
 1139              		.cfi_offset 14, -4
 699:Drivers/STM32L4xx_HAL_Driver/Src/stm32l4xx_hal.c ****   uint32_t  tickstart;
 1140              		.loc 1 699 3 view .LVU189
 700:Drivers/STM32L4xx_HAL_Driver/Src/stm32l4xx_hal.c **** 
 701:Drivers/STM32L4xx_HAL_Driver/Src/stm32l4xx_hal.c ****   SET_BIT(VREFBUF->CSR, VREFBUF_CSR_ENVR);
 1141              		.loc 1 701 3 view .LVU190
 1142 0002 0B4A     		ldr	r2, .L119
 1143 0004 1368     		ldr	r3, [r2]
 1144 0006 43F00103 		orr	r3, r3, #1
 1145 000a 1360     		str	r3, [r2]
 702:Drivers/STM32L4xx_HAL_Driver/Src/stm32l4xx_hal.c **** 
 703:Drivers/STM32L4xx_HAL_Driver/Src/stm32l4xx_hal.c ****   /* Get Start Tick*/
 704:Drivers/STM32L4xx_HAL_Driver/Src/stm32l4xx_hal.c ****   tickstart = HAL_GetTick();
 1146              		.loc 1 704 3 view .LVU191
 1147              		.loc 1 704 15 is_stmt 0 view .LVU192
 1148 000c FFF7FEFF 		bl	HAL_GetTick
 1149              	.LVL33:
 1150 0010 0446     		mov	r4, r0
 1151              	.LVL34:
 705:Drivers/STM32L4xx_HAL_Driver/Src/stm32l4xx_hal.c **** 
 706:Drivers/STM32L4xx_HAL_Driver/Src/stm32l4xx_hal.c ****   /* Wait for VRR bit  */
 707:Drivers/STM32L4xx_HAL_Driver/Src/stm32l4xx_hal.c ****   while(READ_BIT(VREFBUF->CSR, VREFBUF_CSR_VRR) == 0U)
 1152              		.loc 1 707 3 is_stmt 1 view .LVU193
 1153              	.L113:
 1154              		.loc 1 707 9 is_stmt 0 view .LVU194
 1155 0012 074B     		ldr	r3, .L119
 1156 0014 1B68     		ldr	r3, [r3]
 1157              		.loc 1 707 8 view .LVU195
 1158 0016 13F0080F 		tst	r3, #8
 1159 001a 06D1     		bne	.L118
 708:Drivers/STM32L4xx_HAL_Driver/Src/stm32l4xx_hal.c ****   {
 709:Drivers/STM32L4xx_HAL_Driver/Src/stm32l4xx_hal.c ****     if((HAL_GetTick() - tickstart) > VREFBUF_TIMEOUT_VALUE)
 1160              		.loc 1 709 5 is_stmt 1 view .LVU196
 1161              		.loc 1 709 9 is_stmt 0 view .LVU197
 1162 001c FFF7FEFF 		bl	HAL_GetTick
 1163              	.LVL35:
 1164              		.loc 1 709 23 view .LVU198
 1165 0020 001B     		subs	r0, r0, r4
 1166              		.loc 1 709 7 view .LVU199
 1167 0022 0A28     		cmp	r0, #10
 1168 0024 F5D9     		bls	.L113
 710:Drivers/STM32L4xx_HAL_Driver/Src/stm32l4xx_hal.c ****     {
 711:Drivers/STM32L4xx_HAL_Driver/Src/stm32l4xx_hal.c ****       return HAL_TIMEOUT;
 1169              		.loc 1 711 14 view .LVU200
 1170 0026 0320     		movs	r0, #3
 1171 0028 00E0     		b	.L114
 1172              	.L118:
 712:Drivers/STM32L4xx_HAL_Driver/Src/stm32l4xx_hal.c ****     }
 713:Drivers/STM32L4xx_HAL_Driver/Src/stm32l4xx_hal.c ****   }
ARM GAS  C:\Users\union\AppData\Local\Temp\ccdvyd3C.s 			page 34


 714:Drivers/STM32L4xx_HAL_Driver/Src/stm32l4xx_hal.c **** 
 715:Drivers/STM32L4xx_HAL_Driver/Src/stm32l4xx_hal.c ****   return HAL_OK;
 1173              		.loc 1 715 10 view .LVU201
 1174 002a 0020     		movs	r0, #0
 1175              	.L114:
 716:Drivers/STM32L4xx_HAL_Driver/Src/stm32l4xx_hal.c **** }
 1176              		.loc 1 716 1 view .LVU202
 1177 002c 10BD     		pop	{r4, pc}
 1178              	.LVL36:
 1179              	.L120:
 1180              		.loc 1 716 1 view .LVU203
 1181 002e 00BF     		.align	2
 1182              	.L119:
 1183 0030 30000140 		.word	1073807408
 1184              		.cfi_endproc
 1185              	.LFE163:
 1187              		.section	.text.HAL_SYSCFG_DisableVREFBUF,"ax",%progbits
 1188              		.align	1
 1189              		.global	HAL_SYSCFG_DisableVREFBUF
 1190              		.syntax unified
 1191              		.thumb
 1192              		.thumb_func
 1193              		.fpu fpv4-sp-d16
 1195              	HAL_SYSCFG_DisableVREFBUF:
 1196              	.LFB164:
 717:Drivers/STM32L4xx_HAL_Driver/Src/stm32l4xx_hal.c **** 
 718:Drivers/STM32L4xx_HAL_Driver/Src/stm32l4xx_hal.c **** /**
 719:Drivers/STM32L4xx_HAL_Driver/Src/stm32l4xx_hal.c ****   * @brief  Disable the Internal Voltage Reference buffer (VREFBUF).
 720:Drivers/STM32L4xx_HAL_Driver/Src/stm32l4xx_hal.c ****   *
 721:Drivers/STM32L4xx_HAL_Driver/Src/stm32l4xx_hal.c ****   * @retval None
 722:Drivers/STM32L4xx_HAL_Driver/Src/stm32l4xx_hal.c ****   */
 723:Drivers/STM32L4xx_HAL_Driver/Src/stm32l4xx_hal.c **** void HAL_SYSCFG_DisableVREFBUF(void)
 724:Drivers/STM32L4xx_HAL_Driver/Src/stm32l4xx_hal.c **** {
 1197              		.loc 1 724 1 is_stmt 1 view -0
 1198              		.cfi_startproc
 1199              		@ args = 0, pretend = 0, frame = 0
 1200              		@ frame_needed = 0, uses_anonymous_args = 0
 1201              		@ link register save eliminated.
 725:Drivers/STM32L4xx_HAL_Driver/Src/stm32l4xx_hal.c ****   CLEAR_BIT(VREFBUF->CSR, VREFBUF_CSR_ENVR);
 1202              		.loc 1 725 3 view .LVU205
 1203 0000 024A     		ldr	r2, .L122
 1204 0002 1368     		ldr	r3, [r2]
 1205 0004 23F00103 		bic	r3, r3, #1
 1206 0008 1360     		str	r3, [r2]
 726:Drivers/STM32L4xx_HAL_Driver/Src/stm32l4xx_hal.c **** }
 1207              		.loc 1 726 1 is_stmt 0 view .LVU206
 1208 000a 7047     		bx	lr
 1209              	.L123:
 1210              		.align	2
 1211              	.L122:
 1212 000c 30000140 		.word	1073807408
 1213              		.cfi_endproc
 1214              	.LFE164:
 1216              		.section	.text.HAL_SYSCFG_EnableIOAnalogSwitchBooster,"ax",%progbits
 1217              		.align	1
 1218              		.global	HAL_SYSCFG_EnableIOAnalogSwitchBooster
 1219              		.syntax unified
ARM GAS  C:\Users\union\AppData\Local\Temp\ccdvyd3C.s 			page 35


 1220              		.thumb
 1221              		.thumb_func
 1222              		.fpu fpv4-sp-d16
 1224              	HAL_SYSCFG_EnableIOAnalogSwitchBooster:
 1225              	.LFB165:
 727:Drivers/STM32L4xx_HAL_Driver/Src/stm32l4xx_hal.c **** #endif /* VREFBUF */
 728:Drivers/STM32L4xx_HAL_Driver/Src/stm32l4xx_hal.c **** 
 729:Drivers/STM32L4xx_HAL_Driver/Src/stm32l4xx_hal.c **** /**
 730:Drivers/STM32L4xx_HAL_Driver/Src/stm32l4xx_hal.c ****   * @brief  Enable the I/O analog switch voltage booster
 731:Drivers/STM32L4xx_HAL_Driver/Src/stm32l4xx_hal.c ****   *
 732:Drivers/STM32L4xx_HAL_Driver/Src/stm32l4xx_hal.c ****   * @retval None
 733:Drivers/STM32L4xx_HAL_Driver/Src/stm32l4xx_hal.c ****   */
 734:Drivers/STM32L4xx_HAL_Driver/Src/stm32l4xx_hal.c **** void HAL_SYSCFG_EnableIOAnalogSwitchBooster(void)
 735:Drivers/STM32L4xx_HAL_Driver/Src/stm32l4xx_hal.c **** {
 1226              		.loc 1 735 1 is_stmt 1 view -0
 1227              		.cfi_startproc
 1228              		@ args = 0, pretend = 0, frame = 0
 1229              		@ frame_needed = 0, uses_anonymous_args = 0
 1230              		@ link register save eliminated.
 736:Drivers/STM32L4xx_HAL_Driver/Src/stm32l4xx_hal.c ****   SET_BIT(SYSCFG->CFGR1, SYSCFG_CFGR1_BOOSTEN);
 1231              		.loc 1 736 3 view .LVU208
 1232 0000 024A     		ldr	r2, .L125
 1233 0002 5368     		ldr	r3, [r2, #4]
 1234 0004 43F48073 		orr	r3, r3, #256
 1235 0008 5360     		str	r3, [r2, #4]
 737:Drivers/STM32L4xx_HAL_Driver/Src/stm32l4xx_hal.c **** }
 1236              		.loc 1 737 1 is_stmt 0 view .LVU209
 1237 000a 7047     		bx	lr
 1238              	.L126:
 1239              		.align	2
 1240              	.L125:
 1241 000c 00000140 		.word	1073807360
 1242              		.cfi_endproc
 1243              	.LFE165:
 1245              		.section	.text.HAL_SYSCFG_DisableIOAnalogSwitchBooster,"ax",%progbits
 1246              		.align	1
 1247              		.global	HAL_SYSCFG_DisableIOAnalogSwitchBooster
 1248              		.syntax unified
 1249              		.thumb
 1250              		.thumb_func
 1251              		.fpu fpv4-sp-d16
 1253              	HAL_SYSCFG_DisableIOAnalogSwitchBooster:
 1254              	.LFB166:
 738:Drivers/STM32L4xx_HAL_Driver/Src/stm32l4xx_hal.c **** 
 739:Drivers/STM32L4xx_HAL_Driver/Src/stm32l4xx_hal.c **** /**
 740:Drivers/STM32L4xx_HAL_Driver/Src/stm32l4xx_hal.c ****   * @brief  Disable the I/O analog switch voltage booster
 741:Drivers/STM32L4xx_HAL_Driver/Src/stm32l4xx_hal.c ****   *
 742:Drivers/STM32L4xx_HAL_Driver/Src/stm32l4xx_hal.c ****   * @retval None
 743:Drivers/STM32L4xx_HAL_Driver/Src/stm32l4xx_hal.c ****   */
 744:Drivers/STM32L4xx_HAL_Driver/Src/stm32l4xx_hal.c **** void HAL_SYSCFG_DisableIOAnalogSwitchBooster(void)
 745:Drivers/STM32L4xx_HAL_Driver/Src/stm32l4xx_hal.c **** {
 1255              		.loc 1 745 1 is_stmt 1 view -0
 1256              		.cfi_startproc
 1257              		@ args = 0, pretend = 0, frame = 0
 1258              		@ frame_needed = 0, uses_anonymous_args = 0
 1259              		@ link register save eliminated.
 746:Drivers/STM32L4xx_HAL_Driver/Src/stm32l4xx_hal.c ****   CLEAR_BIT(SYSCFG->CFGR1, SYSCFG_CFGR1_BOOSTEN);
ARM GAS  C:\Users\union\AppData\Local\Temp\ccdvyd3C.s 			page 36


 1260              		.loc 1 746 3 view .LVU211
 1261 0000 024A     		ldr	r2, .L128
 1262 0002 5368     		ldr	r3, [r2, #4]
 1263 0004 23F48073 		bic	r3, r3, #256
 1264 0008 5360     		str	r3, [r2, #4]
 747:Drivers/STM32L4xx_HAL_Driver/Src/stm32l4xx_hal.c **** }
 1265              		.loc 1 747 1 is_stmt 0 view .LVU212
 1266 000a 7047     		bx	lr
 1267              	.L129:
 1268              		.align	2
 1269              	.L128:
 1270 000c 00000140 		.word	1073807360
 1271              		.cfi_endproc
 1272              	.LFE166:
 1274              		.global	uwTickFreq
 1275              		.global	uwTickPrio
 1276              		.comm	uwTick,4,4
 1277              		.section	.data.uwTickFreq,"aw"
 1278              		.set	.LANCHOR0,. + 0
 1281              	uwTickFreq:
 1282 0000 01       		.byte	1
 1283              		.section	.data.uwTickPrio,"aw"
 1284              		.align	2
 1285              		.set	.LANCHOR1,. + 0
 1288              	uwTickPrio:
 1289 0000 10000000 		.word	16
 1290              		.text
 1291              	.Letext0:
 1292              		.file 2 "c:\\arm_tool\\gcc\\arm-none-eabi\\include\\machine\\_default_types.h"
 1293              		.file 3 "c:\\arm_tool\\gcc\\arm-none-eabi\\include\\sys\\_stdint.h"
 1294              		.file 4 "Drivers/CMSIS/Include/core_cm4.h"
 1295              		.file 5 "Drivers/CMSIS/Device/ST/STM32L4xx/Include/system_stm32l4xx.h"
 1296              		.file 6 "Drivers/CMSIS/Device/ST/STM32L4xx/Include/stm32l476xx.h"
 1297              		.file 7 "Drivers/STM32L4xx_HAL_Driver/Inc/stm32l4xx_hal_def.h"
 1298              		.file 8 "Drivers/STM32L4xx_HAL_Driver/Inc/stm32l4xx_hal_flash.h"
 1299              		.file 9 "Drivers/STM32L4xx_HAL_Driver/Inc/stm32l4xx_hal.h"
 1300              		.file 10 "Drivers/STM32L4xx_HAL_Driver/Inc/stm32l4xx_hal_cortex.h"
ARM GAS  C:\Users\union\AppData\Local\Temp\ccdvyd3C.s 			page 37


DEFINED SYMBOLS
                            *ABS*:0000000000000000 stm32l4xx_hal.c
C:\Users\union\AppData\Local\Temp\ccdvyd3C.s:18     .text.HAL_MspInit:0000000000000000 $t
C:\Users\union\AppData\Local\Temp\ccdvyd3C.s:26     .text.HAL_MspInit:0000000000000000 HAL_MspInit
C:\Users\union\AppData\Local\Temp\ccdvyd3C.s:40     .text.HAL_MspDeInit:0000000000000000 $t
C:\Users\union\AppData\Local\Temp\ccdvyd3C.s:47     .text.HAL_MspDeInit:0000000000000000 HAL_MspDeInit
C:\Users\union\AppData\Local\Temp\ccdvyd3C.s:60     .text.HAL_DeInit:0000000000000000 $t
C:\Users\union\AppData\Local\Temp\ccdvyd3C.s:67     .text.HAL_DeInit:0000000000000000 HAL_DeInit
C:\Users\union\AppData\Local\Temp\ccdvyd3C.s:117    .text.HAL_DeInit:000000000000002c $d
C:\Users\union\AppData\Local\Temp\ccdvyd3C.s:122    .text.HAL_InitTick:0000000000000000 $t
C:\Users\union\AppData\Local\Temp\ccdvyd3C.s:129    .text.HAL_InitTick:0000000000000000 HAL_InitTick
C:\Users\union\AppData\Local\Temp\ccdvyd3C.s:206    .text.HAL_InitTick:0000000000000044 $d
C:\Users\union\AppData\Local\Temp\ccdvyd3C.s:213    .text.HAL_Init:0000000000000000 $t
C:\Users\union\AppData\Local\Temp\ccdvyd3C.s:220    .text.HAL_Init:0000000000000000 HAL_Init
C:\Users\union\AppData\Local\Temp\ccdvyd3C.s:268    .text.HAL_Init:0000000000000028 $d
C:\Users\union\AppData\Local\Temp\ccdvyd3C.s:273    .text.HAL_IncTick:0000000000000000 $t
C:\Users\union\AppData\Local\Temp\ccdvyd3C.s:280    .text.HAL_IncTick:0000000000000000 HAL_IncTick
C:\Users\union\AppData\Local\Temp\ccdvyd3C.s:301    .text.HAL_IncTick:0000000000000010 $d
                            *COM*:0000000000000004 uwTick
C:\Users\union\AppData\Local\Temp\ccdvyd3C.s:307    .text.HAL_GetTick:0000000000000000 $t
C:\Users\union\AppData\Local\Temp\ccdvyd3C.s:314    .text.HAL_GetTick:0000000000000000 HAL_GetTick
C:\Users\union\AppData\Local\Temp\ccdvyd3C.s:330    .text.HAL_GetTick:0000000000000008 $d
C:\Users\union\AppData\Local\Temp\ccdvyd3C.s:335    .text.HAL_GetTickPrio:0000000000000000 $t
C:\Users\union\AppData\Local\Temp\ccdvyd3C.s:342    .text.HAL_GetTickPrio:0000000000000000 HAL_GetTickPrio
C:\Users\union\AppData\Local\Temp\ccdvyd3C.s:357    .text.HAL_GetTickPrio:0000000000000008 $d
C:\Users\union\AppData\Local\Temp\ccdvyd3C.s:362    .text.HAL_SetTickFreq:0000000000000000 $t
C:\Users\union\AppData\Local\Temp\ccdvyd3C.s:369    .text.HAL_SetTickFreq:0000000000000000 HAL_SetTickFreq
C:\Users\union\AppData\Local\Temp\ccdvyd3C.s:427    .text.HAL_SetTickFreq:0000000000000028 $d
C:\Users\union\AppData\Local\Temp\ccdvyd3C.s:433    .text.HAL_GetTickFreq:0000000000000000 $t
C:\Users\union\AppData\Local\Temp\ccdvyd3C.s:440    .text.HAL_GetTickFreq:0000000000000000 HAL_GetTickFreq
C:\Users\union\AppData\Local\Temp\ccdvyd3C.s:455    .text.HAL_GetTickFreq:0000000000000008 $d
C:\Users\union\AppData\Local\Temp\ccdvyd3C.s:460    .text.HAL_Delay:0000000000000000 $t
C:\Users\union\AppData\Local\Temp\ccdvyd3C.s:467    .text.HAL_Delay:0000000000000000 HAL_Delay
C:\Users\union\AppData\Local\Temp\ccdvyd3C.s:519    .text.HAL_Delay:0000000000000024 $d
C:\Users\union\AppData\Local\Temp\ccdvyd3C.s:524    .text.HAL_SuspendTick:0000000000000000 $t
C:\Users\union\AppData\Local\Temp\ccdvyd3C.s:531    .text.HAL_SuspendTick:0000000000000000 HAL_SuspendTick
C:\Users\union\AppData\Local\Temp\ccdvyd3C.s:549    .text.HAL_SuspendTick:000000000000000c $d
C:\Users\union\AppData\Local\Temp\ccdvyd3C.s:554    .text.HAL_ResumeTick:0000000000000000 $t
C:\Users\union\AppData\Local\Temp\ccdvyd3C.s:561    .text.HAL_ResumeTick:0000000000000000 HAL_ResumeTick
C:\Users\union\AppData\Local\Temp\ccdvyd3C.s:579    .text.HAL_ResumeTick:000000000000000c $d
C:\Users\union\AppData\Local\Temp\ccdvyd3C.s:584    .text.HAL_GetHalVersion:0000000000000000 $t
C:\Users\union\AppData\Local\Temp\ccdvyd3C.s:591    .text.HAL_GetHalVersion:0000000000000000 HAL_GetHalVersion
C:\Users\union\AppData\Local\Temp\ccdvyd3C.s:605    .text.HAL_GetHalVersion:0000000000000004 $d
C:\Users\union\AppData\Local\Temp\ccdvyd3C.s:610    .text.HAL_GetREVID:0000000000000000 $t
C:\Users\union\AppData\Local\Temp\ccdvyd3C.s:617    .text.HAL_GetREVID:0000000000000000 HAL_GetREVID
C:\Users\union\AppData\Local\Temp\ccdvyd3C.s:634    .text.HAL_GetREVID:0000000000000008 $d
C:\Users\union\AppData\Local\Temp\ccdvyd3C.s:639    .text.HAL_GetDEVID:0000000000000000 $t
C:\Users\union\AppData\Local\Temp\ccdvyd3C.s:646    .text.HAL_GetDEVID:0000000000000000 HAL_GetDEVID
C:\Users\union\AppData\Local\Temp\ccdvyd3C.s:663    .text.HAL_GetDEVID:000000000000000c $d
C:\Users\union\AppData\Local\Temp\ccdvyd3C.s:668    .text.HAL_GetUIDw0:0000000000000000 $t
C:\Users\union\AppData\Local\Temp\ccdvyd3C.s:675    .text.HAL_GetUIDw0:0000000000000000 HAL_GetUIDw0
C:\Users\union\AppData\Local\Temp\ccdvyd3C.s:690    .text.HAL_GetUIDw0:0000000000000008 $d
C:\Users\union\AppData\Local\Temp\ccdvyd3C.s:695    .text.HAL_GetUIDw1:0000000000000000 $t
C:\Users\union\AppData\Local\Temp\ccdvyd3C.s:702    .text.HAL_GetUIDw1:0000000000000000 HAL_GetUIDw1
C:\Users\union\AppData\Local\Temp\ccdvyd3C.s:717    .text.HAL_GetUIDw1:0000000000000008 $d
C:\Users\union\AppData\Local\Temp\ccdvyd3C.s:722    .text.HAL_GetUIDw2:0000000000000000 $t
C:\Users\union\AppData\Local\Temp\ccdvyd3C.s:729    .text.HAL_GetUIDw2:0000000000000000 HAL_GetUIDw2
ARM GAS  C:\Users\union\AppData\Local\Temp\ccdvyd3C.s 			page 38


C:\Users\union\AppData\Local\Temp\ccdvyd3C.s:744    .text.HAL_GetUIDw2:0000000000000008 $d
C:\Users\union\AppData\Local\Temp\ccdvyd3C.s:749    .text.HAL_DBGMCU_EnableDBGSleepMode:0000000000000000 $t
C:\Users\union\AppData\Local\Temp\ccdvyd3C.s:756    .text.HAL_DBGMCU_EnableDBGSleepMode:0000000000000000 HAL_DBGMCU_EnableDBGSleepMode
C:\Users\union\AppData\Local\Temp\ccdvyd3C.s:773    .text.HAL_DBGMCU_EnableDBGSleepMode:000000000000000c $d
C:\Users\union\AppData\Local\Temp\ccdvyd3C.s:778    .text.HAL_DBGMCU_DisableDBGSleepMode:0000000000000000 $t
C:\Users\union\AppData\Local\Temp\ccdvyd3C.s:785    .text.HAL_DBGMCU_DisableDBGSleepMode:0000000000000000 HAL_DBGMCU_DisableDBGSleepMode
C:\Users\union\AppData\Local\Temp\ccdvyd3C.s:802    .text.HAL_DBGMCU_DisableDBGSleepMode:000000000000000c $d
C:\Users\union\AppData\Local\Temp\ccdvyd3C.s:807    .text.HAL_DBGMCU_EnableDBGStopMode:0000000000000000 $t
C:\Users\union\AppData\Local\Temp\ccdvyd3C.s:814    .text.HAL_DBGMCU_EnableDBGStopMode:0000000000000000 HAL_DBGMCU_EnableDBGStopMode
C:\Users\union\AppData\Local\Temp\ccdvyd3C.s:831    .text.HAL_DBGMCU_EnableDBGStopMode:000000000000000c $d
C:\Users\union\AppData\Local\Temp\ccdvyd3C.s:836    .text.HAL_DBGMCU_DisableDBGStopMode:0000000000000000 $t
C:\Users\union\AppData\Local\Temp\ccdvyd3C.s:843    .text.HAL_DBGMCU_DisableDBGStopMode:0000000000000000 HAL_DBGMCU_DisableDBGStopMode
C:\Users\union\AppData\Local\Temp\ccdvyd3C.s:860    .text.HAL_DBGMCU_DisableDBGStopMode:000000000000000c $d
C:\Users\union\AppData\Local\Temp\ccdvyd3C.s:865    .text.HAL_DBGMCU_EnableDBGStandbyMode:0000000000000000 $t
C:\Users\union\AppData\Local\Temp\ccdvyd3C.s:872    .text.HAL_DBGMCU_EnableDBGStandbyMode:0000000000000000 HAL_DBGMCU_EnableDBGStandbyMode
C:\Users\union\AppData\Local\Temp\ccdvyd3C.s:889    .text.HAL_DBGMCU_EnableDBGStandbyMode:000000000000000c $d
C:\Users\union\AppData\Local\Temp\ccdvyd3C.s:894    .text.HAL_DBGMCU_DisableDBGStandbyMode:0000000000000000 $t
C:\Users\union\AppData\Local\Temp\ccdvyd3C.s:901    .text.HAL_DBGMCU_DisableDBGStandbyMode:0000000000000000 HAL_DBGMCU_DisableDBGStandbyMode
C:\Users\union\AppData\Local\Temp\ccdvyd3C.s:918    .text.HAL_DBGMCU_DisableDBGStandbyMode:000000000000000c $d
C:\Users\union\AppData\Local\Temp\ccdvyd3C.s:923    .text.HAL_SYSCFG_SRAM2Erase:0000000000000000 $t
C:\Users\union\AppData\Local\Temp\ccdvyd3C.s:930    .text.HAL_SYSCFG_SRAM2Erase:0000000000000000 HAL_SYSCFG_SRAM2Erase
C:\Users\union\AppData\Local\Temp\ccdvyd3C.s:957    .text.HAL_SYSCFG_SRAM2Erase:0000000000000018 $d
C:\Users\union\AppData\Local\Temp\ccdvyd3C.s:962    .text.HAL_SYSCFG_EnableMemorySwappingBank:0000000000000000 $t
C:\Users\union\AppData\Local\Temp\ccdvyd3C.s:969    .text.HAL_SYSCFG_EnableMemorySwappingBank:0000000000000000 HAL_SYSCFG_EnableMemorySwappingBank
C:\Users\union\AppData\Local\Temp\ccdvyd3C.s:986    .text.HAL_SYSCFG_EnableMemorySwappingBank:0000000000000008 $d
C:\Users\union\AppData\Local\Temp\ccdvyd3C.s:991    .text.HAL_SYSCFG_DisableMemorySwappingBank:0000000000000000 $t
C:\Users\union\AppData\Local\Temp\ccdvyd3C.s:998    .text.HAL_SYSCFG_DisableMemorySwappingBank:0000000000000000 HAL_SYSCFG_DisableMemorySwappingBank
C:\Users\union\AppData\Local\Temp\ccdvyd3C.s:1015   .text.HAL_SYSCFG_DisableMemorySwappingBank:0000000000000008 $d
C:\Users\union\AppData\Local\Temp\ccdvyd3C.s:1020   .text.HAL_SYSCFG_VREFBUF_VoltageScalingConfig:0000000000000000 $t
C:\Users\union\AppData\Local\Temp\ccdvyd3C.s:1027   .text.HAL_SYSCFG_VREFBUF_VoltageScalingConfig:0000000000000000 HAL_SYSCFG_VREFBUF_VoltageScalingConfig
C:\Users\union\AppData\Local\Temp\ccdvyd3C.s:1049   .text.HAL_SYSCFG_VREFBUF_VoltageScalingConfig:0000000000000010 $d
C:\Users\union\AppData\Local\Temp\ccdvyd3C.s:1054   .text.HAL_SYSCFG_VREFBUF_HighImpedanceConfig:0000000000000000 $t
C:\Users\union\AppData\Local\Temp\ccdvyd3C.s:1061   .text.HAL_SYSCFG_VREFBUF_HighImpedanceConfig:0000000000000000 HAL_SYSCFG_VREFBUF_HighImpedanceConfig
C:\Users\union\AppData\Local\Temp\ccdvyd3C.s:1083   .text.HAL_SYSCFG_VREFBUF_HighImpedanceConfig:0000000000000010 $d
C:\Users\union\AppData\Local\Temp\ccdvyd3C.s:1088   .text.HAL_SYSCFG_VREFBUF_TrimmingConfig:0000000000000000 $t
C:\Users\union\AppData\Local\Temp\ccdvyd3C.s:1095   .text.HAL_SYSCFG_VREFBUF_TrimmingConfig:0000000000000000 HAL_SYSCFG_VREFBUF_TrimmingConfig
C:\Users\union\AppData\Local\Temp\ccdvyd3C.s:1117   .text.HAL_SYSCFG_VREFBUF_TrimmingConfig:0000000000000010 $d
C:\Users\union\AppData\Local\Temp\ccdvyd3C.s:1122   .text.HAL_SYSCFG_EnableVREFBUF:0000000000000000 $t
C:\Users\union\AppData\Local\Temp\ccdvyd3C.s:1129   .text.HAL_SYSCFG_EnableVREFBUF:0000000000000000 HAL_SYSCFG_EnableVREFBUF
C:\Users\union\AppData\Local\Temp\ccdvyd3C.s:1183   .text.HAL_SYSCFG_EnableVREFBUF:0000000000000030 $d
C:\Users\union\AppData\Local\Temp\ccdvyd3C.s:1188   .text.HAL_SYSCFG_DisableVREFBUF:0000000000000000 $t
C:\Users\union\AppData\Local\Temp\ccdvyd3C.s:1195   .text.HAL_SYSCFG_DisableVREFBUF:0000000000000000 HAL_SYSCFG_DisableVREFBUF
C:\Users\union\AppData\Local\Temp\ccdvyd3C.s:1212   .text.HAL_SYSCFG_DisableVREFBUF:000000000000000c $d
C:\Users\union\AppData\Local\Temp\ccdvyd3C.s:1217   .text.HAL_SYSCFG_EnableIOAnalogSwitchBooster:0000000000000000 $t
C:\Users\union\AppData\Local\Temp\ccdvyd3C.s:1224   .text.HAL_SYSCFG_EnableIOAnalogSwitchBooster:0000000000000000 HAL_SYSCFG_EnableIOAnalogSwitchBooster
C:\Users\union\AppData\Local\Temp\ccdvyd3C.s:1241   .text.HAL_SYSCFG_EnableIOAnalogSwitchBooster:000000000000000c $d
C:\Users\union\AppData\Local\Temp\ccdvyd3C.s:1246   .text.HAL_SYSCFG_DisableIOAnalogSwitchBooster:0000000000000000 $t
C:\Users\union\AppData\Local\Temp\ccdvyd3C.s:1253   .text.HAL_SYSCFG_DisableIOAnalogSwitchBooster:0000000000000000 HAL_SYSCFG_DisableIOAnalogSwitchBooster
C:\Users\union\AppData\Local\Temp\ccdvyd3C.s:1270   .text.HAL_SYSCFG_DisableIOAnalogSwitchBooster:000000000000000c $d
C:\Users\union\AppData\Local\Temp\ccdvyd3C.s:1281   .data.uwTickFreq:0000000000000000 uwTickFreq
C:\Users\union\AppData\Local\Temp\ccdvyd3C.s:1288   .data.uwTickPrio:0000000000000000 uwTickPrio
C:\Users\union\AppData\Local\Temp\ccdvyd3C.s:1284   .data.uwTickPrio:0000000000000000 $d

UNDEFINED SYMBOLS
HAL_SYSTICK_Config
HAL_NVIC_SetPriority
SystemCoreClock
ARM GAS  C:\Users\union\AppData\Local\Temp\ccdvyd3C.s 			page 39


HAL_NVIC_SetPriorityGrouping
