ARM GAS  C:\Users\union\AppData\Local\Temp\cc0Qh4IN.s 			page 1


   1              		.cpu cortex-m4
   2              		.eabi_attribute 27, 1
   3              		.eabi_attribute 28, 1
   4              		.eabi_attribute 20, 1
   5              		.eabi_attribute 21, 1
   6              		.eabi_attribute 23, 3
   7              		.eabi_attribute 24, 1
   8              		.eabi_attribute 25, 1
   9              		.eabi_attribute 26, 1
  10              		.eabi_attribute 30, 1
  11              		.eabi_attribute 34, 1
  12              		.eabi_attribute 18, 4
  13              		.file	"usart.c"
  14              		.text
  15              	.Ltext0:
  16              		.cfi_sections	.debug_frame
  17              		.section	.text.MX_USART2_UART_Init,"ax",%progbits
  18              		.align	1
  19              		.global	MX_USART2_UART_Init
  20              		.arch armv7e-m
  21              		.syntax unified
  22              		.thumb
  23              		.thumb_func
  24              		.fpu fpv4-sp-d16
  26              	MX_USART2_UART_Init:
  27              	.LFB132:
  28              		.file 1 "Core/Src/usart.c"
   1:Core/Src/usart.c **** /**
   2:Core/Src/usart.c ****   ******************************************************************************
   3:Core/Src/usart.c ****   * @file    usart.c
   4:Core/Src/usart.c ****   * @brief   This file provides code for the configuration
   5:Core/Src/usart.c ****   *          of the USART instances.
   6:Core/Src/usart.c ****   ******************************************************************************
   7:Core/Src/usart.c ****   * @attention
   8:Core/Src/usart.c ****   *
   9:Core/Src/usart.c ****   * <h2><center>&copy; Copyright (c) 2022 STMicroelectronics.
  10:Core/Src/usart.c ****   * All rights reserved.</center></h2>
  11:Core/Src/usart.c ****   *
  12:Core/Src/usart.c ****   * This software component is licensed by ST under Ultimate Liberty license
  13:Core/Src/usart.c ****   * SLA0044, the "License"; You may not use this file except in compliance with
  14:Core/Src/usart.c ****   * the License. You may obtain a copy of the License at:
  15:Core/Src/usart.c ****   *                             www.st.com/SLA0044
  16:Core/Src/usart.c ****   *
  17:Core/Src/usart.c ****   ******************************************************************************
  18:Core/Src/usart.c ****   */
  19:Core/Src/usart.c **** 
  20:Core/Src/usart.c **** /* Includes ------------------------------------------------------------------*/
  21:Core/Src/usart.c **** #include "usart.h"
  22:Core/Src/usart.c **** 
  23:Core/Src/usart.c **** /* USER CODE BEGIN 0 */
  24:Core/Src/usart.c **** 
  25:Core/Src/usart.c **** /* USER CODE END 0 */
  26:Core/Src/usart.c **** 
  27:Core/Src/usart.c **** UART_HandleTypeDef huart2;
  28:Core/Src/usart.c **** DMA_HandleTypeDef hdma_usart2_rx;
  29:Core/Src/usart.c **** DMA_HandleTypeDef hdma_usart2_tx;
  30:Core/Src/usart.c **** 
ARM GAS  C:\Users\union\AppData\Local\Temp\cc0Qh4IN.s 			page 2


  31:Core/Src/usart.c **** /* USART2 init function */
  32:Core/Src/usart.c **** 
  33:Core/Src/usart.c **** void MX_USART2_UART_Init(void)
  34:Core/Src/usart.c **** {
  29              		.loc 1 34 1 view -0
  30              		.cfi_startproc
  31              		@ args = 0, pretend = 0, frame = 0
  32              		@ frame_needed = 0, uses_anonymous_args = 0
  33 0000 08B5     		push	{r3, lr}
  34              	.LCFI0:
  35              		.cfi_def_cfa_offset 8
  36              		.cfi_offset 3, -8
  37              		.cfi_offset 14, -4
  35:Core/Src/usart.c **** 
  36:Core/Src/usart.c ****   /* USER CODE BEGIN USART2_Init 0 */
  37:Core/Src/usart.c **** 
  38:Core/Src/usart.c ****   /* USER CODE END USART2_Init 0 */
  39:Core/Src/usart.c **** 
  40:Core/Src/usart.c ****   /* USER CODE BEGIN USART2_Init 1 */
  41:Core/Src/usart.c **** 
  42:Core/Src/usart.c ****   /* USER CODE END USART2_Init 1 */
  43:Core/Src/usart.c ****   huart2.Instance = USART2;
  38              		.loc 1 43 3 view .LVU1
  39              		.loc 1 43 19 is_stmt 0 view .LVU2
  40 0002 0B48     		ldr	r0, .L5
  41 0004 0B4B     		ldr	r3, .L5+4
  42 0006 0360     		str	r3, [r0]
  44:Core/Src/usart.c ****   huart2.Init.BaudRate = 921600;
  43              		.loc 1 44 3 is_stmt 1 view .LVU3
  44              		.loc 1 44 24 is_stmt 0 view .LVU4
  45 0008 4FF46123 		mov	r3, #921600
  46 000c 4360     		str	r3, [r0, #4]
  45:Core/Src/usart.c ****   huart2.Init.WordLength = UART_WORDLENGTH_8B;
  47              		.loc 1 45 3 is_stmt 1 view .LVU5
  48              		.loc 1 45 26 is_stmt 0 view .LVU6
  49 000e 0023     		movs	r3, #0
  50 0010 8360     		str	r3, [r0, #8]
  46:Core/Src/usart.c ****   huart2.Init.StopBits = UART_STOPBITS_1;
  51              		.loc 1 46 3 is_stmt 1 view .LVU7
  52              		.loc 1 46 24 is_stmt 0 view .LVU8
  53 0012 C360     		str	r3, [r0, #12]
  47:Core/Src/usart.c ****   huart2.Init.Parity = UART_PARITY_NONE;
  54              		.loc 1 47 3 is_stmt 1 view .LVU9
  55              		.loc 1 47 22 is_stmt 0 view .LVU10
  56 0014 0361     		str	r3, [r0, #16]
  48:Core/Src/usart.c ****   huart2.Init.Mode = UART_MODE_TX_RX;
  57              		.loc 1 48 3 is_stmt 1 view .LVU11
  58              		.loc 1 48 20 is_stmt 0 view .LVU12
  59 0016 0C22     		movs	r2, #12
  60 0018 4261     		str	r2, [r0, #20]
  49:Core/Src/usart.c ****   huart2.Init.HwFlowCtl = UART_HWCONTROL_NONE;
  61              		.loc 1 49 3 is_stmt 1 view .LVU13
  62              		.loc 1 49 25 is_stmt 0 view .LVU14
  63 001a 8361     		str	r3, [r0, #24]
  50:Core/Src/usart.c ****   huart2.Init.OverSampling = UART_OVERSAMPLING_16;
  64              		.loc 1 50 3 is_stmt 1 view .LVU15
  65              		.loc 1 50 28 is_stmt 0 view .LVU16
ARM GAS  C:\Users\union\AppData\Local\Temp\cc0Qh4IN.s 			page 3


  66 001c C361     		str	r3, [r0, #28]
  51:Core/Src/usart.c ****   huart2.Init.OneBitSampling = UART_ONE_BIT_SAMPLE_DISABLE;
  67              		.loc 1 51 3 is_stmt 1 view .LVU17
  68              		.loc 1 51 30 is_stmt 0 view .LVU18
  69 001e 0362     		str	r3, [r0, #32]
  52:Core/Src/usart.c ****   huart2.AdvancedInit.AdvFeatureInit = UART_ADVFEATURE_NO_INIT;
  70              		.loc 1 52 3 is_stmt 1 view .LVU19
  71              		.loc 1 52 38 is_stmt 0 view .LVU20
  72 0020 4362     		str	r3, [r0, #36]
  53:Core/Src/usart.c ****   if (HAL_UART_Init(&huart2) != HAL_OK)
  73              		.loc 1 53 3 is_stmt 1 view .LVU21
  74              		.loc 1 53 7 is_stmt 0 view .LVU22
  75 0022 FFF7FEFF 		bl	HAL_UART_Init
  76              	.LVL0:
  77              		.loc 1 53 6 view .LVU23
  78 0026 00B9     		cbnz	r0, .L4
  79              	.L1:
  54:Core/Src/usart.c ****   {
  55:Core/Src/usart.c ****     Error_Handler();
  56:Core/Src/usart.c ****   }
  57:Core/Src/usart.c ****   /* USER CODE BEGIN USART2_Init 2 */
  58:Core/Src/usart.c **** 
  59:Core/Src/usart.c ****   /* USER CODE END USART2_Init 2 */
  60:Core/Src/usart.c **** 
  61:Core/Src/usart.c **** }
  80              		.loc 1 61 1 view .LVU24
  81 0028 08BD     		pop	{r3, pc}
  82              	.L4:
  55:Core/Src/usart.c ****   }
  83              		.loc 1 55 5 is_stmt 1 view .LVU25
  84 002a FFF7FEFF 		bl	Error_Handler
  85              	.LVL1:
  86              		.loc 1 61 1 is_stmt 0 view .LVU26
  87 002e FBE7     		b	.L1
  88              	.L6:
  89              		.align	2
  90              	.L5:
  91 0030 00000000 		.word	huart2
  92 0034 00440040 		.word	1073759232
  93              		.cfi_endproc
  94              	.LFE132:
  96              		.section	.text.HAL_UART_MspInit,"ax",%progbits
  97              		.align	1
  98              		.global	HAL_UART_MspInit
  99              		.syntax unified
 100              		.thumb
 101              		.thumb_func
 102              		.fpu fpv4-sp-d16
 104              	HAL_UART_MspInit:
 105              	.LVL2:
 106              	.LFB133:
  62:Core/Src/usart.c **** 
  63:Core/Src/usart.c **** void HAL_UART_MspInit(UART_HandleTypeDef* uartHandle)
  64:Core/Src/usart.c **** {
 107              		.loc 1 64 1 is_stmt 1 view -0
 108              		.cfi_startproc
 109              		@ args = 0, pretend = 0, frame = 168
ARM GAS  C:\Users\union\AppData\Local\Temp\cc0Qh4IN.s 			page 4


 110              		@ frame_needed = 0, uses_anonymous_args = 0
 111              		.loc 1 64 1 is_stmt 0 view .LVU28
 112 0000 70B5     		push	{r4, r5, r6, lr}
 113              	.LCFI1:
 114              		.cfi_def_cfa_offset 16
 115              		.cfi_offset 4, -16
 116              		.cfi_offset 5, -12
 117              		.cfi_offset 6, -8
 118              		.cfi_offset 14, -4
 119 0002 AAB0     		sub	sp, sp, #168
 120              	.LCFI2:
 121              		.cfi_def_cfa_offset 184
 122 0004 0446     		mov	r4, r0
  65:Core/Src/usart.c **** 
  66:Core/Src/usart.c ****   GPIO_InitTypeDef GPIO_InitStruct = {0};
 123              		.loc 1 66 3 is_stmt 1 view .LVU29
 124              		.loc 1 66 20 is_stmt 0 view .LVU30
 125 0006 0021     		movs	r1, #0
 126 0008 2591     		str	r1, [sp, #148]
 127 000a 2691     		str	r1, [sp, #152]
 128 000c 2791     		str	r1, [sp, #156]
 129 000e 2891     		str	r1, [sp, #160]
 130 0010 2991     		str	r1, [sp, #164]
  67:Core/Src/usart.c ****   RCC_PeriphCLKInitTypeDef PeriphClkInit = {0};
 131              		.loc 1 67 3 is_stmt 1 view .LVU31
 132              		.loc 1 67 28 is_stmt 0 view .LVU32
 133 0012 8822     		movs	r2, #136
 134 0014 03A8     		add	r0, sp, #12
 135              	.LVL3:
 136              		.loc 1 67 28 view .LVU33
 137 0016 FFF7FEFF 		bl	memset
 138              	.LVL4:
  68:Core/Src/usart.c ****   if(uartHandle->Instance==USART2)
 139              		.loc 1 68 3 is_stmt 1 view .LVU34
 140              		.loc 1 68 16 is_stmt 0 view .LVU35
 141 001a 2268     		ldr	r2, [r4]
 142              		.loc 1 68 5 view .LVU36
 143 001c 334B     		ldr	r3, .L17
 144 001e 9A42     		cmp	r2, r3
 145 0020 01D0     		beq	.L13
 146              	.L7:
  69:Core/Src/usart.c ****   {
  70:Core/Src/usart.c ****   /* USER CODE BEGIN USART2_MspInit 0 */
  71:Core/Src/usart.c **** 
  72:Core/Src/usart.c ****   /* USER CODE END USART2_MspInit 0 */
  73:Core/Src/usart.c ****   /** Initializes the peripherals clock
  74:Core/Src/usart.c ****   */
  75:Core/Src/usart.c ****     PeriphClkInit.PeriphClockSelection = RCC_PERIPHCLK_USART2;
  76:Core/Src/usart.c ****     PeriphClkInit.Usart2ClockSelection = RCC_USART2CLKSOURCE_PCLK1;
  77:Core/Src/usart.c ****     if (HAL_RCCEx_PeriphCLKConfig(&PeriphClkInit) != HAL_OK)
  78:Core/Src/usart.c ****     {
  79:Core/Src/usart.c ****       Error_Handler();
  80:Core/Src/usart.c ****     }
  81:Core/Src/usart.c **** 
  82:Core/Src/usart.c ****     /* USART2 clock enable */
  83:Core/Src/usart.c ****     __HAL_RCC_USART2_CLK_ENABLE();
  84:Core/Src/usart.c **** 
ARM GAS  C:\Users\union\AppData\Local\Temp\cc0Qh4IN.s 			page 5


  85:Core/Src/usart.c ****     __HAL_RCC_GPIOA_CLK_ENABLE();
  86:Core/Src/usart.c ****     /**USART2 GPIO Configuration
  87:Core/Src/usart.c ****     PA2     ------> USART2_TX
  88:Core/Src/usart.c ****     PA3     ------> USART2_RX
  89:Core/Src/usart.c ****     */
  90:Core/Src/usart.c ****     GPIO_InitStruct.Pin = USART_TX_Pin|USART_RX_Pin;
  91:Core/Src/usart.c ****     GPIO_InitStruct.Mode = GPIO_MODE_AF_PP;
  92:Core/Src/usart.c ****     GPIO_InitStruct.Pull = GPIO_NOPULL;
  93:Core/Src/usart.c ****     GPIO_InitStruct.Speed = GPIO_SPEED_FREQ_VERY_HIGH;
  94:Core/Src/usart.c ****     GPIO_InitStruct.Alternate = GPIO_AF7_USART2;
  95:Core/Src/usart.c ****     HAL_GPIO_Init(GPIOA, &GPIO_InitStruct);
  96:Core/Src/usart.c **** 
  97:Core/Src/usart.c ****     /* USART2 DMA Init */
  98:Core/Src/usart.c ****     /* USART2_RX Init */
  99:Core/Src/usart.c ****     hdma_usart2_rx.Instance = DMA1_Channel6;
 100:Core/Src/usart.c ****     hdma_usart2_rx.Init.Request = DMA_REQUEST_2;
 101:Core/Src/usart.c ****     hdma_usart2_rx.Init.Direction = DMA_PERIPH_TO_MEMORY;
 102:Core/Src/usart.c ****     hdma_usart2_rx.Init.PeriphInc = DMA_PINC_DISABLE;
 103:Core/Src/usart.c ****     hdma_usart2_rx.Init.MemInc = DMA_MINC_ENABLE;
 104:Core/Src/usart.c ****     hdma_usart2_rx.Init.PeriphDataAlignment = DMA_PDATAALIGN_BYTE;
 105:Core/Src/usart.c ****     hdma_usart2_rx.Init.MemDataAlignment = DMA_MDATAALIGN_BYTE;
 106:Core/Src/usart.c ****     hdma_usart2_rx.Init.Mode = DMA_CIRCULAR;
 107:Core/Src/usart.c ****     hdma_usart2_rx.Init.Priority = DMA_PRIORITY_LOW;
 108:Core/Src/usart.c ****     if (HAL_DMA_Init(&hdma_usart2_rx) != HAL_OK)
 109:Core/Src/usart.c ****     {
 110:Core/Src/usart.c ****       Error_Handler();
 111:Core/Src/usart.c ****     }
 112:Core/Src/usart.c **** 
 113:Core/Src/usart.c ****     __HAL_LINKDMA(uartHandle,hdmarx,hdma_usart2_rx);
 114:Core/Src/usart.c **** 
 115:Core/Src/usart.c ****     /* USART2_TX Init */
 116:Core/Src/usart.c ****     hdma_usart2_tx.Instance = DMA1_Channel7;
 117:Core/Src/usart.c ****     hdma_usart2_tx.Init.Request = DMA_REQUEST_2;
 118:Core/Src/usart.c ****     hdma_usart2_tx.Init.Direction = DMA_MEMORY_TO_PERIPH;
 119:Core/Src/usart.c ****     hdma_usart2_tx.Init.PeriphInc = DMA_PINC_DISABLE;
 120:Core/Src/usart.c ****     hdma_usart2_tx.Init.MemInc = DMA_MINC_ENABLE;
 121:Core/Src/usart.c ****     hdma_usart2_tx.Init.PeriphDataAlignment = DMA_PDATAALIGN_BYTE;
 122:Core/Src/usart.c ****     hdma_usart2_tx.Init.MemDataAlignment = DMA_MDATAALIGN_BYTE;
 123:Core/Src/usart.c ****     hdma_usart2_tx.Init.Mode = DMA_NORMAL;
 124:Core/Src/usart.c ****     hdma_usart2_tx.Init.Priority = DMA_PRIORITY_LOW;
 125:Core/Src/usart.c ****     if (HAL_DMA_Init(&hdma_usart2_tx) != HAL_OK)
 126:Core/Src/usart.c ****     {
 127:Core/Src/usart.c ****       Error_Handler();
 128:Core/Src/usart.c ****     }
 129:Core/Src/usart.c **** 
 130:Core/Src/usart.c ****     __HAL_LINKDMA(uartHandle,hdmatx,hdma_usart2_tx);
 131:Core/Src/usart.c **** 
 132:Core/Src/usart.c ****     /* USART2 interrupt Init */
 133:Core/Src/usart.c ****     HAL_NVIC_SetPriority(USART2_IRQn, 0, 0);
 134:Core/Src/usart.c ****     HAL_NVIC_EnableIRQ(USART2_IRQn);
 135:Core/Src/usart.c ****   /* USER CODE BEGIN USART2_MspInit 1 */
 136:Core/Src/usart.c **** 
 137:Core/Src/usart.c ****   /* USER CODE END USART2_MspInit 1 */
 138:Core/Src/usart.c ****   }
 139:Core/Src/usart.c **** }
 147              		.loc 1 139 1 view .LVU37
 148 0022 2AB0     		add	sp, sp, #168
ARM GAS  C:\Users\union\AppData\Local\Temp\cc0Qh4IN.s 			page 6


 149              	.LCFI3:
 150              		.cfi_remember_state
 151              		.cfi_def_cfa_offset 16
 152              		@ sp needed
 153 0024 70BD     		pop	{r4, r5, r6, pc}
 154              	.LVL5:
 155              	.L13:
 156              	.LCFI4:
 157              		.cfi_restore_state
  75:Core/Src/usart.c ****     PeriphClkInit.Usart2ClockSelection = RCC_USART2CLKSOURCE_PCLK1;
 158              		.loc 1 75 5 is_stmt 1 view .LVU38
  75:Core/Src/usart.c ****     PeriphClkInit.Usart2ClockSelection = RCC_USART2CLKSOURCE_PCLK1;
 159              		.loc 1 75 40 is_stmt 0 view .LVU39
 160 0026 0223     		movs	r3, #2
 161 0028 0393     		str	r3, [sp, #12]
  76:Core/Src/usart.c ****     if (HAL_RCCEx_PeriphCLKConfig(&PeriphClkInit) != HAL_OK)
 162              		.loc 1 76 5 is_stmt 1 view .LVU40
  77:Core/Src/usart.c ****     {
 163              		.loc 1 77 5 view .LVU41
  77:Core/Src/usart.c ****     {
 164              		.loc 1 77 9 is_stmt 0 view .LVU42
 165 002a 03A8     		add	r0, sp, #12
 166 002c FFF7FEFF 		bl	HAL_RCCEx_PeriphCLKConfig
 167              	.LVL6:
  77:Core/Src/usart.c ****     {
 168              		.loc 1 77 8 view .LVU43
 169 0030 0028     		cmp	r0, #0
 170 0032 52D1     		bne	.L14
 171              	.L9:
  83:Core/Src/usart.c **** 
 172              		.loc 1 83 5 is_stmt 1 view .LVU44
 173              	.LBB2:
  83:Core/Src/usart.c **** 
 174              		.loc 1 83 5 view .LVU45
  83:Core/Src/usart.c **** 
 175              		.loc 1 83 5 view .LVU46
 176 0034 2E4B     		ldr	r3, .L17+4
 177 0036 9A6D     		ldr	r2, [r3, #88]
 178 0038 42F40032 		orr	r2, r2, #131072
 179 003c 9A65     		str	r2, [r3, #88]
  83:Core/Src/usart.c **** 
 180              		.loc 1 83 5 view .LVU47
 181 003e 9A6D     		ldr	r2, [r3, #88]
 182 0040 02F40032 		and	r2, r2, #131072
 183 0044 0192     		str	r2, [sp, #4]
  83:Core/Src/usart.c **** 
 184              		.loc 1 83 5 view .LVU48
 185 0046 019A     		ldr	r2, [sp, #4]
 186              	.LBE2:
  85:Core/Src/usart.c ****     /**USART2 GPIO Configuration
 187              		.loc 1 85 5 view .LVU49
 188              	.LBB3:
  85:Core/Src/usart.c ****     /**USART2 GPIO Configuration
 189              		.loc 1 85 5 view .LVU50
  85:Core/Src/usart.c ****     /**USART2 GPIO Configuration
 190              		.loc 1 85 5 view .LVU51
 191 0048 DA6C     		ldr	r2, [r3, #76]
ARM GAS  C:\Users\union\AppData\Local\Temp\cc0Qh4IN.s 			page 7


 192 004a 42F00102 		orr	r2, r2, #1
 193 004e DA64     		str	r2, [r3, #76]
  85:Core/Src/usart.c ****     /**USART2 GPIO Configuration
 194              		.loc 1 85 5 view .LVU52
 195 0050 DB6C     		ldr	r3, [r3, #76]
 196 0052 03F00103 		and	r3, r3, #1
 197 0056 0293     		str	r3, [sp, #8]
  85:Core/Src/usart.c ****     /**USART2 GPIO Configuration
 198              		.loc 1 85 5 view .LVU53
 199 0058 029B     		ldr	r3, [sp, #8]
 200              	.LBE3:
  90:Core/Src/usart.c ****     GPIO_InitStruct.Mode = GPIO_MODE_AF_PP;
 201              		.loc 1 90 5 view .LVU54
  90:Core/Src/usart.c ****     GPIO_InitStruct.Mode = GPIO_MODE_AF_PP;
 202              		.loc 1 90 25 is_stmt 0 view .LVU55
 203 005a 0C23     		movs	r3, #12
 204 005c 2593     		str	r3, [sp, #148]
  91:Core/Src/usart.c ****     GPIO_InitStruct.Pull = GPIO_NOPULL;
 205              		.loc 1 91 5 is_stmt 1 view .LVU56
  91:Core/Src/usart.c ****     GPIO_InitStruct.Pull = GPIO_NOPULL;
 206              		.loc 1 91 26 is_stmt 0 view .LVU57
 207 005e 0226     		movs	r6, #2
 208 0060 2696     		str	r6, [sp, #152]
  92:Core/Src/usart.c ****     GPIO_InitStruct.Speed = GPIO_SPEED_FREQ_VERY_HIGH;
 209              		.loc 1 92 5 is_stmt 1 view .LVU58
  92:Core/Src/usart.c ****     GPIO_InitStruct.Speed = GPIO_SPEED_FREQ_VERY_HIGH;
 210              		.loc 1 92 26 is_stmt 0 view .LVU59
 211 0062 0025     		movs	r5, #0
 212 0064 2795     		str	r5, [sp, #156]
  93:Core/Src/usart.c ****     GPIO_InitStruct.Alternate = GPIO_AF7_USART2;
 213              		.loc 1 93 5 is_stmt 1 view .LVU60
  93:Core/Src/usart.c ****     GPIO_InitStruct.Alternate = GPIO_AF7_USART2;
 214              		.loc 1 93 27 is_stmt 0 view .LVU61
 215 0066 0323     		movs	r3, #3
 216 0068 2893     		str	r3, [sp, #160]
  94:Core/Src/usart.c ****     HAL_GPIO_Init(GPIOA, &GPIO_InitStruct);
 217              		.loc 1 94 5 is_stmt 1 view .LVU62
  94:Core/Src/usart.c ****     HAL_GPIO_Init(GPIOA, &GPIO_InitStruct);
 218              		.loc 1 94 31 is_stmt 0 view .LVU63
 219 006a 0723     		movs	r3, #7
 220 006c 2993     		str	r3, [sp, #164]
  95:Core/Src/usart.c **** 
 221              		.loc 1 95 5 is_stmt 1 view .LVU64
 222 006e 25A9     		add	r1, sp, #148
 223 0070 4FF09040 		mov	r0, #1207959552
 224 0074 FFF7FEFF 		bl	HAL_GPIO_Init
 225              	.LVL7:
  99:Core/Src/usart.c ****     hdma_usart2_rx.Init.Request = DMA_REQUEST_2;
 226              		.loc 1 99 5 view .LVU65
  99:Core/Src/usart.c ****     hdma_usart2_rx.Init.Request = DMA_REQUEST_2;
 227              		.loc 1 99 29 is_stmt 0 view .LVU66
 228 0078 1E48     		ldr	r0, .L17+8
 229 007a 1F4B     		ldr	r3, .L17+12
 230 007c 0360     		str	r3, [r0]
 100:Core/Src/usart.c ****     hdma_usart2_rx.Init.Direction = DMA_PERIPH_TO_MEMORY;
 231              		.loc 1 100 5 is_stmt 1 view .LVU67
 100:Core/Src/usart.c ****     hdma_usart2_rx.Init.Direction = DMA_PERIPH_TO_MEMORY;
ARM GAS  C:\Users\union\AppData\Local\Temp\cc0Qh4IN.s 			page 8


 232              		.loc 1 100 33 is_stmt 0 view .LVU68
 233 007e 4660     		str	r6, [r0, #4]
 101:Core/Src/usart.c ****     hdma_usart2_rx.Init.PeriphInc = DMA_PINC_DISABLE;
 234              		.loc 1 101 5 is_stmt 1 view .LVU69
 101:Core/Src/usart.c ****     hdma_usart2_rx.Init.PeriphInc = DMA_PINC_DISABLE;
 235              		.loc 1 101 35 is_stmt 0 view .LVU70
 236 0080 8560     		str	r5, [r0, #8]
 102:Core/Src/usart.c ****     hdma_usart2_rx.Init.MemInc = DMA_MINC_ENABLE;
 237              		.loc 1 102 5 is_stmt 1 view .LVU71
 102:Core/Src/usart.c ****     hdma_usart2_rx.Init.MemInc = DMA_MINC_ENABLE;
 238              		.loc 1 102 35 is_stmt 0 view .LVU72
 239 0082 C560     		str	r5, [r0, #12]
 103:Core/Src/usart.c ****     hdma_usart2_rx.Init.PeriphDataAlignment = DMA_PDATAALIGN_BYTE;
 240              		.loc 1 103 5 is_stmt 1 view .LVU73
 103:Core/Src/usart.c ****     hdma_usart2_rx.Init.PeriphDataAlignment = DMA_PDATAALIGN_BYTE;
 241              		.loc 1 103 32 is_stmt 0 view .LVU74
 242 0084 8023     		movs	r3, #128
 243 0086 0361     		str	r3, [r0, #16]
 104:Core/Src/usart.c ****     hdma_usart2_rx.Init.MemDataAlignment = DMA_MDATAALIGN_BYTE;
 244              		.loc 1 104 5 is_stmt 1 view .LVU75
 104:Core/Src/usart.c ****     hdma_usart2_rx.Init.MemDataAlignment = DMA_MDATAALIGN_BYTE;
 245              		.loc 1 104 45 is_stmt 0 view .LVU76
 246 0088 4561     		str	r5, [r0, #20]
 105:Core/Src/usart.c ****     hdma_usart2_rx.Init.Mode = DMA_CIRCULAR;
 247              		.loc 1 105 5 is_stmt 1 view .LVU77
 105:Core/Src/usart.c ****     hdma_usart2_rx.Init.Mode = DMA_CIRCULAR;
 248              		.loc 1 105 42 is_stmt 0 view .LVU78
 249 008a 8561     		str	r5, [r0, #24]
 106:Core/Src/usart.c ****     hdma_usart2_rx.Init.Priority = DMA_PRIORITY_LOW;
 250              		.loc 1 106 5 is_stmt 1 view .LVU79
 106:Core/Src/usart.c ****     hdma_usart2_rx.Init.Priority = DMA_PRIORITY_LOW;
 251              		.loc 1 106 30 is_stmt 0 view .LVU80
 252 008c 2023     		movs	r3, #32
 253 008e C361     		str	r3, [r0, #28]
 107:Core/Src/usart.c ****     if (HAL_DMA_Init(&hdma_usart2_rx) != HAL_OK)
 254              		.loc 1 107 5 is_stmt 1 view .LVU81
 107:Core/Src/usart.c ****     if (HAL_DMA_Init(&hdma_usart2_rx) != HAL_OK)
 255              		.loc 1 107 34 is_stmt 0 view .LVU82
 256 0090 0562     		str	r5, [r0, #32]
 108:Core/Src/usart.c ****     {
 257              		.loc 1 108 5 is_stmt 1 view .LVU83
 108:Core/Src/usart.c ****     {
 258              		.loc 1 108 9 is_stmt 0 view .LVU84
 259 0092 FFF7FEFF 		bl	HAL_DMA_Init
 260              	.LVL8:
 108:Core/Src/usart.c ****     {
 261              		.loc 1 108 8 view .LVU85
 262 0096 18BB     		cbnz	r0, .L15
 263              	.L10:
 113:Core/Src/usart.c **** 
 264              		.loc 1 113 5 is_stmt 1 view .LVU86
 113:Core/Src/usart.c **** 
 265              		.loc 1 113 5 view .LVU87
 266 0098 164B     		ldr	r3, .L17+8
 267 009a 2367     		str	r3, [r4, #112]
 113:Core/Src/usart.c **** 
 268              		.loc 1 113 5 view .LVU88
ARM GAS  C:\Users\union\AppData\Local\Temp\cc0Qh4IN.s 			page 9


 269 009c 9C62     		str	r4, [r3, #40]
 116:Core/Src/usart.c ****     hdma_usart2_tx.Init.Request = DMA_REQUEST_2;
 270              		.loc 1 116 5 view .LVU89
 116:Core/Src/usart.c ****     hdma_usart2_tx.Init.Request = DMA_REQUEST_2;
 271              		.loc 1 116 29 is_stmt 0 view .LVU90
 272 009e 1748     		ldr	r0, .L17+16
 273 00a0 174B     		ldr	r3, .L17+20
 274 00a2 0360     		str	r3, [r0]
 117:Core/Src/usart.c ****     hdma_usart2_tx.Init.Direction = DMA_MEMORY_TO_PERIPH;
 275              		.loc 1 117 5 is_stmt 1 view .LVU91
 117:Core/Src/usart.c ****     hdma_usart2_tx.Init.Direction = DMA_MEMORY_TO_PERIPH;
 276              		.loc 1 117 33 is_stmt 0 view .LVU92
 277 00a4 0223     		movs	r3, #2
 278 00a6 4360     		str	r3, [r0, #4]
 118:Core/Src/usart.c ****     hdma_usart2_tx.Init.PeriphInc = DMA_PINC_DISABLE;
 279              		.loc 1 118 5 is_stmt 1 view .LVU93
 118:Core/Src/usart.c ****     hdma_usart2_tx.Init.PeriphInc = DMA_PINC_DISABLE;
 280              		.loc 1 118 35 is_stmt 0 view .LVU94
 281 00a8 1023     		movs	r3, #16
 282 00aa 8360     		str	r3, [r0, #8]
 119:Core/Src/usart.c ****     hdma_usart2_tx.Init.MemInc = DMA_MINC_ENABLE;
 283              		.loc 1 119 5 is_stmt 1 view .LVU95
 119:Core/Src/usart.c ****     hdma_usart2_tx.Init.MemInc = DMA_MINC_ENABLE;
 284              		.loc 1 119 35 is_stmt 0 view .LVU96
 285 00ac 0023     		movs	r3, #0
 286 00ae C360     		str	r3, [r0, #12]
 120:Core/Src/usart.c ****     hdma_usart2_tx.Init.PeriphDataAlignment = DMA_PDATAALIGN_BYTE;
 287              		.loc 1 120 5 is_stmt 1 view .LVU97
 120:Core/Src/usart.c ****     hdma_usart2_tx.Init.PeriphDataAlignment = DMA_PDATAALIGN_BYTE;
 288              		.loc 1 120 32 is_stmt 0 view .LVU98
 289 00b0 8022     		movs	r2, #128
 290 00b2 0261     		str	r2, [r0, #16]
 121:Core/Src/usart.c ****     hdma_usart2_tx.Init.MemDataAlignment = DMA_MDATAALIGN_BYTE;
 291              		.loc 1 121 5 is_stmt 1 view .LVU99
 121:Core/Src/usart.c ****     hdma_usart2_tx.Init.MemDataAlignment = DMA_MDATAALIGN_BYTE;
 292              		.loc 1 121 45 is_stmt 0 view .LVU100
 293 00b4 4361     		str	r3, [r0, #20]
 122:Core/Src/usart.c ****     hdma_usart2_tx.Init.Mode = DMA_NORMAL;
 294              		.loc 1 122 5 is_stmt 1 view .LVU101
 122:Core/Src/usart.c ****     hdma_usart2_tx.Init.Mode = DMA_NORMAL;
 295              		.loc 1 122 42 is_stmt 0 view .LVU102
 296 00b6 8361     		str	r3, [r0, #24]
 123:Core/Src/usart.c ****     hdma_usart2_tx.Init.Priority = DMA_PRIORITY_LOW;
 297              		.loc 1 123 5 is_stmt 1 view .LVU103
 123:Core/Src/usart.c ****     hdma_usart2_tx.Init.Priority = DMA_PRIORITY_LOW;
 298              		.loc 1 123 30 is_stmt 0 view .LVU104
 299 00b8 C361     		str	r3, [r0, #28]
 124:Core/Src/usart.c ****     if (HAL_DMA_Init(&hdma_usart2_tx) != HAL_OK)
 300              		.loc 1 124 5 is_stmt 1 view .LVU105
 124:Core/Src/usart.c ****     if (HAL_DMA_Init(&hdma_usart2_tx) != HAL_OK)
 301              		.loc 1 124 34 is_stmt 0 view .LVU106
 302 00ba 0362     		str	r3, [r0, #32]
 125:Core/Src/usart.c ****     {
 303              		.loc 1 125 5 is_stmt 1 view .LVU107
 125:Core/Src/usart.c ****     {
 304              		.loc 1 125 9 is_stmt 0 view .LVU108
 305 00bc FFF7FEFF 		bl	HAL_DMA_Init
ARM GAS  C:\Users\union\AppData\Local\Temp\cc0Qh4IN.s 			page 10


 306              	.LVL9:
 125:Core/Src/usart.c ****     {
 307              		.loc 1 125 8 view .LVU109
 308 00c0 88B9     		cbnz	r0, .L16
 309              	.L11:
 130:Core/Src/usart.c **** 
 310              		.loc 1 130 5 is_stmt 1 view .LVU110
 130:Core/Src/usart.c **** 
 311              		.loc 1 130 5 view .LVU111
 312 00c2 0E4B     		ldr	r3, .L17+16
 313 00c4 E366     		str	r3, [r4, #108]
 130:Core/Src/usart.c **** 
 314              		.loc 1 130 5 view .LVU112
 315 00c6 9C62     		str	r4, [r3, #40]
 133:Core/Src/usart.c ****     HAL_NVIC_EnableIRQ(USART2_IRQn);
 316              		.loc 1 133 5 view .LVU113
 317 00c8 0022     		movs	r2, #0
 318 00ca 1146     		mov	r1, r2
 319 00cc 2620     		movs	r0, #38
 320 00ce FFF7FEFF 		bl	HAL_NVIC_SetPriority
 321              	.LVL10:
 134:Core/Src/usart.c ****   /* USER CODE BEGIN USART2_MspInit 1 */
 322              		.loc 1 134 5 view .LVU114
 323 00d2 2620     		movs	r0, #38
 324 00d4 FFF7FEFF 		bl	HAL_NVIC_EnableIRQ
 325              	.LVL11:
 326              		.loc 1 139 1 is_stmt 0 view .LVU115
 327 00d8 A3E7     		b	.L7
 328              	.L14:
  79:Core/Src/usart.c ****     }
 329              		.loc 1 79 7 is_stmt 1 view .LVU116
 330 00da FFF7FEFF 		bl	Error_Handler
 331              	.LVL12:
 332 00de A9E7     		b	.L9
 333              	.L15:
 110:Core/Src/usart.c ****     }
 334              		.loc 1 110 7 view .LVU117
 335 00e0 FFF7FEFF 		bl	Error_Handler
 336              	.LVL13:
 337 00e4 D8E7     		b	.L10
 338              	.L16:
 127:Core/Src/usart.c ****     }
 339              		.loc 1 127 7 view .LVU118
 340 00e6 FFF7FEFF 		bl	Error_Handler
 341              	.LVL14:
 342 00ea EAE7     		b	.L11
 343              	.L18:
 344              		.align	2
 345              	.L17:
 346 00ec 00440040 		.word	1073759232
 347 00f0 00100240 		.word	1073876992
 348 00f4 00000000 		.word	hdma_usart2_rx
 349 00f8 6C000240 		.word	1073873004
 350 00fc 00000000 		.word	hdma_usart2_tx
 351 0100 80000240 		.word	1073873024
 352              		.cfi_endproc
 353              	.LFE133:
ARM GAS  C:\Users\union\AppData\Local\Temp\cc0Qh4IN.s 			page 11


 355              		.section	.text.HAL_UART_MspDeInit,"ax",%progbits
 356              		.align	1
 357              		.global	HAL_UART_MspDeInit
 358              		.syntax unified
 359              		.thumb
 360              		.thumb_func
 361              		.fpu fpv4-sp-d16
 363              	HAL_UART_MspDeInit:
 364              	.LVL15:
 365              	.LFB134:
 140:Core/Src/usart.c **** 
 141:Core/Src/usart.c **** void HAL_UART_MspDeInit(UART_HandleTypeDef* uartHandle)
 142:Core/Src/usart.c **** {
 366              		.loc 1 142 1 view -0
 367              		.cfi_startproc
 368              		@ args = 0, pretend = 0, frame = 0
 369              		@ frame_needed = 0, uses_anonymous_args = 0
 143:Core/Src/usart.c **** 
 144:Core/Src/usart.c ****   if(uartHandle->Instance==USART2)
 370              		.loc 1 144 3 view .LVU120
 371              		.loc 1 144 16 is_stmt 0 view .LVU121
 372 0000 0268     		ldr	r2, [r0]
 373              		.loc 1 144 5 view .LVU122
 374 0002 0D4B     		ldr	r3, .L26
 375 0004 9A42     		cmp	r2, r3
 376 0006 00D0     		beq	.L25
 377 0008 7047     		bx	lr
 378              	.L25:
 142:Core/Src/usart.c **** 
 379              		.loc 1 142 1 view .LVU123
 380 000a 10B5     		push	{r4, lr}
 381              	.LCFI5:
 382              		.cfi_def_cfa_offset 8
 383              		.cfi_offset 4, -8
 384              		.cfi_offset 14, -4
 385 000c 0446     		mov	r4, r0
 145:Core/Src/usart.c ****   {
 146:Core/Src/usart.c ****   /* USER CODE BEGIN USART2_MspDeInit 0 */
 147:Core/Src/usart.c **** 
 148:Core/Src/usart.c ****   /* USER CODE END USART2_MspDeInit 0 */
 149:Core/Src/usart.c ****     /* Peripheral clock disable */
 150:Core/Src/usart.c ****     __HAL_RCC_USART2_CLK_DISABLE();
 386              		.loc 1 150 5 is_stmt 1 view .LVU124
 387 000e 0B4A     		ldr	r2, .L26+4
 388 0010 936D     		ldr	r3, [r2, #88]
 389 0012 23F40033 		bic	r3, r3, #131072
 390 0016 9365     		str	r3, [r2, #88]
 151:Core/Src/usart.c **** 
 152:Core/Src/usart.c ****     /**USART2 GPIO Configuration
 153:Core/Src/usart.c ****     PA2     ------> USART2_TX
 154:Core/Src/usart.c ****     PA3     ------> USART2_RX
 155:Core/Src/usart.c ****     */
 156:Core/Src/usart.c ****     HAL_GPIO_DeInit(GPIOA, USART_TX_Pin|USART_RX_Pin);
 391              		.loc 1 156 5 view .LVU125
 392 0018 0C21     		movs	r1, #12
 393 001a 4FF09040 		mov	r0, #1207959552
 394              	.LVL16:
ARM GAS  C:\Users\union\AppData\Local\Temp\cc0Qh4IN.s 			page 12


 395              		.loc 1 156 5 is_stmt 0 view .LVU126
 396 001e FFF7FEFF 		bl	HAL_GPIO_DeInit
 397              	.LVL17:
 157:Core/Src/usart.c **** 
 158:Core/Src/usart.c ****     /* USART2 DMA DeInit */
 159:Core/Src/usart.c ****     HAL_DMA_DeInit(uartHandle->hdmarx);
 398              		.loc 1 159 5 is_stmt 1 view .LVU127
 399 0022 206F     		ldr	r0, [r4, #112]
 400 0024 FFF7FEFF 		bl	HAL_DMA_DeInit
 401              	.LVL18:
 160:Core/Src/usart.c ****     HAL_DMA_DeInit(uartHandle->hdmatx);
 402              		.loc 1 160 5 view .LVU128
 403 0028 E06E     		ldr	r0, [r4, #108]
 404 002a FFF7FEFF 		bl	HAL_DMA_DeInit
 405              	.LVL19:
 161:Core/Src/usart.c **** 
 162:Core/Src/usart.c ****     /* USART2 interrupt Deinit */
 163:Core/Src/usart.c ****     HAL_NVIC_DisableIRQ(USART2_IRQn);
 406              		.loc 1 163 5 view .LVU129
 407 002e 2620     		movs	r0, #38
 408 0030 FFF7FEFF 		bl	HAL_NVIC_DisableIRQ
 409              	.LVL20:
 164:Core/Src/usart.c ****   /* USER CODE BEGIN USART2_MspDeInit 1 */
 165:Core/Src/usart.c **** 
 166:Core/Src/usart.c ****   /* USER CODE END USART2_MspDeInit 1 */
 167:Core/Src/usart.c ****   }
 168:Core/Src/usart.c **** }
 410              		.loc 1 168 1 is_stmt 0 view .LVU130
 411 0034 10BD     		pop	{r4, pc}
 412              	.LVL21:
 413              	.L27:
 414              		.loc 1 168 1 view .LVU131
 415 0036 00BF     		.align	2
 416              	.L26:
 417 0038 00440040 		.word	1073759232
 418 003c 00100240 		.word	1073876992
 419              		.cfi_endproc
 420              	.LFE134:
 422              		.comm	hdma_usart2_tx,72,4
 423              		.comm	hdma_usart2_rx,72,4
 424              		.comm	huart2,132,4
 425              		.comm	role,1,1
 426              		.comm	mouse_event_cnt,4,4
 427              		.text
 428              	.Letext0:
 429              		.file 2 "c:\\arm_tool\\gcc\\arm-none-eabi\\include\\machine\\_default_types.h"
 430              		.file 3 "c:\\arm_tool\\gcc\\arm-none-eabi\\include\\sys\\_stdint.h"
 431              		.file 4 "Drivers/CMSIS/Include/core_cm4.h"
 432              		.file 5 "Drivers/CMSIS/Device/ST/STM32L4xx/Include/system_stm32l4xx.h"
 433              		.file 6 "Drivers/CMSIS/Device/ST/STM32L4xx/Include/stm32l476xx.h"
 434              		.file 7 "Drivers/STM32L4xx_HAL_Driver/Inc/stm32l4xx_hal_def.h"
 435              		.file 8 "Drivers/STM32L4xx_HAL_Driver/Inc/stm32l4xx_hal_rcc_ex.h"
 436              		.file 9 "Drivers/STM32L4xx_HAL_Driver/Inc/stm32l4xx_hal_gpio.h"
 437              		.file 10 "Drivers/STM32L4xx_HAL_Driver/Inc/stm32l4xx_hal_dma.h"
 438              		.file 11 "Drivers/STM32L4xx_HAL_Driver/Inc/stm32l4xx_hal_flash.h"
 439              		.file 12 "Drivers/STM32L4xx_HAL_Driver/Inc/stm32l4xx_hal_uart.h"
 440              		.file 13 "Drivers/STM32L4xx_HAL_Driver/Inc/stm32l4xx_hal.h"
ARM GAS  C:\Users\union\AppData\Local\Temp\cc0Qh4IN.s 			page 13


 441              		.file 14 "Core/Inc/main.h"
 442              		.file 15 "Core/Inc/usart.h"
 443              		.file 16 "Drivers/STM32L4xx_HAL_Driver/Inc/stm32l4xx_hal_cortex.h"
 444              		.file 17 "<built-in>"
ARM GAS  C:\Users\union\AppData\Local\Temp\cc0Qh4IN.s 			page 14


DEFINED SYMBOLS
                            *ABS*:0000000000000000 usart.c
C:\Users\union\AppData\Local\Temp\cc0Qh4IN.s:18     .text.MX_USART2_UART_Init:0000000000000000 $t
C:\Users\union\AppData\Local\Temp\cc0Qh4IN.s:26     .text.MX_USART2_UART_Init:0000000000000000 MX_USART2_UART_Init
C:\Users\union\AppData\Local\Temp\cc0Qh4IN.s:91     .text.MX_USART2_UART_Init:0000000000000030 $d
                            *COM*:0000000000000084 huart2
C:\Users\union\AppData\Local\Temp\cc0Qh4IN.s:97     .text.HAL_UART_MspInit:0000000000000000 $t
C:\Users\union\AppData\Local\Temp\cc0Qh4IN.s:104    .text.HAL_UART_MspInit:0000000000000000 HAL_UART_MspInit
C:\Users\union\AppData\Local\Temp\cc0Qh4IN.s:346    .text.HAL_UART_MspInit:00000000000000ec $d
                            *COM*:0000000000000048 hdma_usart2_rx
                            *COM*:0000000000000048 hdma_usart2_tx
C:\Users\union\AppData\Local\Temp\cc0Qh4IN.s:356    .text.HAL_UART_MspDeInit:0000000000000000 $t
C:\Users\union\AppData\Local\Temp\cc0Qh4IN.s:363    .text.HAL_UART_MspDeInit:0000000000000000 HAL_UART_MspDeInit
C:\Users\union\AppData\Local\Temp\cc0Qh4IN.s:417    .text.HAL_UART_MspDeInit:0000000000000038 $d
                            *COM*:0000000000000001 role
                            *COM*:0000000000000004 mouse_event_cnt

UNDEFINED SYMBOLS
HAL_UART_Init
Error_Handler
memset
HAL_RCCEx_PeriphCLKConfig
HAL_GPIO_Init
HAL_DMA_Init
HAL_NVIC_SetPriority
HAL_NVIC_EnableIRQ
HAL_GPIO_DeInit
HAL_DMA_DeInit
HAL_NVIC_DisableIRQ
